{
  "contractName": "DHubStore",
  "abi": [
    {
      "inputs": [],
      "name": "AppNotExist",
      "type": "error"
    },
    {
      "inputs": [],
      "name": "InvalidAppId",
      "type": "error"
    },
    {
      "inputs": [],
      "name": "NotAllowedToSeeAppInfo",
      "type": "error"
    },
    {
      "anonymous": false,
      "inputs": [
        {
          "indexed": true,
          "internalType": "address",
          "name": "previousOwner",
          "type": "address"
        },
        {
          "indexed": true,
          "internalType": "address",
          "name": "newOwner",
          "type": "address"
        }
      ],
      "name": "OwnershipTransferred",
      "type": "event"
    },
    {
      "inputs": [],
      "name": "owner",
      "outputs": [
        {
          "internalType": "address",
          "name": "",
          "type": "address"
        }
      ],
      "stateMutability": "view",
      "type": "function"
    },
    {
      "inputs": [],
      "name": "renounceOwnership",
      "outputs": [],
      "stateMutability": "nonpayable",
      "type": "function"
    },
    {
      "inputs": [
        {
          "internalType": "address",
          "name": "newOwner",
          "type": "address"
        }
      ],
      "name": "transferOwnership",
      "outputs": [],
      "stateMutability": "nonpayable",
      "type": "function"
    },
    {
      "inputs": [
        {
          "internalType": "string",
          "name": "_name",
          "type": "string"
        },
        {
          "internalType": "string",
          "name": "_description",
          "type": "string"
        },
        {
          "internalType": "string",
          "name": "_image",
          "type": "string"
        },
        {
          "internalType": "string",
          "name": "_bytecode",
          "type": "string"
        }
      ],
      "name": "requestToPublishApp",
      "outputs": [],
      "stateMutability": "nonpayable",
      "type": "function"
    },
    {
      "inputs": [
        {
          "internalType": "uint256",
          "name": "requestedAppId",
          "type": "uint256"
        }
      ],
      "name": "publishApp",
      "outputs": [],
      "stateMutability": "nonpayable",
      "type": "function"
    },
    {
      "inputs": [
        {
          "internalType": "uint256",
          "name": "appId",
          "type": "uint256"
        }
      ],
      "name": "useApp",
      "outputs": [],
      "stateMutability": "nonpayable",
      "type": "function"
    },
    {
      "inputs": [],
      "name": "getAllPurchasableMarketItems",
      "outputs": [
        {
          "components": [
            {
              "internalType": "uint256",
              "name": "id",
              "type": "uint256"
            },
            {
              "internalType": "string",
              "name": "name",
              "type": "string"
            },
            {
              "internalType": "string",
              "name": "description",
              "type": "string"
            },
            {
              "internalType": "address",
              "name": "owner",
              "type": "address"
            },
            {
              "internalType": "string",
              "name": "image",
              "type": "string"
            },
            {
              "internalType": "string",
              "name": "bytecode",
              "type": "string"
            }
          ],
          "internalType": "struct DHubStore.App[]",
          "name": "",
          "type": "tuple[]"
        }
      ],
      "stateMutability": "view",
      "type": "function"
    },
    {
      "inputs": [
        {
          "internalType": "address",
          "name": "appUserAddress",
          "type": "address"
        }
      ],
      "name": "getAppsBelongToUser",
      "outputs": [
        {
          "components": [
            {
              "internalType": "uint256",
              "name": "id",
              "type": "uint256"
            },
            {
              "internalType": "string",
              "name": "name",
              "type": "string"
            },
            {
              "internalType": "string",
              "name": "description",
              "type": "string"
            },
            {
              "internalType": "address",
              "name": "owner",
              "type": "address"
            },
            {
              "internalType": "string",
              "name": "image",
              "type": "string"
            },
            {
              "internalType": "string",
              "name": "bytecode",
              "type": "string"
            }
          ],
          "internalType": "struct DHubStore.App[]",
          "name": "",
          "type": "tuple[]"
        }
      ],
      "stateMutability": "view",
      "type": "function"
    }
  ],
  "bytecode": "0x608060405234801561001057600080fd5b5061002d61002261003260201b60201c565b61003a60201b60201c565b6100fe565b600033905090565b60008060009054906101000a900473ffffffffffffffffffffffffffffffffffffffff169050816000806101000a81548173ffffffffffffffffffffffffffffffffffffffff021916908373ffffffffffffffffffffffffffffffffffffffff1602179055508173ffffffffffffffffffffffffffffffffffffffff168173ffffffffffffffffffffffffffffffffffffffff167f8be0079c531659141344cd1fd0a4f28419497f9722a3daafe3b4186f6b6457e060405160405180910390a35050565b611dab8061010d6000396000f3fe608060405234801561001057600080fd5b50600436106100885760003560e01c8063bcd3d8ba1161005b578063bcd3d8ba14610101578063dffae8061461011f578063e41e72661461013b578063f2fde38b1461015757610088565b80630ca62d571461008d578063230254f0146100a9578063715018a6146100d95780638da5cb5b146100e3575b600080fd5b6100a760048036038101906100a291906112c6565b610173565b005b6100c360048036038101906100be9190611351565b61035c565b6040516100d0919061158c565b60405180910390f35b6100e1610742565b005b6100eb610756565b6040516100f891906115bd565b60405180910390f35b61010961077f565b604051610116919061158c565b60405180910390f35b6101396004803603810190610134919061170d565b610a8e565b005b610155600480360381019061015091906112c6565b610bc6565b005b610171600480360381019061016c9190611351565b61108b565b005b60038054905081106101b1576040517f59a79eab00000000000000000000000000000000000000000000000000000000815260040160405180910390fd5b60005b6003805490508110156103585781600382815481106101d6576101d56117e4565b5b90600052602060002090600602016000015403610345576000600560003373ffffffffffffffffffffffffffffffffffffffff1673ffffffffffffffffffffffffffffffffffffffff16815260200190815260200160002090508060038381548110610245576102446117e4565b5b90600052602060002090600602019080600181540180825580915050600190039060005260206000209060060201600090919091909150600082015481600001556001820181600101908161029a9190611a35565b50600282018160020190816102af9190611a35565b506003820160009054906101000a900473ffffffffffffffffffffffffffffffffffffffff168160030160006101000a81548173ffffffffffffffffffffffffffffffffffffffff021916908373ffffffffffffffffffffffffffffffffffffffff1602179055506004820181600401908161032b9190611a35565b50600582018160050190816103409190611a35565b505050505b808061035090611b4c565b9150506101b4565b5050565b6060610366610756565b73ffffffffffffffffffffffffffffffffffffffff163373ffffffffffffffffffffffffffffffffffffffff16146103fe578173ffffffffffffffffffffffffffffffffffffffff163373ffffffffffffffffffffffffffffffffffffffff16146103fd576040517f453f499a00000000000000000000000000000000000000000000000000000000815260040160405180910390fd5b5b600560008373ffffffffffffffffffffffffffffffffffffffff1673ffffffffffffffffffffffffffffffffffffffff168152602001908152602001600020805480602002602001604051908101604052809291908181526020016000905b8282101561073757838290600052602060002090600602016040518060c00160405290816000820154815260200160018201805461049a90611842565b80601f01602080910402602001604051908101604052809291908181526020018280546104c690611842565b80156105135780601f106104e857610100808354040283529160200191610513565b820191906000526020600020905b8154815290600101906020018083116104f657829003601f168201915b5050505050815260200160028201805461052c90611842565b80601f016020809104026020016040519081016040528092919081815260200182805461055890611842565b80156105a55780601f1061057a576101008083540402835291602001916105a5565b820191906000526020600020905b81548152906001019060200180831161058857829003601f168201915b505050505081526020016003820160009054906101000a900473ffffffffffffffffffffffffffffffffffffffff1673ffffffffffffffffffffffffffffffffffffffff1673ffffffffffffffffffffffffffffffffffffffff16815260200160048201805461061490611842565b80601f016020809104026020016040519081016040528092919081815260200182805461064090611842565b801561068d5780601f106106625761010080835404028352916020019161068d565b820191906000526020600020905b81548152906001019060200180831161067057829003601f168201915b505050505081526020016005820180546106a690611842565b80601f01602080910402602001604051908101604052809291908181526020018280546106d290611842565b801561071f5780601f106106f45761010080835404028352916020019161071f565b820191906000526020600020905b81548152906001019060200180831161070257829003601f168201915b5050505050815250508152602001906001019061045d565b505050509050919050565b61074a61110e565b610754600061118c565b565b60008060009054906101000a900473ffffffffffffffffffffffffffffffffffffffff16905090565b606061078961110e565b6003805480602002602001604051908101604052809291908181526020016000905b82821015610a8557838290600052602060002090600602016040518060c0016040529081600082015481526020016001820180546107e890611842565b80601f016020809104026020016040519081016040528092919081815260200182805461081490611842565b80156108615780601f1061083657610100808354040283529160200191610861565b820191906000526020600020905b81548152906001019060200180831161084457829003601f168201915b5050505050815260200160028201805461087a90611842565b80601f01602080910402602001604051908101604052809291908181526020018280546108a690611842565b80156108f35780601f106108c8576101008083540402835291602001916108f3565b820191906000526020600020905b8154815290600101906020018083116108d657829003601f168201915b505050505081526020016003820160009054906101000a900473ffffffffffffffffffffffffffffffffffffffff1673ffffffffffffffffffffffffffffffffffffffff1673ffffffffffffffffffffffffffffffffffffffff16815260200160048201805461096290611842565b80601f016020809104026020016040519081016040528092919081815260200182805461098e90611842565b80156109db5780601f106109b0576101008083540402835291602001916109db565b820191906000526020600020905b8154815290600101906020018083116109be57829003601f168201915b505050505081526020016005820180546109f490611842565b80601f0160208091040260200160405190810160405280929190818152602001828054610a2090611842565b8015610a6d5780601f10610a4257610100808354040283529160200191610a6d565b820191906000526020600020905b815481529060010190602001808311610a5057829003601f168201915b505050505081525050815260200190600101906107ab565b50505050905090565b6000610a9a6002611250565b9050610aa6600261125e565b60046040518060c001604052808381526020018781526020018681526020013373ffffffffffffffffffffffffffffffffffffffff168152602001858152602001848152509080600181540180825580915050600190039060005260206000209060060201600090919091909150600082015181600001556020820151816001019081610b339190611b94565b506040820151816002019081610b499190611b94565b5060608201518160030160006101000a81548173ffffffffffffffffffffffffffffffffffffffff021916908373ffffffffffffffffffffffffffffffffffffffff1602179055506080820151816004019081610ba69190611b94565b5060a0820151816005019081610bbc9190611b94565b5050505050505050565b610bce61110e565b6004805490508110610c0c576040517f6470515b00000000000000000000000000000000000000000000000000000000815260040160405180910390fd5b60005b600480549050811015611087578160048281548110610c3157610c306117e4565b5b90600052602060002090600602016000015403611074576000610c546001611250565b9050610c60600161125e565b60036040518060c0016040528083815260200160048581548110610c8757610c866117e4565b5b90600052602060002090600602016001018054610ca390611842565b80601f0160208091040260200160405190810160405280929190818152602001828054610ccf90611842565b8015610d1c5780601f10610cf157610100808354040283529160200191610d1c565b820191906000526020600020905b815481529060010190602001808311610cff57829003601f168201915b5050505050815260200160048581548110610d3a57610d396117e4565b5b90600052602060002090600602016002018054610d5690611842565b80601f0160208091040260200160405190810160405280929190818152602001828054610d8290611842565b8015610dcf5780601f10610da457610100808354040283529160200191610dcf565b820191906000526020600020905b815481529060010190602001808311610db257829003601f168201915b5050505050815260200160048581548110610ded57610dec6117e4565b5b906000526020600020906006020160030160009054906101000a900473ffffffffffffffffffffffffffffffffffffffff1673ffffffffffffffffffffffffffffffffffffffff16815260200160048581548110610e4e57610e4d6117e4565b5b90600052602060002090600602016004018054610e6a90611842565b80601f0160208091040260200160405190810160405280929190818152602001828054610e9690611842565b8015610ee35780601f10610eb857610100808354040283529160200191610ee3565b820191906000526020600020905b815481529060010190602001808311610ec657829003601f168201915b5050505050815260200160048581548110610f0157610f006117e4565b5b90600052602060002090600602016005018054610f1d90611842565b80601f0160208091040260200160405190810160405280929190818152602001828054610f4990611842565b8015610f965780601f10610f6b57610100808354040283529160200191610f96565b820191906000526020600020905b815481529060010190602001808311610f7957829003601f168201915b50505050508152509080600181540180825580915050600190039060005260206000209060060201600090919091909150600082015181600001556020820151816001019081610fe69190611b94565b506040820151816002019081610ffc9190611b94565b5060608201518160030160006101000a81548173ffffffffffffffffffffffffffffffffffffffff021916908373ffffffffffffffffffffffffffffffffffffffff16021790555060808201518160040190816110599190611b94565b5060a082015181600501908161106f9190611b94565b505050505b808061107f90611b4c565b915050610c0f565b5050565b61109361110e565b600073ffffffffffffffffffffffffffffffffffffffff168173ffffffffffffffffffffffffffffffffffffffff1603611102576040517f08c379a00000000000000000000000000000000000000000000000000000000081526004016110f990611ce9565b60405180910390fd5b61110b8161118c565b50565b611116611274565b73ffffffffffffffffffffffffffffffffffffffff16611134610756565b73ffffffffffffffffffffffffffffffffffffffff161461118a576040517f08c379a000000000000000000000000000000000000000000000000000000000815260040161118190611d55565b60405180910390fd5b565b60008060009054906101000a900473ffffffffffffffffffffffffffffffffffffffff169050816000806101000a81548173ffffffffffffffffffffffffffffffffffffffff021916908373ffffffffffffffffffffffffffffffffffffffff1602179055508173ffffffffffffffffffffffffffffffffffffffff168173ffffffffffffffffffffffffffffffffffffffff167f8be0079c531659141344cd1fd0a4f28419497f9722a3daafe3b4186f6b6457e060405160405180910390a35050565b600081600001549050919050565b6001816000016000828254019250508190555050565b600033905090565b6000604051905090565b600080fd5b600080fd5b6000819050919050565b6112a381611290565b81146112ae57600080fd5b50565b6000813590506112c08161129a565b92915050565b6000602082840312156112dc576112db611286565b5b60006112ea848285016112b1565b91505092915050565b600073ffffffffffffffffffffffffffffffffffffffff82169050919050565b600061131e826112f3565b9050919050565b61132e81611313565b811461133957600080fd5b50565b60008135905061134b81611325565b92915050565b60006020828403121561136757611366611286565b5b60006113758482850161133c565b91505092915050565b600081519050919050565b600082825260208201905092915050565b6000819050602082019050919050565b6113b381611290565b82525050565b600081519050919050565b600082825260208201905092915050565b60005b838110156113f35780820151818401526020810190506113d8565b60008484015250505050565b6000601f19601f8301169050919050565b600061141b826113b9565b61142581856113c4565b93506114358185602086016113d5565b61143e816113ff565b840191505092915050565b61145281611313565b82525050565b600060c08301600083015161147060008601826113aa565b50602083015184820360208601526114888282611410565b915050604083015184820360408601526114a28282611410565b91505060608301516114b76060860182611449565b50608083015184820360808601526114cf8282611410565b91505060a083015184820360a08601526114e98282611410565b9150508091505092915050565b60006115028383611458565b905092915050565b6000602082019050919050565b60006115228261137e565b61152c8185611389565b93508360208202850161153e8561139a565b8060005b8581101561157a578484038952815161155b85826114f6565b94506115668361150a565b925060208a01995050600181019050611542565b50829750879550505050505092915050565b600060208201905081810360008301526115a68184611517565b905092915050565b6115b781611313565b82525050565b60006020820190506115d260008301846115ae565b92915050565b600080fd5b600080fd5b7f4e487b7100000000000000000000000000000000000000000000000000000000600052604160045260246000fd5b61161a826113ff565b810181811067ffffffffffffffff82111715611639576116386115e2565b5b80604052505050565b600061164c61127c565b90506116588282611611565b919050565b600067ffffffffffffffff821115611678576116776115e2565b5b611681826113ff565b9050602081019050919050565b82818337600083830152505050565b60006116b06116ab8461165d565b611642565b9050828152602081018484840111156116cc576116cb6115dd565b5b6116d784828561168e565b509392505050565b600082601f8301126116f4576116f36115d8565b5b813561170484826020860161169d565b91505092915050565b6000806000806080858703121561172757611726611286565b5b600085013567ffffffffffffffff8111156117455761174461128b565b5b611751878288016116df565b945050602085013567ffffffffffffffff8111156117725761177161128b565b5b61177e878288016116df565b935050604085013567ffffffffffffffff81111561179f5761179e61128b565b5b6117ab878288016116df565b925050606085013567ffffffffffffffff8111156117cc576117cb61128b565b5b6117d8878288016116df565b91505092959194509250565b7f4e487b7100000000000000000000000000000000000000000000000000000000600052603260045260246000fd5b7f4e487b7100000000000000000000000000000000000000000000000000000000600052602260045260246000fd5b6000600282049050600182168061185a57607f821691505b60208210810361186d5761186c611813565b5b50919050565b60008154905061188281611842565b9050919050565b60008190508160005260206000209050919050565b60006020601f8301049050919050565b600082821b905092915050565b6000600883026118eb7fffffffffffffffffffffffffffffffffffffffffffffffffffffffffffffffff826118ae565b6118f586836118ae565b95508019841693508086168417925050509392505050565b6000819050919050565b600061193261192d61192884611290565b61190d565b611290565b9050919050565b6000819050919050565b61194c83611917565b61196061195882611939565b8484546118bb565b825550505050565b600090565b611975611968565b611980818484611943565b505050565b5b818110156119a45761199960008261196d565b600181019050611986565b5050565b601f8211156119e9576119ba81611889565b6119c38461189e565b810160208510156119d2578190505b6119e66119de8561189e565b830182611985565b50505b505050565b600082821c905092915050565b6000611a0c600019846008026119ee565b1980831691505092915050565b6000611a2583836119fb565b9150826002028217905092915050565b818103611a43575050611b1b565b611a4c82611873565b67ffffffffffffffff811115611a6557611a646115e2565b5b611a6f8254611842565b611a7a8282856119a8565b6000601f831160018114611aa95760008415611a97578287015490505b611aa18582611a19565b865550611b14565b601f198416611ab787611889565b9650611ac286611889565b60005b82811015611aea57848901548255600182019150600185019450602081019050611ac5565b86831015611b075784890154611b03601f8916826119fb565b8355505b6001600288020188555050505b5050505050505b565b7f4e487b7100000000000000000000000000000000000000000000000000000000600052601160045260246000fd5b6000611b5782611290565b91507fffffffffffffffffffffffffffffffffffffffffffffffffffffffffffffffff8203611b8957611b88611b1d565b5b600182019050919050565b611b9d826113b9565b67ffffffffffffffff811115611bb657611bb56115e2565b5b611bc08254611842565b611bcb8282856119a8565b600060209050601f831160018114611bfe5760008415611bec578287015190505b611bf68582611a19565b865550611c5e565b601f198416611c0c86611889565b60005b82811015611c3457848901518255600182019150602085019450602081019050611c0f565b86831015611c515784890151611c4d601f8916826119fb565b8355505b6001600288020188555050505b505050505050565b600082825260208201905092915050565b7f4f776e61626c653a206e6577206f776e657220697320746865207a65726f206160008201527f6464726573730000000000000000000000000000000000000000000000000000602082015250565b6000611cd3602683611c66565b9150611cde82611c77565b604082019050919050565b60006020820190508181036000830152611d0281611cc6565b9050919050565b7f4f776e61626c653a2063616c6c6572206973206e6f7420746865206f776e6572600082015250565b6000611d3f602083611c66565b9150611d4a82611d09565b602082019050919050565b60006020820190508181036000830152611d6e81611d32565b905091905056fea2646970667358221220160e5eb0bfe36f5d7e14162497f3dfd3f138ba61191d38a7360f5283e498fb1d64736f6c63430008110033",
  "immutableReferences": {},
  "source": "// SPDX-License-Identifier: MIT\npragma solidity 0.8.17;\n\nimport \"@openzeppelin/contracts/access/Ownable.sol\";\nimport \"@openzeppelin/contracts/utils/Counters.sol\";\n\nerror AppNotExist();\nerror InvalidAppId();\nerror NotAllowedToSeeAppInfo();\n\ncontract DHubStore is Ownable {\n    using Counters for Counters.Counter;\n    Counters.Counter private _appIdCounter;\n    Counters.Counter private _requestedAppIdCounter;\n\n    struct App {\n        uint256 id;\n        string name;\n        string description;\n        address owner;\n        string image;\n        string bytecode;\n    }\n\n    // apps that have already been published by admin\n    App[] private apps;\n    // apps that have been requested to publish\n    App[] private requestedApps;\n\n    // user address => apps used by that user\n    mapping(address => App[]) private userToAppsMapper;\n\n    function requestToPublishApp(\n        string memory _name,\n        string memory _description,\n        string memory _image,\n        string memory _bytecode\n    ) external {\n        uint256 appId = _requestedAppIdCounter.current();\n        _requestedAppIdCounter.increment();\n        requestedApps.push(App(appId, _name, _description, msg.sender, _image, _bytecode));\n    }\n\n    function publishApp(\n        uint256 requestedAppId\n    ) external onlyOwner {\n        if (requestedAppId >= requestedApps.length) revert InvalidAppId();\n        for (uint i = 0; i < requestedApps.length; i++) {\n            if (requestedApps[i].id == requestedAppId) {\n                uint256 appId = _appIdCounter.current();\n                _appIdCounter.increment();\n                apps.push(App(appId, requestedApps[i].name, requestedApps[i].description, requestedApps[i].owner, requestedApps[i].image, requestedApps[i].bytecode));\n            }\n        }\n    }\n\n    /**\n     * @notice it is free at the moment to use an app, no fee is charged when user use apps\n     * @dev user request to use an app\n     */\n    function useApp(uint256 appId) external {\n        if (appId >= apps.length) revert AppNotExist();\n        for (uint i = 0; i < apps.length; i++) {\n            if (apps[i].id == appId) {\n                App[] storage userApps = userToAppsMapper[msg.sender];\n                userApps.push(apps[i]);\n            }\n        }\n    }\n\n    /**\n     * @dev Get all listed apps\n     * @return Array of Apps that are listed\n     */\n    function getAllPurchasableMarketItems() external view onlyOwner returns (App[] memory) {\n        return apps;\n    }\n\n    /**\n     * @dev Get all apps belong to a user (apps that the user has used)\n     * @notice Only app users can view their own app info\n     * @return Array of Apps\n     */\n    function getAppsBelongToUser(address appUserAddress) external view returns (App[] memory) {\n        // revert if caller is not contract owner and attempt to view other address's app info\n        if (msg.sender != owner()) {\n            if (msg.sender != appUserAddress) revert NotAllowedToSeeAppInfo();\n        }\n        return userToAppsMapper[appUserAddress];\n    }\n}\n",
  "sourcePath": "/Users/timthang/Desktop/Blockchain/DHub/DHub-solana-store/truffle/contracts/dhub.sol",
  "compiler": {
    "name": "solc",
    "version": "0.8.17+commit.8df45f5f.Emscripten.clang"
  },
  "schemaVersion": "3.4.10",
  "updatedAt": "2023-02-19T12:45:59.227Z",
  "devdoc": {
    "kind": "dev",
    "methods": {
      "getAllPurchasableMarketItems()": {
        "details": "Get all listed apps",
        "returns": {
          "_0": "Array of Apps that are listed"
        }
      },
      "getAppsBelongToUser(address)": {
        "details": "Get all apps belong to a user (apps that the user has used)",
        "returns": {
          "_0": "Array of Apps"
        }
      },
      "owner()": {
        "details": "Returns the address of the current owner."
      },
      "renounceOwnership()": {
        "details": "Leaves the contract without owner. It will not be possible to call `onlyOwner` functions anymore. Can only be called by the current owner. NOTE: Renouncing ownership will leave the contract without an owner, thereby removing any functionality that is only available to the owner."
      },
      "transferOwnership(address)": {
        "details": "Transfers ownership of the contract to a new account (`newOwner`). Can only be called by the current owner."
      },
      "useApp(uint256)": {
        "details": "user request to use an app"
      }
    },
    "version": 1
  },
  "userdoc": {
    "kind": "user",
    "methods": {
      "getAppsBelongToUser(address)": {
        "notice": "Only app users can view their own app info"
      },
      "useApp(uint256)": {
        "notice": "it is free at the moment to use an app, no fee is charged when user use apps"
      }
    },
    "version": 1
  }
}