{
  "contractName": "DHubStore",
  "abi": [
    {
      "inputs": [],
      "name": "AppNotExist",
      "type": "error"
    },
    {
      "inputs": [],
      "name": "NotAllowedAccount",
      "type": "error"
    },
    {
      "inputs": [],
      "name": "NotAllowedToSeeAppInfo",
      "type": "error"
    },
    {
      "anonymous": false,
      "inputs": [
        {
          "indexed": true,
          "internalType": "address",
          "name": "previousOwner",
          "type": "address"
        },
        {
          "indexed": true,
          "internalType": "address",
          "name": "newOwner",
          "type": "address"
        }
      ],
      "name": "OwnershipTransferred",
      "type": "event"
    },
    {
      "inputs": [],
      "name": "owner",
      "outputs": [
        {
          "internalType": "address",
          "name": "",
          "type": "address"
        }
      ],
      "stateMutability": "view",
      "type": "function"
    },
    {
      "inputs": [],
      "name": "renounceOwnership",
      "outputs": [],
      "stateMutability": "nonpayable",
      "type": "function"
    },
    {
      "inputs": [
        {
          "internalType": "address",
          "name": "newOwner",
          "type": "address"
        }
      ],
      "name": "transferOwnership",
      "outputs": [],
      "stateMutability": "nonpayable",
      "type": "function"
    },
    {
      "inputs": [
        {
          "internalType": "string",
          "name": "_name",
          "type": "string"
        },
        {
          "internalType": "string",
          "name": "_description",
          "type": "string"
        },
        {
          "internalType": "string",
          "name": "_image",
          "type": "string"
        },
        {
          "internalType": "string",
          "name": "_tags",
          "type": "string"
        },
        {
          "internalType": "string",
          "name": "_website",
          "type": "string"
        },
        {
          "internalType": "string",
          "name": "_github",
          "type": "string"
        },
        {
          "internalType": "string",
          "name": "_discord",
          "type": "string"
        },
        {
          "internalType": "string",
          "name": "_telegram",
          "type": "string"
        },
        {
          "internalType": "string",
          "name": "_smartContractUrl",
          "type": "string"
        },
        {
          "internalType": "uint256",
          "name": "_usingPrice",
          "type": "uint256"
        }
      ],
      "name": "requestToPublishApp",
      "outputs": [],
      "stateMutability": "nonpayable",
      "type": "function"
    },
    {
      "inputs": [
        {
          "internalType": "uint256",
          "name": "requestedAppId",
          "type": "uint256"
        }
      ],
      "name": "publishApp",
      "outputs": [],
      "stateMutability": "nonpayable",
      "type": "function"
    },
    {
      "inputs": [
        {
          "internalType": "uint256",
          "name": "_appId",
          "type": "uint256"
        }
      ],
      "name": "rejectApp",
      "outputs": [],
      "stateMutability": "nonpayable",
      "type": "function"
    },
    {
      "inputs": [
        {
          "internalType": "uint256",
          "name": "appId",
          "type": "uint256"
        }
      ],
      "name": "useApp",
      "outputs": [],
      "stateMutability": "payable",
      "type": "function"
    },
    {
      "inputs": [
        {
          "internalType": "address",
          "name": "_address",
          "type": "address"
        }
      ],
      "name": "getAllPublishedApps",
      "outputs": [
        {
          "components": [
            {
              "internalType": "uint256",
              "name": "id",
              "type": "uint256"
            },
            {
              "internalType": "string",
              "name": "name",
              "type": "string"
            },
            {
              "internalType": "address",
              "name": "owner",
              "type": "address"
            },
            {
              "internalType": "string",
              "name": "description",
              "type": "string"
            },
            {
              "internalType": "string",
              "name": "image",
              "type": "string"
            },
            {
              "internalType": "string",
              "name": "tags",
              "type": "string"
            },
            {
              "internalType": "string",
              "name": "website",
              "type": "string"
            },
            {
              "internalType": "string",
              "name": "github",
              "type": "string"
            },
            {
              "internalType": "string",
              "name": "discord",
              "type": "string"
            },
            {
              "internalType": "string",
              "name": "telegram",
              "type": "string"
            },
            {
              "internalType": "string",
              "name": "smartContractUrl",
              "type": "string"
            },
            {
              "internalType": "uint256",
              "name": "usingPrice",
              "type": "uint256"
            }
          ],
          "internalType": "struct DHubStore.App[]",
          "name": "",
          "type": "tuple[]"
        }
      ],
      "stateMutability": "view",
      "type": "function"
    },
    {
      "inputs": [
        {
          "internalType": "address",
          "name": "_address",
          "type": "address"
        }
      ],
      "name": "getAllRequestedApps",
      "outputs": [
        {
          "components": [
            {
              "internalType": "uint256",
              "name": "id",
              "type": "uint256"
            },
            {
              "internalType": "string",
              "name": "name",
              "type": "string"
            },
            {
              "internalType": "address",
              "name": "owner",
              "type": "address"
            },
            {
              "internalType": "string",
              "name": "description",
              "type": "string"
            },
            {
              "internalType": "string",
              "name": "image",
              "type": "string"
            },
            {
              "internalType": "string",
              "name": "tags",
              "type": "string"
            },
            {
              "internalType": "string",
              "name": "website",
              "type": "string"
            },
            {
              "internalType": "string",
              "name": "github",
              "type": "string"
            },
            {
              "internalType": "string",
              "name": "discord",
              "type": "string"
            },
            {
              "internalType": "string",
              "name": "telegram",
              "type": "string"
            },
            {
              "internalType": "string",
              "name": "smartContractUrl",
              "type": "string"
            },
            {
              "internalType": "uint256",
              "name": "usingPrice",
              "type": "uint256"
            }
          ],
          "internalType": "struct DHubStore.App[]",
          "name": "",
          "type": "tuple[]"
        }
      ],
      "stateMutability": "view",
      "type": "function"
    },
    {
      "inputs": [
        {
          "internalType": "uint256",
          "name": "_appId",
          "type": "uint256"
        }
      ],
      "name": "getAppInfo",
      "outputs": [
        {
          "internalType": "string",
          "name": "name",
          "type": "string"
        },
        {
          "internalType": "string",
          "name": "description",
          "type": "string"
        },
        {
          "internalType": "address",
          "name": "owner",
          "type": "address"
        },
        {
          "internalType": "string",
          "name": "image",
          "type": "string"
        },
        {
          "internalType": "string",
          "name": "github",
          "type": "string"
        },
        {
          "internalType": "string",
          "name": "discord",
          "type": "string"
        },
        {
          "internalType": "uint256",
          "name": "usingPrice",
          "type": "uint256"
        }
      ],
      "stateMutability": "view",
      "type": "function"
    },
    {
      "inputs": [
        {
          "internalType": "address",
          "name": "appUserAddress",
          "type": "address"
        }
      ],
      "name": "getAppsBelongToUser",
      "outputs": [
        {
          "components": [
            {
              "internalType": "uint256",
              "name": "id",
              "type": "uint256"
            },
            {
              "internalType": "string",
              "name": "name",
              "type": "string"
            },
            {
              "internalType": "address",
              "name": "owner",
              "type": "address"
            },
            {
              "internalType": "string",
              "name": "description",
              "type": "string"
            },
            {
              "internalType": "string",
              "name": "image",
              "type": "string"
            },
            {
              "internalType": "string",
              "name": "tags",
              "type": "string"
            },
            {
              "internalType": "string",
              "name": "website",
              "type": "string"
            },
            {
              "internalType": "string",
              "name": "github",
              "type": "string"
            },
            {
              "internalType": "string",
              "name": "discord",
              "type": "string"
            },
            {
              "internalType": "string",
              "name": "telegram",
              "type": "string"
            },
            {
              "internalType": "string",
              "name": "smartContractUrl",
              "type": "string"
            },
            {
              "internalType": "uint256",
              "name": "usingPrice",
              "type": "uint256"
            }
          ],
          "internalType": "struct DHubStore.App[]",
          "name": "",
          "type": "tuple[]"
        }
      ],
      "stateMutability": "view",
      "type": "function"
    }
  ],
  "bytecode": "0x60806040523480156200001157600080fd5b5062000032620000266200003860201b60201c565b6200004060201b60201c565b62000104565b600033905090565b60008060009054906101000a900473ffffffffffffffffffffffffffffffffffffffff169050816000806101000a81548173ffffffffffffffffffffffffffffffffffffffff021916908373ffffffffffffffffffffffffffffffffffffffff1602179055508173ffffffffffffffffffffffffffffffffffffffff168173ffffffffffffffffffffffffffffffffffffffff167f8be0079c531659141344cd1fd0a4f28419497f9722a3daafe3b4186f6b6457e060405160405180910390a35050565b613c9b80620001146000396000f3fe60806040526004361061009c5760003560e01c8063741aa2bd11610064578063741aa2bd1461018b57806381361650146101ce5780638da5cb5b146101f7578063d1c3353714610222578063e41e72661461024b578063f2fde38b146102745761009c565b80630ca62d57146100a1578063230254f0146100bd57806324071784146100fa5780632d67972a14610137578063715018a614610174575b600080fd5b6100bb60048036038101906100b69190612ea3565b61029d565b005b3480156100c957600080fd5b506100e460048036038101906100df9190612f2e565b61058b565b6040516100f19190613207565b60405180910390f35b34801561010657600080fd5b50610121600480360381019061011c9190612f2e565b610c56565b60405161012e9190613207565b60405180910390f35b34801561014357600080fd5b5061015e60048036038101906101599190612f2e565b6112b0565b60405161016b9190613207565b60405180910390f35b34801561018057600080fd5b5061018961190a565b005b34801561019757600080fd5b506101b260048036038101906101ad9190612ea3565b61191e565b6040516101c59796959493929190613291565b60405180910390f35b3480156101da57600080fd5b506101f560048036038101906101f09190613458565b611d24565b005b34801561020357600080fd5b5061020c611f03565b6040516102199190613633565b60405180910390f35b34801561022e57600080fd5b5061024960048036038101906102449190612ea3565b611f2c565b005b34801561025757600080fd5b50610272600480360381019061026d9190612ea3565b611f40565b005b34801561028057600080fd5b5061029b60048036038101906102969190612f2e565b6127f7565b005b60038054905081106102db576040517f59a79eab00000000000000000000000000000000000000000000000000000000815260040160405180910390fd5b60005b600380549050811015610587578160038281548110610300576102ff61364e565b5b90600052602060002090600c02016000015403610574576000600560003373ffffffffffffffffffffffffffffffffffffffff1673ffffffffffffffffffffffffffffffffffffffff1681526020019081526020016000209050806003838154811061036f5761036e61364e565b5b90600052602060002090600c020190806001815401808255809150506001900390600052602060002090600c020160009091909190915060008201548160000155600182018160010190816103c4919061389f565b506002820160009054906101000a900473ffffffffffffffffffffffffffffffffffffffff168160020160006101000a81548173ffffffffffffffffffffffffffffffffffffffff021916908373ffffffffffffffffffffffffffffffffffffffff16021790555060038201816003019081610440919061389f565b5060048201816004019081610455919061389f565b506005820181600501908161046a919061389f565b506006820181600601908161047f919061389f565b5060078201816007019081610494919061389f565b50600882018160080190816104a9919061389f565b50600982018160090190816104be919061389f565b50600a820181600a0190816104d3919061389f565b50600b82015481600b015550506000600383815481106104f6576104f561364e565b5b90600052602060002090600c020160020160009054906101000a900473ffffffffffffffffffffffffffffffffffffffff1690508073ffffffffffffffffffffffffffffffffffffffff166108fc349081150290604051600060405180830381858888f19350505050158015610570573d6000803e3d6000fd5b5050505b808061057f906139b6565b9150506102de565b5050565b6060610595611f03565b73ffffffffffffffffffffffffffffffffffffffff163373ffffffffffffffffffffffffffffffffffffffff161461062d578173ffffffffffffffffffffffffffffffffffffffff163373ffffffffffffffffffffffffffffffffffffffff161461062c576040517f453f499a00000000000000000000000000000000000000000000000000000000815260040160405180910390fd5b5b600560008373ffffffffffffffffffffffffffffffffffffffff1673ffffffffffffffffffffffffffffffffffffffff168152602001908152602001600020805480602002602001604051908101604052809291908181526020016000905b82821015610c4b57838290600052602060002090600c020160405180610180016040529081600082015481526020016001820180546106ca906136ac565b80601f01602080910402602001604051908101604052809291908181526020018280546106f6906136ac565b80156107435780601f1061071857610100808354040283529160200191610743565b820191906000526020600020905b81548152906001019060200180831161072657829003601f168201915b505050505081526020016002820160009054906101000a900473ffffffffffffffffffffffffffffffffffffffff1673ffffffffffffffffffffffffffffffffffffffff1673ffffffffffffffffffffffffffffffffffffffff1681526020016003820180546107b2906136ac565b80601f01602080910402602001604051908101604052809291908181526020018280546107de906136ac565b801561082b5780601f106108005761010080835404028352916020019161082b565b820191906000526020600020905b81548152906001019060200180831161080e57829003601f168201915b50505050508152602001600482018054610844906136ac565b80601f0160208091040260200160405190810160405280929190818152602001828054610870906136ac565b80156108bd5780601f10610892576101008083540402835291602001916108bd565b820191906000526020600020905b8154815290600101906020018083116108a057829003601f168201915b505050505081526020016005820180546108d6906136ac565b80601f0160208091040260200160405190810160405280929190818152602001828054610902906136ac565b801561094f5780601f106109245761010080835404028352916020019161094f565b820191906000526020600020905b81548152906001019060200180831161093257829003601f168201915b50505050508152602001600682018054610968906136ac565b80601f0160208091040260200160405190810160405280929190818152602001828054610994906136ac565b80156109e15780601f106109b6576101008083540402835291602001916109e1565b820191906000526020600020905b8154815290600101906020018083116109c457829003601f168201915b505050505081526020016007820180546109fa906136ac565b80601f0160208091040260200160405190810160405280929190818152602001828054610a26906136ac565b8015610a735780601f10610a4857610100808354040283529160200191610a73565b820191906000526020600020905b815481529060010190602001808311610a5657829003601f168201915b50505050508152602001600882018054610a8c906136ac565b80601f0160208091040260200160405190810160405280929190818152602001828054610ab8906136ac565b8015610b055780601f10610ada57610100808354040283529160200191610b05565b820191906000526020600020905b815481529060010190602001808311610ae857829003601f168201915b50505050508152602001600982018054610b1e906136ac565b80601f0160208091040260200160405190810160405280929190818152602001828054610b4a906136ac565b8015610b975780601f10610b6c57610100808354040283529160200191610b97565b820191906000526020600020905b815481529060010190602001808311610b7a57829003601f168201915b50505050508152602001600a82018054610bb0906136ac565b80601f0160208091040260200160405190810160405280929190818152602001828054610bdc906136ac565b8015610c295780601f10610bfe57610100808354040283529160200191610c29565b820191906000526020600020905b815481529060010190602001808311610c0c57829003601f168201915b50505050508152602001600b820154815250508152602001906001019061068c565b505050509050919050565b6060610c60611f03565b73ffffffffffffffffffffffffffffffffffffffff168273ffffffffffffffffffffffffffffffffffffffff1614610cc4576040517f65d5490e00000000000000000000000000000000000000000000000000000000815260040160405180910390fd5b6004805480602002602001604051908101604052809291908181526020016000905b828210156112a557838290600052602060002090600c02016040518061018001604052908160008201548152602001600182018054610d24906136ac565b80601f0160208091040260200160405190810160405280929190818152602001828054610d50906136ac565b8015610d9d5780601f10610d7257610100808354040283529160200191610d9d565b820191906000526020600020905b815481529060010190602001808311610d8057829003601f168201915b505050505081526020016002820160009054906101000a900473ffffffffffffffffffffffffffffffffffffffff1673ffffffffffffffffffffffffffffffffffffffff1673ffffffffffffffffffffffffffffffffffffffff168152602001600382018054610e0c906136ac565b80601f0160208091040260200160405190810160405280929190818152602001828054610e38906136ac565b8015610e855780601f10610e5a57610100808354040283529160200191610e85565b820191906000526020600020905b815481529060010190602001808311610e6857829003601f168201915b50505050508152602001600482018054610e9e906136ac565b80601f0160208091040260200160405190810160405280929190818152602001828054610eca906136ac565b8015610f175780601f10610eec57610100808354040283529160200191610f17565b820191906000526020600020905b815481529060010190602001808311610efa57829003601f168201915b50505050508152602001600582018054610f30906136ac565b80601f0160208091040260200160405190810160405280929190818152602001828054610f5c906136ac565b8015610fa95780601f10610f7e57610100808354040283529160200191610fa9565b820191906000526020600020905b815481529060010190602001808311610f8c57829003601f168201915b50505050508152602001600682018054610fc2906136ac565b80601f0160208091040260200160405190810160405280929190818152602001828054610fee906136ac565b801561103b5780601f106110105761010080835404028352916020019161103b565b820191906000526020600020905b81548152906001019060200180831161101e57829003601f168201915b50505050508152602001600782018054611054906136ac565b80601f0160208091040260200160405190810160405280929190818152602001828054611080906136ac565b80156110cd5780601f106110a2576101008083540402835291602001916110cd565b820191906000526020600020905b8154815290600101906020018083116110b057829003601f168201915b505050505081526020016008820180546110e6906136ac565b80601f0160208091040260200160405190810160405280929190818152602001828054611112906136ac565b801561115f5780601f106111345761010080835404028352916020019161115f565b820191906000526020600020905b81548152906001019060200180831161114257829003601f168201915b50505050508152602001600982018054611178906136ac565b80601f01602080910402602001604051908101604052809291908181526020018280546111a4906136ac565b80156111f15780601f106111c6576101008083540402835291602001916111f1565b820191906000526020600020905b8154815290600101906020018083116111d457829003601f168201915b50505050508152602001600a8201805461120a906136ac565b80601f0160208091040260200160405190810160405280929190818152602001828054611236906136ac565b80156112835780601f1061125857610100808354040283529160200191611283565b820191906000526020600020905b81548152906001019060200180831161126657829003601f168201915b50505050508152602001600b8201548152505081526020019060010190610ce6565b505050509050919050565b60606112ba611f03565b73ffffffffffffffffffffffffffffffffffffffff168273ffffffffffffffffffffffffffffffffffffffff161461131e576040517f65d5490e00000000000000000000000000000000000000000000000000000000815260040160405180910390fd5b6003805480602002602001604051908101604052809291908181526020016000905b828210156118ff57838290600052602060002090600c0201604051806101800160405290816000820154815260200160018201805461137e906136ac565b80601f01602080910402602001604051908101604052809291908181526020018280546113aa906136ac565b80156113f75780601f106113cc576101008083540402835291602001916113f7565b820191906000526020600020905b8154815290600101906020018083116113da57829003601f168201915b505050505081526020016002820160009054906101000a900473ffffffffffffffffffffffffffffffffffffffff1673ffffffffffffffffffffffffffffffffffffffff1673ffffffffffffffffffffffffffffffffffffffff168152602001600382018054611466906136ac565b80601f0160208091040260200160405190810160405280929190818152602001828054611492906136ac565b80156114df5780601f106114b4576101008083540402835291602001916114df565b820191906000526020600020905b8154815290600101906020018083116114c257829003601f168201915b505050505081526020016004820180546114f8906136ac565b80601f0160208091040260200160405190810160405280929190818152602001828054611524906136ac565b80156115715780601f1061154657610100808354040283529160200191611571565b820191906000526020600020905b81548152906001019060200180831161155457829003601f168201915b5050505050815260200160058201805461158a906136ac565b80601f01602080910402602001604051908101604052809291908181526020018280546115b6906136ac565b80156116035780601f106115d857610100808354040283529160200191611603565b820191906000526020600020905b8154815290600101906020018083116115e657829003601f168201915b5050505050815260200160068201805461161c906136ac565b80601f0160208091040260200160405190810160405280929190818152602001828054611648906136ac565b80156116955780601f1061166a57610100808354040283529160200191611695565b820191906000526020600020905b81548152906001019060200180831161167857829003601f168201915b505050505081526020016007820180546116ae906136ac565b80601f01602080910402602001604051908101604052809291908181526020018280546116da906136ac565b80156117275780601f106116fc57610100808354040283529160200191611727565b820191906000526020600020905b81548152906001019060200180831161170a57829003601f168201915b50505050508152602001600882018054611740906136ac565b80601f016020809104026020016040519081016040528092919081815260200182805461176c906136ac565b80156117b95780601f1061178e576101008083540402835291602001916117b9565b820191906000526020600020905b81548152906001019060200180831161179c57829003601f168201915b505050505081526020016009820180546117d2906136ac565b80601f01602080910402602001604051908101604052809291908181526020018280546117fe906136ac565b801561184b5780601f106118205761010080835404028352916020019161184b565b820191906000526020600020905b81548152906001019060200180831161182e57829003601f168201915b50505050508152602001600a82018054611864906136ac565b80601f0160208091040260200160405190810160405280929190818152602001828054611890906136ac565b80156118dd5780601f106118b2576101008083540402835291602001916118dd565b820191906000526020600020905b8154815290600101906020018083116118c057829003601f168201915b50505050508152602001600b8201548152505081526020019060010190611340565b505050509050919050565b61191261287a565b61191c60006128f8565b565b6060806000606080606060006003888154811061193e5761193d61364e565b5b90600052602060002090600c0201600101600389815481106119635761196261364e565b5b90600052602060002090600c020160030160038a815481106119885761198761364e565b5b90600052602060002090600c020160020160009054906101000a900473ffffffffffffffffffffffffffffffffffffffff1660038b815481106119ce576119cd61364e565b5b90600052602060002090600c020160040160038c815481106119f3576119f261364e565b5b90600052602060002090600c020160070160038d81548110611a1857611a1761364e565b5b90600052602060002090600c020160080160038e81548110611a3d57611a3c61364e565b5b90600052602060002090600c0201600b0154868054611a5b906136ac565b80601f0160208091040260200160405190810160405280929190818152602001828054611a87906136ac565b8015611ad45780601f10611aa957610100808354040283529160200191611ad4565b820191906000526020600020905b815481529060010190602001808311611ab757829003601f168201915b50505050509650858054611ae7906136ac565b80601f0160208091040260200160405190810160405280929190818152602001828054611b13906136ac565b8015611b605780601f10611b3557610100808354040283529160200191611b60565b820191906000526020600020905b815481529060010190602001808311611b4357829003601f168201915b50505050509550838054611b73906136ac565b80601f0160208091040260200160405190810160405280929190818152602001828054611b9f906136ac565b8015611bec5780601f10611bc157610100808354040283529160200191611bec565b820191906000526020600020905b815481529060010190602001808311611bcf57829003601f168201915b50505050509350828054611bff906136ac565b80601f0160208091040260200160405190810160405280929190818152602001828054611c2b906136ac565b8015611c785780601f10611c4d57610100808354040283529160200191611c78565b820191906000526020600020905b815481529060010190602001808311611c5b57829003601f168201915b50505050509250818054611c8b906136ac565b80601f0160208091040260200160405190810160405280929190818152602001828054611cb7906136ac565b8015611d045780601f10611cd957610100808354040283529160200191611d04565b820191906000526020600020905b815481529060010190602001808311611ce757829003601f168201915b505050505091509650965096509650965096509650919395979092949650565b6000611d3060026129bc565b9050611d3c60026129ca565b60046040518061018001604052808381526020018d81526020013373ffffffffffffffffffffffffffffffffffffffff1681526020018c81526020018b81526020018a81526020018981526020018881526020018781526020018681526020018581526020018481525090806001815401808255809150506001900390600052602060002090600c0201600090919091909150600082015181600001556020820151816001019081611dee91906139fe565b5060408201518160020160006101000a81548173ffffffffffffffffffffffffffffffffffffffff021916908373ffffffffffffffffffffffffffffffffffffffff1602179055506060820151816003019081611e4b91906139fe565b506080820151816004019081611e6191906139fe565b5060a0820151816005019081611e7791906139fe565b5060c0820151816006019081611e8d91906139fe565b5060e0820151816007019081611ea391906139fe565b50610100820151816008019081611eba91906139fe565b50610120820151816009019081611ed191906139fe565b5061014082015181600a019081611ee891906139fe565b5061016082015181600b015550505050505050505050505050565b60008060009054906101000a900473ffffffffffffffffffffffffffffffffffffffff16905090565b611f3461287a565b611f3d816129e0565b50565b611f4861287a565b60005b6004805490508110156127ea578160048281548110611f6d57611f6c61364e565b5b90600052602060002090600c020160000154036127d7576000611f9060016129bc565b9050611f9c60016129ca565b600360405180610180016040528083815260200160048581548110611fc457611fc361364e565b5b90600052602060002090600c02016001018054611fe0906136ac565b80601f016020809104026020016040519081016040528092919081815260200182805461200c906136ac565b80156120595780601f1061202e57610100808354040283529160200191612059565b820191906000526020600020905b81548152906001019060200180831161203c57829003601f168201915b50505050508152602001600485815481106120775761207661364e565b5b90600052602060002090600c020160020160009054906101000a900473ffffffffffffffffffffffffffffffffffffffff1673ffffffffffffffffffffffffffffffffffffffff168152602001600485815481106120d8576120d761364e565b5b90600052602060002090600c020160030180546120f4906136ac565b80601f0160208091040260200160405190810160405280929190818152602001828054612120906136ac565b801561216d5780601f106121425761010080835404028352916020019161216d565b820191906000526020600020905b81548152906001019060200180831161215057829003601f168201915b505050505081526020016004858154811061218b5761218a61364e565b5b90600052602060002090600c020160040180546121a7906136ac565b80601f01602080910402602001604051908101604052809291908181526020018280546121d3906136ac565b80156122205780601f106121f557610100808354040283529160200191612220565b820191906000526020600020905b81548152906001019060200180831161220357829003601f168201915b505050505081526020016004858154811061223e5761223d61364e565b5b90600052602060002090600c0201600501805461225a906136ac565b80601f0160208091040260200160405190810160405280929190818152602001828054612286906136ac565b80156122d35780601f106122a8576101008083540402835291602001916122d3565b820191906000526020600020905b8154815290600101906020018083116122b657829003601f168201915b50505050508152602001600485815481106122f1576122f061364e565b5b90600052602060002090600c0201600601805461230d906136ac565b80601f0160208091040260200160405190810160405280929190818152602001828054612339906136ac565b80156123865780601f1061235b57610100808354040283529160200191612386565b820191906000526020600020905b81548152906001019060200180831161236957829003601f168201915b50505050508152602001600485815481106123a4576123a361364e565b5b90600052602060002090600c020160070180546123c0906136ac565b80601f01602080910402602001604051908101604052809291908181526020018280546123ec906136ac565b80156124395780601f1061240e57610100808354040283529160200191612439565b820191906000526020600020905b81548152906001019060200180831161241c57829003601f168201915b50505050508152602001600485815481106124575761245661364e565b5b90600052602060002090600c02016008018054612473906136ac565b80601f016020809104026020016040519081016040528092919081815260200182805461249f906136ac565b80156124ec5780601f106124c1576101008083540402835291602001916124ec565b820191906000526020600020905b8154815290600101906020018083116124cf57829003601f168201915b505050505081526020016004858154811061250a5761250961364e565b5b90600052602060002090600c02016009018054612526906136ac565b80601f0160208091040260200160405190810160405280929190818152602001828054612552906136ac565b801561259f5780601f106125745761010080835404028352916020019161259f565b820191906000526020600020905b81548152906001019060200180831161258257829003601f168201915b50505050508152602001600485815481106125bd576125bc61364e565b5b90600052602060002090600c0201600a0180546125d9906136ac565b80601f0160208091040260200160405190810160405280929190818152602001828054612605906136ac565b80156126525780601f1061262757610100808354040283529160200191612652565b820191906000526020600020905b81548152906001019060200180831161263557829003601f168201915b50505050508152602001600485815481106126705761266f61364e565b5b90600052602060002090600c0201600b015481525090806001815401808255809150506001900390600052602060002090600c02016000909190919091506000820151816000015560208201518160010190816126cd91906139fe565b5060408201518160020160006101000a81548173ffffffffffffffffffffffffffffffffffffffff021916908373ffffffffffffffffffffffffffffffffffffffff160217905550606082015181600301908161272a91906139fe565b50608082015181600401908161274091906139fe565b5060a082015181600501908161275691906139fe565b5060c082015181600601908161276c91906139fe565b5060e082015181600701908161278291906139fe565b5061010082015181600801908161279991906139fe565b506101208201518160090190816127b091906139fe565b5061014082015181600a0190816127c791906139fe565b5061016082015181600b01555050505b80806127e2906139b6565b915050611f4b565b506127f4816129e0565b50565b6127ff61287a565b600073ffffffffffffffffffffffffffffffffffffffff168173ffffffffffffffffffffffffffffffffffffffff160361286e576040517f08c379a000000000000000000000000000000000000000000000000000000000815260040161286590613b42565b60405180910390fd5b612877816128f8565b50565b612882612df4565b73ffffffffffffffffffffffffffffffffffffffff166128a0611f03565b73ffffffffffffffffffffffffffffffffffffffff16146128f6576040517f08c379a00000000000000000000000000000000000000000000000000000000081526004016128ed90613bae565b60405180910390fd5b565b60008060009054906101000a900473ffffffffffffffffffffffffffffffffffffffff169050816000806101000a81548173ffffffffffffffffffffffffffffffffffffffff021916908373ffffffffffffffffffffffffffffffffffffffff1602179055508173ffffffffffffffffffffffffffffffffffffffff168173ffffffffffffffffffffffffffffffffffffffff167f8be0079c531659141344cd1fd0a4f28419497f9722a3daafe3b4186f6b6457e060405160405180910390a35050565b600081600001549050919050565b6001816000016000828254019250508190555050565b60005b600480549050811015612df0578160048281548110612a0557612a0461364e565b5b90600052602060002090600c02016000015403612ddd576001600480549050612a2e9190613bce565b8103612b2b576004805480612a4657612a45613c02565b5b60019003818190600052602060002090600c0201600080820160009055600182016000612a739190612dfc565b6002820160006101000a81549073ffffffffffffffffffffffffffffffffffffffff0219169055600382016000612aaa9190612dfc565b600482016000612aba9190612dfc565b600582016000612aca9190612dfc565b600682016000612ada9190612dfc565b600782016000612aea9190612dfc565b600882016000612afa9190612dfc565b600982016000612b0a9190612dfc565b600a82016000612b1a9190612dfc565b600b82016000905550509055612ddc565b60008190505b6001600480549050612b439190613bce565b811015612ce8576004600182612b599190613c31565b81548110612b6a57612b6961364e565b5b90600052602060002090600c020160048281548110612b8c57612b8b61364e565b5b90600052602060002090600c02016000820154816000015560018201816001019081612bb8919061389f565b506002820160009054906101000a900473ffffffffffffffffffffffffffffffffffffffff168160020160006101000a81548173ffffffffffffffffffffffffffffffffffffffff021916908373ffffffffffffffffffffffffffffffffffffffff16021790555060038201816003019081612c34919061389f565b5060048201816004019081612c49919061389f565b5060058201816005019081612c5e919061389f565b5060068201816006019081612c73919061389f565b5060078201816007019081612c88919061389f565b5060088201816008019081612c9d919061389f565b5060098201816009019081612cb2919061389f565b50600a820181600a019081612cc7919061389f565b50600b82015481600b01559050508080612ce0906139b6565b915050612b31565b506004805480612cfb57612cfa613c02565b5b60019003818190600052602060002090600c0201600080820160009055600182016000612d289190612dfc565b6002820160006101000a81549073ffffffffffffffffffffffffffffffffffffffff0219169055600382016000612d5f9190612dfc565b600482016000612d6f9190612dfc565b600582016000612d7f9190612dfc565b600682016000612d8f9190612dfc565b600782016000612d9f9190612dfc565b600882016000612daf9190612dfc565b600982016000612dbf9190612dfc565b600a82016000612dcf9190612dfc565b600b820160009055505090555b5b8080612de8906139b6565b9150506129e3565b5050565b600033905090565b508054612e08906136ac565b6000825580601f10612e1a5750612e39565b601f016020900490600052602060002090810190612e389190612e3c565b5b50565b5b80821115612e55576000816000905550600101612e3d565b5090565b6000604051905090565b600080fd5b600080fd5b6000819050919050565b612e8081612e6d565b8114612e8b57600080fd5b50565b600081359050612e9d81612e77565b92915050565b600060208284031215612eb957612eb8612e63565b5b6000612ec784828501612e8e565b91505092915050565b600073ffffffffffffffffffffffffffffffffffffffff82169050919050565b6000612efb82612ed0565b9050919050565b612f0b81612ef0565b8114612f1657600080fd5b50565b600081359050612f2881612f02565b92915050565b600060208284031215612f4457612f43612e63565b5b6000612f5284828501612f19565b91505092915050565b600081519050919050565b600082825260208201905092915050565b6000819050602082019050919050565b612f9081612e6d565b82525050565b600081519050919050565b600082825260208201905092915050565b60005b83811015612fd0578082015181840152602081019050612fb5565b60008484015250505050565b6000601f19601f8301169050919050565b6000612ff882612f96565b6130028185612fa1565b9350613012818560208601612fb2565b61301b81612fdc565b840191505092915050565b61302f81612ef0565b82525050565b60006101808301600083015161304e6000860182612f87565b50602083015184820360208601526130668282612fed565b915050604083015161307b6040860182613026565b50606083015184820360608601526130938282612fed565b915050608083015184820360808601526130ad8282612fed565b91505060a083015184820360a08601526130c78282612fed565b91505060c083015184820360c08601526130e18282612fed565b91505060e083015184820360e08601526130fb8282612fed565b9150506101008301518482036101008601526131178282612fed565b9150506101208301518482036101208601526131338282612fed565b91505061014083015184820361014086015261314f8282612fed565b915050610160830151613166610160860182612f87565b508091505092915050565b600061317d8383613035565b905092915050565b6000602082019050919050565b600061319d82612f5b565b6131a78185612f66565b9350836020820285016131b985612f77565b8060005b858110156131f557848403895281516131d68582613171565b94506131e183613185565b925060208a019950506001810190506131bd565b50829750879550505050505092915050565b600060208201905081810360008301526132218184613192565b905092915050565b600082825260208201905092915050565b600061324582612f96565b61324f8185613229565b935061325f818560208601612fb2565b61326881612fdc565b840191505092915050565b61327c81612ef0565b82525050565b61328b81612e6d565b82525050565b600060e08201905081810360008301526132ab818a61323a565b905081810360208301526132bf818961323a565b90506132ce6040830188613273565b81810360608301526132e0818761323a565b905081810360808301526132f4818661323a565b905081810360a0830152613308818561323a565b905061331760c0830184613282565b98975050505050505050565b600080fd5b600080fd5b7f4e487b7100000000000000000000000000000000000000000000000000000000600052604160045260246000fd5b61336582612fdc565b810181811067ffffffffffffffff821117156133845761338361332d565b5b80604052505050565b6000613397612e59565b90506133a3828261335c565b919050565b600067ffffffffffffffff8211156133c3576133c261332d565b5b6133cc82612fdc565b9050602081019050919050565b82818337600083830152505050565b60006133fb6133f6846133a8565b61338d565b90508281526020810184848401111561341757613416613328565b5b6134228482856133d9565b509392505050565b600082601f83011261343f5761343e613323565b5b813561344f8482602086016133e8565b91505092915050565b6000806000806000806000806000806101408b8d03121561347c5761347b612e63565b5b60008b013567ffffffffffffffff81111561349a57613499612e68565b5b6134a68d828e0161342a565b9a505060208b013567ffffffffffffffff8111156134c7576134c6612e68565b5b6134d38d828e0161342a565b99505060408b013567ffffffffffffffff8111156134f4576134f3612e68565b5b6135008d828e0161342a565b98505060608b013567ffffffffffffffff81111561352157613520612e68565b5b61352d8d828e0161342a565b97505060808b013567ffffffffffffffff81111561354e5761354d612e68565b5b61355a8d828e0161342a565b96505060a08b013567ffffffffffffffff81111561357b5761357a612e68565b5b6135878d828e0161342a565b95505060c08b013567ffffffffffffffff8111156135a8576135a7612e68565b5b6135b48d828e0161342a565b94505060e08b013567ffffffffffffffff8111156135d5576135d4612e68565b5b6135e18d828e0161342a565b9350506101008b013567ffffffffffffffff81111561360357613602612e68565b5b61360f8d828e0161342a565b9250506101206136218d828e01612e8e565b9150509295989b9194979a5092959850565b60006020820190506136486000830184613273565b92915050565b7f4e487b7100000000000000000000000000000000000000000000000000000000600052603260045260246000fd5b7f4e487b7100000000000000000000000000000000000000000000000000000000600052602260045260246000fd5b600060028204905060018216806136c457607f821691505b6020821081036136d7576136d661367d565b5b50919050565b6000815490506136ec816136ac565b9050919050565b60008190508160005260206000209050919050565b60006020601f8301049050919050565b600082821b905092915050565b6000600883026137557fffffffffffffffffffffffffffffffffffffffffffffffffffffffffffffffff82613718565b61375f8683613718565b95508019841693508086168417925050509392505050565b6000819050919050565b600061379c61379761379284612e6d565b613777565b612e6d565b9050919050565b6000819050919050565b6137b683613781565b6137ca6137c2826137a3565b848454613725565b825550505050565b600090565b6137df6137d2565b6137ea8184846137ad565b505050565b5b8181101561380e576138036000826137d7565b6001810190506137f0565b5050565b601f82111561385357613824816136f3565b61382d84613708565b8101602085101561383c578190505b61385061384885613708565b8301826137ef565b50505b505050565b600082821c905092915050565b600061387660001984600802613858565b1980831691505092915050565b600061388f8383613865565b9150826002028217905092915050565b8181036138ad575050613985565b6138b6826136dd565b67ffffffffffffffff8111156138cf576138ce61332d565b5b6138d982546136ac565b6138e4828285613812565b6000601f8311600181146139135760008415613901578287015490505b61390b8582613883565b86555061397e565b601f198416613921876136f3565b965061392c866136f3565b60005b828110156139545784890154825560018201915060018501945060208101905061392f565b86831015613971578489015461396d601f891682613865565b8355505b6001600288020188555050505b5050505050505b565b7f4e487b7100000000000000000000000000000000000000000000000000000000600052601160045260246000fd5b60006139c182612e6d565b91507fffffffffffffffffffffffffffffffffffffffffffffffffffffffffffffffff82036139f3576139f2613987565b5b600182019050919050565b613a0782612f96565b67ffffffffffffffff811115613a2057613a1f61332d565b5b613a2a82546136ac565b613a35828285613812565b600060209050601f831160018114613a685760008415613a56578287015190505b613a608582613883565b865550613ac8565b601f198416613a76866136f3565b60005b82811015613a9e57848901518255600182019150602085019450602081019050613a79565b86831015613abb5784890151613ab7601f891682613865565b8355505b6001600288020188555050505b505050505050565b7f4f776e61626c653a206e6577206f776e657220697320746865207a65726f206160008201527f6464726573730000000000000000000000000000000000000000000000000000602082015250565b6000613b2c602683613229565b9150613b3782613ad0565b604082019050919050565b60006020820190508181036000830152613b5b81613b1f565b9050919050565b7f4f776e61626c653a2063616c6c6572206973206e6f7420746865206f776e6572600082015250565b6000613b98602083613229565b9150613ba382613b62565b602082019050919050565b60006020820190508181036000830152613bc781613b8b565b9050919050565b6000613bd982612e6d565b9150613be483612e6d565b9250828203905081811115613bfc57613bfb613987565b5b92915050565b7f4e487b7100000000000000000000000000000000000000000000000000000000600052603160045260246000fd5b6000613c3c82612e6d565b9150613c4783612e6d565b9250828201905080821115613c5f57613c5e613987565b5b9291505056fea26469706673582212209f544bb8ee4442fe7fa25ebfc0820f890bd7f223c024fddf3c89f594fb807bfe64736f6c63430008110033",
  "immutableReferences": {},
  "source": "// SPDX-License-Identifier: MIT\npragma solidity 0.8.17;\n\nimport \"@openzeppelin/contracts/access/Ownable.sol\";\nimport \"@openzeppelin/contracts/utils/Counters.sol\";\n\nerror AppNotExist();\nerror InvalidAppId();\nerror NotAllowedToSeeAppInfo();\nerror NotAllowedAccount();\n\ncontract DHubStore is Ownable {\n    using Counters for Counters.Counter;\n    Counters.Counter private _appIdCounter;\n    Counters.Counter private _requestedAppIdCounter;\n\n    struct App {\n        uint256 id;\n        string name;\n        address owner;\n        string description;\n        string image;\n        string tags;\n        string website;\n        string github;\n        string discord;\n        string telegram;\n        string smartContractUrl;\n        uint256 usingPrice;\n    }\n\n    // apps that have already been published by admin\n    App[] private apps;\n    // apps that have been requested to publish\n    App[] private requestedApps;\n\n    // user address => apps used by that user\n    mapping(address => App[]) private userToAppsMapper;\n\n    function requestToPublishApp(\n        string memory _name,\n        string memory _description,\n        string memory _image,\n        string memory _tags,\n        string memory _website,\n        string memory _github,\n        string memory _discord,\n        string memory _telegram,\n        string memory _smartContractUrl,\n        uint256 _usingPrice\n    ) external {\n        uint256 appId = _requestedAppIdCounter.current();\n        _requestedAppIdCounter.increment();\n        requestedApps.push(App(\n            appId,\n            _name,\n            msg.sender,\n            _description,\n            _image,\n            _tags,\n            _website,\n            _github,\n            _discord,\n            _telegram,\n            _smartContractUrl,\n            _usingPrice\n        ));\n    }\n\n    /**\n     * @dev admin publishes an app to the store\n     */\n    function publishApp(\n        uint256 requestedAppId\n    ) external onlyOwner {\n        for (uint i = 0; i < requestedApps.length; i++) {\n            if (requestedApps[i].id == requestedAppId) {\n                uint256 appId = _appIdCounter.current();\n                _appIdCounter.increment();\n                apps.push(App(\n                    appId,\n                    requestedApps[i].name,\n                    requestedApps[i].owner, \n                    requestedApps[i].description,\n                    requestedApps[i].image,\n                    requestedApps[i].tags,\n                    requestedApps[i].website,\n                    requestedApps[i].github,\n                    requestedApps[i].discord,\n                    requestedApps[i].telegram,\n                    requestedApps[i].smartContractUrl,\n                    requestedApps[i].usingPrice\n                ));\n            }\n        }\n        removeAppFromRequestedApps(requestedAppId);\n    }\n\n    /**\n     * @dev admin rejects to publish an app to the store\n     */\n    function rejectApp(uint256 _appId) external onlyOwner {\n        removeAppFromRequestedApps(_appId);\n    }\n\n    /**\n     * @dev remove an app from requested apps queue by app id\n     */\n    function removeAppFromRequestedApps(uint256 _appId) internal {\n        for (uint i = 0; i < requestedApps.length; i++) {\n            if (requestedApps[i].id == _appId) {\n                if (i == requestedApps.length - 1) {\n                    requestedApps.pop();\n                } else {\n                    for (uint j = i; j < requestedApps.length - 1; j++) {\n                        requestedApps[j] = requestedApps[j+1];\n                    }\n                    requestedApps.pop();\n                }\n            }\n        }\n    }\n\n    /**\n     * @notice dApp using price will be transferred from dApp user to dApp creator\n     * @dev user request to use an app\n     */\n    function useApp(uint256 appId) external payable{\n        if (appId >= apps.length) revert AppNotExist();\n        for (uint i = 0; i < apps.length; i++) {\n            if (apps[i].id == appId) {\n                App[] storage userApps = userToAppsMapper[msg.sender];\n                userApps.push(apps[i]);\n                address payable appOwner = payable(apps[i].owner);\n                appOwner.transfer(msg.value); //transfer using price to dApp creator\n            }\n        }\n    }\n\n    /**\n     * @dev Get all listed apps\n     * @return Array of Apps that are listed\n     */\n    function getAllPublishedApps(address _address) external view returns (App[] memory) {\n        if (_address != owner()) revert NotAllowedAccount();\n        return apps;\n    }\n\n    /**\n     * @dev Get all requested apps\n     * @return Array of Apps that have been requested\n     */\n    function getAllRequestedApps(address _address) external view returns (App[] memory) {\n        if (_address != owner()) revert NotAllowedAccount();\n        return requestedApps;\n    }\n\n    /**\n     * @dev Get app info\n     */\n    function getAppInfo(uint256 _appId) external view returns (\n        string memory name,\n        string memory description,\n        address owner,\n        string memory image,\n        string memory github,\n        string memory discord,\n        uint256 usingPrice\n    ) {\n        return (apps[_appId].name,\n                apps[_appId].description,\n                apps[_appId].owner,\n                apps[_appId].image,\n                apps[_appId].github,\n                apps[_appId].discord,\n                apps[_appId].usingPrice);\n    }\n\n    /**\n     * @dev Get all apps belong to a user (apps that the user has used)\n     * @notice Only app users can view their own app info\n     * @return Array of Apps\n     */\n    function getAppsBelongToUser(address appUserAddress) external view returns (App[] memory) {\n        // revert if caller is not contract owner and attempt to view other address's app info\n        if (msg.sender != owner()) {\n            if (msg.sender != appUserAddress) revert NotAllowedToSeeAppInfo();\n        }\n        return userToAppsMapper[appUserAddress];\n    }\n}\n",
  "sourcePath": "/Users/timthang/Desktop/Blockchain/DHub/DHub-solana-store/truffle/contracts/dhub.sol",
  "compiler": {
    "name": "solc",
    "version": "0.8.17+commit.8df45f5f.Emscripten.clang"
  },
  "schemaVersion": "3.4.10",
  "updatedAt": "2023-03-05T04:03:47.572Z",
  "devdoc": {
    "kind": "dev",
    "methods": {
      "getAllPublishedApps(address)": {
        "details": "Get all listed apps",
        "returns": {
          "_0": "Array of Apps that are listed"
        }
      },
      "getAllRequestedApps(address)": {
        "details": "Get all requested apps",
        "returns": {
          "_0": "Array of Apps that have been requested"
        }
      },
      "getAppInfo(uint256)": {
        "details": "Get app info"
      },
      "getAppsBelongToUser(address)": {
        "details": "Get all apps belong to a user (apps that the user has used)",
        "returns": {
          "_0": "Array of Apps"
        }
      },
      "owner()": {
        "details": "Returns the address of the current owner."
      },
      "publishApp(uint256)": {
        "details": "admin publishes an app to the store"
      },
      "rejectApp(uint256)": {
        "details": "admin rejects to publish an app to the store"
      },
      "renounceOwnership()": {
        "details": "Leaves the contract without owner. It will not be possible to call `onlyOwner` functions anymore. Can only be called by the current owner. NOTE: Renouncing ownership will leave the contract without an owner, thereby removing any functionality that is only available to the owner."
      },
      "transferOwnership(address)": {
        "details": "Transfers ownership of the contract to a new account (`newOwner`). Can only be called by the current owner."
      },
      "useApp(uint256)": {
        "details": "user request to use an app"
      }
    },
    "version": 1
  },
  "userdoc": {
    "kind": "user",
    "methods": {
      "getAppsBelongToUser(address)": {
        "notice": "Only app users can view their own app info"
      },
      "useApp(uint256)": {
        "notice": "dApp using price will be transferred from dApp user to dApp creator"
      }
    },
    "version": 1
  }
}