{
  "contractName": "DHubStore",
  "abi": [
    {
      "anonymous": false,
      "inputs": [
        {
          "indexed": true,
          "internalType": "address",
          "name": "previousOwner",
          "type": "address"
        },
        {
          "indexed": true,
          "internalType": "address",
          "name": "newOwner",
          "type": "address"
        }
      ],
      "name": "OwnershipTransferred",
      "type": "event"
    },
    {
      "inputs": [
        {
          "internalType": "uint256",
          "name": "",
          "type": "uint256"
        }
      ],
      "name": "apps",
      "outputs": [
        {
          "internalType": "uint256",
          "name": "id",
          "type": "uint256"
        },
        {
          "internalType": "string",
          "name": "name",
          "type": "string"
        },
        {
          "internalType": "string",
          "name": "description",
          "type": "string"
        },
        {
          "internalType": "string",
          "name": "image",
          "type": "string"
        },
        {
          "internalType": "string",
          "name": "bytecode",
          "type": "string"
        }
      ],
      "stateMutability": "view",
      "type": "function"
    },
    {
      "inputs": [],
      "name": "owner",
      "outputs": [
        {
          "internalType": "address",
          "name": "",
          "type": "address"
        }
      ],
      "stateMutability": "view",
      "type": "function"
    },
    {
      "inputs": [],
      "name": "renounceOwnership",
      "outputs": [],
      "stateMutability": "nonpayable",
      "type": "function"
    },
    {
      "inputs": [
        {
          "internalType": "address",
          "name": "newOwner",
          "type": "address"
        }
      ],
      "name": "transferOwnership",
      "outputs": [],
      "stateMutability": "nonpayable",
      "type": "function"
    },
    {
      "inputs": [
        {
          "internalType": "address",
          "name": "",
          "type": "address"
        },
        {
          "internalType": "uint256",
          "name": "",
          "type": "uint256"
        }
      ],
      "name": "userToApps",
      "outputs": [
        {
          "internalType": "uint256",
          "name": "id",
          "type": "uint256"
        },
        {
          "internalType": "string",
          "name": "name",
          "type": "string"
        },
        {
          "internalType": "string",
          "name": "description",
          "type": "string"
        },
        {
          "internalType": "string",
          "name": "image",
          "type": "string"
        },
        {
          "internalType": "string",
          "name": "bytecode",
          "type": "string"
        }
      ],
      "stateMutability": "view",
      "type": "function"
    },
    {
      "inputs": [
        {
          "internalType": "string",
          "name": "name",
          "type": "string"
        },
        {
          "internalType": "string",
          "name": "description",
          "type": "string"
        },
        {
          "internalType": "string",
          "name": "image",
          "type": "string"
        },
        {
          "internalType": "string",
          "name": "bytecode",
          "type": "string"
        }
      ],
      "name": "creatApp",
      "outputs": [],
      "stateMutability": "nonpayable",
      "type": "function"
    },
    {
      "inputs": [],
      "name": "getAllPurchasableMarketItems",
      "outputs": [
        {
          "components": [
            {
              "internalType": "uint256",
              "name": "id",
              "type": "uint256"
            },
            {
              "internalType": "string",
              "name": "name",
              "type": "string"
            },
            {
              "internalType": "string",
              "name": "description",
              "type": "string"
            },
            {
              "internalType": "string",
              "name": "image",
              "type": "string"
            },
            {
              "internalType": "string",
              "name": "bytecode",
              "type": "string"
            }
          ],
          "internalType": "struct DHubStore.App[]",
          "name": "",
          "type": "tuple[]"
        }
      ],
      "stateMutability": "view",
      "type": "function"
    }
  ],
  "bytecode": "0x608060405234801561001057600080fd5b5061002d61002261003260201b60201c565b61003a60201b60201c565b6100fe565b600033905090565b60008060009054906101000a900473ffffffffffffffffffffffffffffffffffffffff169050816000806101000a81548173ffffffffffffffffffffffffffffffffffffffff021916908373ffffffffffffffffffffffffffffffffffffffff1602179055508173ffffffffffffffffffffffffffffffffffffffff168173ffffffffffffffffffffffffffffffffffffffff167f8be0079c531659141344cd1fd0a4f28419497f9722a3daafe3b4186f6b6457e060405160405180910390a35050565b61165d8061010d6000396000f3fe608060405234801561001057600080fd5b506004361061007d5760003560e01c80638da5cb5b1161005b5780638da5cb5b146100f4578063bcd3d8ba14610112578063de8d512714610130578063f2fde38b1461014c5761007d565b80631b9f80581461008257806361acc37e146100b6578063715018a6146100ea575b600080fd5b61009c60048036038101906100979190610ca5565b610168565b6040516100ad959493929190610d84565b60405180910390f35b6100d060048036038101906100cb9190610df3565b6103db565b6040516100e1959493929190610d84565b60405180910390f35b6100f2610641565b005b6100fc610655565b6040516101099190610e2f565b60405180910390f35b61011a61067e565b6040516101279190610ff0565b60405180910390f35b61014a60048036038101906101459190611147565b61092f565b005b6101666004803603810190610161919061121e565b610a0c565b005b6003602052816000526040600020818154811061018457600080fd5b9060005260206000209060050201600091509150508060000154908060010180546101ae9061127a565b80601f01602080910402602001604051908101604052809291908181526020018280546101da9061127a565b80156102275780601f106101fc57610100808354040283529160200191610227565b820191906000526020600020905b81548152906001019060200180831161020a57829003601f168201915b50505050509080600201805461023c9061127a565b80601f01602080910402602001604051908101604052809291908181526020018280546102689061127a565b80156102b55780601f1061028a576101008083540402835291602001916102b5565b820191906000526020600020905b81548152906001019060200180831161029857829003601f168201915b5050505050908060030180546102ca9061127a565b80601f01602080910402602001604051908101604052809291908181526020018280546102f69061127a565b80156103435780601f1061031857610100808354040283529160200191610343565b820191906000526020600020905b81548152906001019060200180831161032657829003601f168201915b5050505050908060040180546103589061127a565b80601f01602080910402602001604051908101604052809291908181526020018280546103849061127a565b80156103d15780601f106103a6576101008083540402835291602001916103d1565b820191906000526020600020905b8154815290600101906020018083116103b457829003601f168201915b5050505050905085565b600281815481106103eb57600080fd5b90600052602060002090600502016000915090508060000154908060010180546104149061127a565b80601f01602080910402602001604051908101604052809291908181526020018280546104409061127a565b801561048d5780601f106104625761010080835404028352916020019161048d565b820191906000526020600020905b81548152906001019060200180831161047057829003601f168201915b5050505050908060020180546104a29061127a565b80601f01602080910402602001604051908101604052809291908181526020018280546104ce9061127a565b801561051b5780601f106104f05761010080835404028352916020019161051b565b820191906000526020600020905b8154815290600101906020018083116104fe57829003601f168201915b5050505050908060030180546105309061127a565b80601f016020809104026020016040519081016040528092919081815260200182805461055c9061127a565b80156105a95780601f1061057e576101008083540402835291602001916105a9565b820191906000526020600020905b81548152906001019060200180831161058c57829003601f168201915b5050505050908060040180546105be9061127a565b80601f01602080910402602001604051908101604052809291908181526020018280546105ea9061127a565b80156106375780601f1061060c57610100808354040283529160200191610637565b820191906000526020600020905b81548152906001019060200180831161061a57829003601f168201915b5050505050905085565b610649610a8f565b6106536000610b0d565b565b60008060009054906101000a900473ffffffffffffffffffffffffffffffffffffffff16905090565b60606002805480602002602001604051908101604052809291908181526020016000905b8282101561092657838290600052602060002090600502016040518060a0016040529081600082015481526020016001820180546106df9061127a565b80601f016020809104026020016040519081016040528092919081815260200182805461070b9061127a565b80156107585780601f1061072d57610100808354040283529160200191610758565b820191906000526020600020905b81548152906001019060200180831161073b57829003601f168201915b505050505081526020016002820180546107719061127a565b80601f016020809104026020016040519081016040528092919081815260200182805461079d9061127a565b80156107ea5780601f106107bf576101008083540402835291602001916107ea565b820191906000526020600020905b8154815290600101906020018083116107cd57829003601f168201915b505050505081526020016003820180546108039061127a565b80601f016020809104026020016040519081016040528092919081815260200182805461082f9061127a565b801561087c5780601f106108515761010080835404028352916020019161087c565b820191906000526020600020905b81548152906001019060200180831161085f57829003601f168201915b505050505081526020016004820180546108959061127a565b80601f01602080910402602001604051908101604052809291908181526020018280546108c19061127a565b801561090e5780601f106108e35761010080835404028352916020019161090e565b820191906000526020600020905b8154815290600101906020018083116108f157829003601f168201915b505050505081525050815260200190600101906106a2565b50505050905090565b610937610a8f565b60006109436001610bd1565b905061094f6001610bdf565b60026040518060a001604052808381526020018781526020018681526020018581526020018481525090806001815401808255809150506001900390600052602060002090600502016000909190919091506000820151816000015560208201518160010190816109c09190611457565b5060408201518160020190816109d69190611457565b5060608201518160030190816109ec9190611457565b506080820151816004019081610a029190611457565b5050505050505050565b610a14610a8f565b600073ffffffffffffffffffffffffffffffffffffffff168173ffffffffffffffffffffffffffffffffffffffff1603610a83576040517f08c379a0000000000000000000000000000000000000000000000000000000008152600401610a7a9061159b565b60405180910390fd5b610a8c81610b0d565b50565b610a97610bf5565b73ffffffffffffffffffffffffffffffffffffffff16610ab5610655565b73ffffffffffffffffffffffffffffffffffffffff1614610b0b576040517f08c379a0000000000000000000000000000000000000000000000000000000008152600401610b0290611607565b60405180910390fd5b565b60008060009054906101000a900473ffffffffffffffffffffffffffffffffffffffff169050816000806101000a81548173ffffffffffffffffffffffffffffffffffffffff021916908373ffffffffffffffffffffffffffffffffffffffff1602179055508173ffffffffffffffffffffffffffffffffffffffff168173ffffffffffffffffffffffffffffffffffffffff167f8be0079c531659141344cd1fd0a4f28419497f9722a3daafe3b4186f6b6457e060405160405180910390a35050565b600081600001549050919050565b6001816000016000828254019250508190555050565b600033905090565b6000604051905090565b600080fd5b600080fd5b600073ffffffffffffffffffffffffffffffffffffffff82169050919050565b6000610c3c82610c11565b9050919050565b610c4c81610c31565b8114610c5757600080fd5b50565b600081359050610c6981610c43565b92915050565b6000819050919050565b610c8281610c6f565b8114610c8d57600080fd5b50565b600081359050610c9f81610c79565b92915050565b60008060408385031215610cbc57610cbb610c07565b5b6000610cca85828601610c5a565b9250506020610cdb85828601610c90565b9150509250929050565b610cee81610c6f565b82525050565b600081519050919050565b600082825260208201905092915050565b60005b83811015610d2e578082015181840152602081019050610d13565b60008484015250505050565b6000601f19601f8301169050919050565b6000610d5682610cf4565b610d608185610cff565b9350610d70818560208601610d10565b610d7981610d3a565b840191505092915050565b600060a082019050610d996000830188610ce5565b8181036020830152610dab8187610d4b565b90508181036040830152610dbf8186610d4b565b90508181036060830152610dd38185610d4b565b90508181036080830152610de78184610d4b565b90509695505050505050565b600060208284031215610e0957610e08610c07565b5b6000610e1784828501610c90565b91505092915050565b610e2981610c31565b82525050565b6000602082019050610e446000830184610e20565b92915050565b600081519050919050565b600082825260208201905092915050565b6000819050602082019050919050565b610e7f81610c6f565b82525050565b600082825260208201905092915050565b6000610ea182610cf4565b610eab8185610e85565b9350610ebb818560208601610d10565b610ec481610d3a565b840191505092915050565b600060a083016000830151610ee76000860182610e76565b5060208301518482036020860152610eff8282610e96565b91505060408301518482036040860152610f198282610e96565b91505060608301518482036060860152610f338282610e96565b91505060808301518482036080860152610f4d8282610e96565b9150508091505092915050565b6000610f668383610ecf565b905092915050565b6000602082019050919050565b6000610f8682610e4a565b610f908185610e55565b935083602082028501610fa285610e66565b8060005b85811015610fde5784840389528151610fbf8582610f5a565b9450610fca83610f6e565b925060208a01995050600181019050610fa6565b50829750879550505050505092915050565b6000602082019050818103600083015261100a8184610f7b565b905092915050565b600080fd5b600080fd5b7f4e487b7100000000000000000000000000000000000000000000000000000000600052604160045260246000fd5b61105482610d3a565b810181811067ffffffffffffffff821117156110735761107261101c565b5b80604052505050565b6000611086610bfd565b9050611092828261104b565b919050565b600067ffffffffffffffff8211156110b2576110b161101c565b5b6110bb82610d3a565b9050602081019050919050565b82818337600083830152505050565b60006110ea6110e584611097565b61107c565b90508281526020810184848401111561110657611105611017565b5b6111118482856110c8565b509392505050565b600082601f83011261112e5761112d611012565b5b813561113e8482602086016110d7565b91505092915050565b6000806000806080858703121561116157611160610c07565b5b600085013567ffffffffffffffff81111561117f5761117e610c0c565b5b61118b87828801611119565b945050602085013567ffffffffffffffff8111156111ac576111ab610c0c565b5b6111b887828801611119565b935050604085013567ffffffffffffffff8111156111d9576111d8610c0c565b5b6111e587828801611119565b925050606085013567ffffffffffffffff81111561120657611205610c0c565b5b61121287828801611119565b91505092959194509250565b60006020828403121561123457611233610c07565b5b600061124284828501610c5a565b91505092915050565b7f4e487b7100000000000000000000000000000000000000000000000000000000600052602260045260246000fd5b6000600282049050600182168061129257607f821691505b6020821081036112a5576112a461124b565b5b50919050565b60008190508160005260206000209050919050565b60006020601f8301049050919050565b600082821b905092915050565b60006008830261130d7fffffffffffffffffffffffffffffffffffffffffffffffffffffffffffffffff826112d0565b61131786836112d0565b95508019841693508086168417925050509392505050565b6000819050919050565b600061135461134f61134a84610c6f565b61132f565b610c6f565b9050919050565b6000819050919050565b61136e83611339565b61138261137a8261135b565b8484546112dd565b825550505050565b600090565b61139761138a565b6113a2818484611365565b505050565b5b818110156113c6576113bb60008261138f565b6001810190506113a8565b5050565b601f82111561140b576113dc816112ab565b6113e5846112c0565b810160208510156113f4578190505b611408611400856112c0565b8301826113a7565b50505b505050565b600082821c905092915050565b600061142e60001984600802611410565b1980831691505092915050565b6000611447838361141d565b9150826002028217905092915050565b61146082610cf4565b67ffffffffffffffff8111156114795761147861101c565b5b611483825461127a565b61148e8282856113ca565b600060209050601f8311600181146114c157600084156114af578287015190505b6114b9858261143b565b865550611521565b601f1984166114cf866112ab565b60005b828110156114f7578489015182556001820191506020850194506020810190506114d2565b868310156115145784890151611510601f89168261141d565b8355505b6001600288020188555050505b505050505050565b7f4f776e61626c653a206e6577206f776e657220697320746865207a65726f206160008201527f6464726573730000000000000000000000000000000000000000000000000000602082015250565b6000611585602683610cff565b915061159082611529565b604082019050919050565b600060208201905081810360008301526115b481611578565b9050919050565b7f4f776e61626c653a2063616c6c6572206973206e6f7420746865206f776e6572600082015250565b60006115f1602083610cff565b91506115fc826115bb565b602082019050919050565b60006020820190508181036000830152611620816115e4565b905091905056fea264697066735822122099ebeee776019338f98536b386ed489743387f3113fdf78d0273072fe50faf6b64736f6c63430008110033",
  "immutableReferences": {},
  "source": "// SPDX-License-Identifier: MIT\npragma solidity 0.8.17;\n\nimport \"@openzeppelin/contracts/access/Ownable.sol\";\nimport \"@openzeppelin/contracts/utils/Counters.sol\";\n\nerror TicketNotExist();\nerror InvalidLengthError();\n\ncontract DHubStore is Ownable {\n    using Counters for Counters.Counter;\n    Counters.Counter private _idCounter;\n\n    // using IPFS or not?\n    struct App {\n        uint256 id;\n        string name;\n        string description;\n        string image;\n        string bytecode;\n    }\n\n    App[] public apps;\n\n    mapping(address => App[]) public userToApps;\n\n    function creatApp(\n        string memory name,\n        string memory description,\n        string memory image,\n        string memory bytecode\n    ) external onlyOwner {\n        uint256 appId = _idCounter.current();\n        _idCounter.increment();\n        apps.push(App(appId, name, description, image, bytecode));\n    }\n\n    /**\n     * @notice Get all listed apps\n     * @return Array of Apps that are listed\n     */\n    function getAllPurchasableMarketItems() external view returns (App[] memory) {\n        return apps;\n    }\n    \n}\n",
  "sourcePath": "/Users/timthang/Desktop/Blockchain/DHub/DHub-solana-store/truffle/contracts/dhub.sol",
  "compiler": {
    "name": "solc",
    "version": "0.8.17+commit.8df45f5f.Emscripten.clang"
  },
  "schemaVersion": "3.4.10",
  "updatedAt": "2023-02-18T18:05:49.470Z",
  "devdoc": {
    "kind": "dev",
    "methods": {
      "getAllPurchasableMarketItems()": {
        "returns": {
          "_0": "Array of Apps that are listed"
        }
      },
      "owner()": {
        "details": "Returns the address of the current owner."
      },
      "renounceOwnership()": {
        "details": "Leaves the contract without owner. It will not be possible to call `onlyOwner` functions anymore. Can only be called by the current owner. NOTE: Renouncing ownership will leave the contract without an owner, thereby removing any functionality that is only available to the owner."
      },
      "transferOwnership(address)": {
        "details": "Transfers ownership of the contract to a new account (`newOwner`). Can only be called by the current owner."
      }
    },
    "version": 1
  },
  "userdoc": {
    "kind": "user",
    "methods": {
      "getAllPurchasableMarketItems()": {
        "notice": "Get all listed apps"
      }
    },
    "version": 1
  }
}