{
  "contractName": "DHubStore",
  "abi": [
    {
      "inputs": [],
      "name": "AppNotExist",
      "type": "error"
    },
    {
      "inputs": [],
      "name": "NotAllowedAccount",
      "type": "error"
    },
    {
      "inputs": [],
      "name": "NotAllowedToSeeAppInfo",
      "type": "error"
    },
    {
      "anonymous": false,
      "inputs": [
        {
          "indexed": true,
          "internalType": "address",
          "name": "previousOwner",
          "type": "address"
        },
        {
          "indexed": true,
          "internalType": "address",
          "name": "newOwner",
          "type": "address"
        }
      ],
      "name": "OwnershipTransferred",
      "type": "event"
    },
    {
      "inputs": [],
      "name": "owner",
      "outputs": [
        {
          "internalType": "address",
          "name": "",
          "type": "address"
        }
      ],
      "stateMutability": "view",
      "type": "function"
    },
    {
      "inputs": [],
      "name": "renounceOwnership",
      "outputs": [],
      "stateMutability": "nonpayable",
      "type": "function"
    },
    {
      "inputs": [
        {
          "internalType": "address",
          "name": "newOwner",
          "type": "address"
        }
      ],
      "name": "transferOwnership",
      "outputs": [],
      "stateMutability": "nonpayable",
      "type": "function"
    },
    {
      "inputs": [
        {
          "internalType": "string",
          "name": "_name",
          "type": "string"
        },
        {
          "internalType": "string",
          "name": "_description",
          "type": "string"
        },
        {
          "internalType": "string",
          "name": "_image",
          "type": "string"
        },
        {
          "internalType": "string",
          "name": "_website",
          "type": "string"
        },
        {
          "internalType": "string",
          "name": "_github",
          "type": "string"
        },
        {
          "internalType": "string",
          "name": "_discord",
          "type": "string"
        },
        {
          "internalType": "string",
          "name": "_telegram",
          "type": "string"
        },
        {
          "internalType": "string",
          "name": "_smartContractUrl",
          "type": "string"
        },
        {
          "internalType": "uint256",
          "name": "_usingPrice",
          "type": "uint256"
        }
      ],
      "name": "requestToPublishApp",
      "outputs": [],
      "stateMutability": "nonpayable",
      "type": "function"
    },
    {
      "inputs": [
        {
          "internalType": "uint256",
          "name": "requestedAppId",
          "type": "uint256"
        }
      ],
      "name": "publishApp",
      "outputs": [],
      "stateMutability": "nonpayable",
      "type": "function"
    },
    {
      "inputs": [
        {
          "internalType": "uint256",
          "name": "_appId",
          "type": "uint256"
        }
      ],
      "name": "rejectApp",
      "outputs": [],
      "stateMutability": "nonpayable",
      "type": "function"
    },
    {
      "inputs": [
        {
          "internalType": "uint256",
          "name": "appId",
          "type": "uint256"
        }
      ],
      "name": "useApp",
      "outputs": [],
      "stateMutability": "nonpayable",
      "type": "function"
    },
    {
      "inputs": [
        {
          "internalType": "address",
          "name": "_address",
          "type": "address"
        }
      ],
      "name": "getAllPublishedApps",
      "outputs": [
        {
          "components": [
            {
              "internalType": "uint256",
              "name": "id",
              "type": "uint256"
            },
            {
              "internalType": "string",
              "name": "name",
              "type": "string"
            },
            {
              "internalType": "address",
              "name": "owner",
              "type": "address"
            },
            {
              "internalType": "string",
              "name": "description",
              "type": "string"
            },
            {
              "internalType": "string",
              "name": "image",
              "type": "string"
            },
            {
              "internalType": "string",
              "name": "website",
              "type": "string"
            },
            {
              "internalType": "string",
              "name": "github",
              "type": "string"
            },
            {
              "internalType": "string",
              "name": "discord",
              "type": "string"
            },
            {
              "internalType": "string",
              "name": "telegram",
              "type": "string"
            },
            {
              "internalType": "string",
              "name": "smartContractUrl",
              "type": "string"
            },
            {
              "internalType": "uint256",
              "name": "usingPrice",
              "type": "uint256"
            }
          ],
          "internalType": "struct DHubStore.App[]",
          "name": "",
          "type": "tuple[]"
        }
      ],
      "stateMutability": "view",
      "type": "function"
    },
    {
      "inputs": [
        {
          "internalType": "address",
          "name": "_address",
          "type": "address"
        }
      ],
      "name": "getAllRequestedApps",
      "outputs": [
        {
          "components": [
            {
              "internalType": "uint256",
              "name": "id",
              "type": "uint256"
            },
            {
              "internalType": "string",
              "name": "name",
              "type": "string"
            },
            {
              "internalType": "address",
              "name": "owner",
              "type": "address"
            },
            {
              "internalType": "string",
              "name": "description",
              "type": "string"
            },
            {
              "internalType": "string",
              "name": "image",
              "type": "string"
            },
            {
              "internalType": "string",
              "name": "website",
              "type": "string"
            },
            {
              "internalType": "string",
              "name": "github",
              "type": "string"
            },
            {
              "internalType": "string",
              "name": "discord",
              "type": "string"
            },
            {
              "internalType": "string",
              "name": "telegram",
              "type": "string"
            },
            {
              "internalType": "string",
              "name": "smartContractUrl",
              "type": "string"
            },
            {
              "internalType": "uint256",
              "name": "usingPrice",
              "type": "uint256"
            }
          ],
          "internalType": "struct DHubStore.App[]",
          "name": "",
          "type": "tuple[]"
        }
      ],
      "stateMutability": "view",
      "type": "function"
    },
    {
      "inputs": [
        {
          "internalType": "uint256",
          "name": "_appId",
          "type": "uint256"
        }
      ],
      "name": "getAppInfo",
      "outputs": [
        {
          "internalType": "string",
          "name": "name",
          "type": "string"
        },
        {
          "internalType": "string",
          "name": "description",
          "type": "string"
        },
        {
          "internalType": "address",
          "name": "owner",
          "type": "address"
        },
        {
          "internalType": "string",
          "name": "image",
          "type": "string"
        },
        {
          "internalType": "string",
          "name": "github",
          "type": "string"
        },
        {
          "internalType": "string",
          "name": "discord",
          "type": "string"
        },
        {
          "internalType": "uint256",
          "name": "usingPrice",
          "type": "uint256"
        }
      ],
      "stateMutability": "view",
      "type": "function"
    },
    {
      "inputs": [
        {
          "internalType": "address",
          "name": "appUserAddress",
          "type": "address"
        }
      ],
      "name": "getAppsBelongToUser",
      "outputs": [
        {
          "components": [
            {
              "internalType": "uint256",
              "name": "id",
              "type": "uint256"
            },
            {
              "internalType": "string",
              "name": "name",
              "type": "string"
            },
            {
              "internalType": "address",
              "name": "owner",
              "type": "address"
            },
            {
              "internalType": "string",
              "name": "description",
              "type": "string"
            },
            {
              "internalType": "string",
              "name": "image",
              "type": "string"
            },
            {
              "internalType": "string",
              "name": "website",
              "type": "string"
            },
            {
              "internalType": "string",
              "name": "github",
              "type": "string"
            },
            {
              "internalType": "string",
              "name": "discord",
              "type": "string"
            },
            {
              "internalType": "string",
              "name": "telegram",
              "type": "string"
            },
            {
              "internalType": "string",
              "name": "smartContractUrl",
              "type": "string"
            },
            {
              "internalType": "uint256",
              "name": "usingPrice",
              "type": "uint256"
            }
          ],
          "internalType": "struct DHubStore.App[]",
          "name": "",
          "type": "tuple[]"
        }
      ],
      "stateMutability": "view",
      "type": "function"
    }
  ],
  "bytecode": "0x60806040523480156200001157600080fd5b5062000032620000266200003860201b60201c565b6200004060201b60201c565b62000104565b600033905090565b60008060009054906101000a900473ffffffffffffffffffffffffffffffffffffffff169050816000806101000a81548173ffffffffffffffffffffffffffffffffffffffff021916908373ffffffffffffffffffffffffffffffffffffffff1602179055508173ffffffffffffffffffffffffffffffffffffffff168173ffffffffffffffffffffffffffffffffffffffff167f8be0079c531659141344cd1fd0a4f28419497f9722a3daafe3b4186f6b6457e060405160405180910390a35050565b61385f80620001146000396000f3fe608060405234801561001057600080fd5b50600436106100a95760003560e01c8063741aa2bd11610071578063741aa2bd146101645780638ae4700d1461019a5780638da5cb5b146101b6578063d1c33537146101d4578063e41e7266146101f0578063f2fde38b1461020c576100a9565b80630ca62d57146100ae578063230254f0146100ca57806324071784146100fa5780632d67972a1461012a578063715018a61461015a575b600080fd5b6100c860048036038101906100c39190612ab4565b610228565b005b6100e460048036038101906100df9190612b3f565b61046f565b6040516100f19190612dfc565b60405180910390f35b610114600480360381019061010f9190612b3f565b610aa8565b6040516101219190612dfc565b60405180910390f35b610144600480360381019061013f9190612b3f565b611070565b6040516101519190612dfc565b60405180910390f35b610162611638565b005b61017e60048036038101906101799190612ab4565b61164c565b6040516101919796959493929190612e86565b60405180910390f35b6101b460048036038101906101af919061304d565b611a52565b005b6101be611c13565b6040516101cb91906131f7565b60405180910390f35b6101ee60048036038101906101e99190612ab4565b611c3c565b005b61020a60048036038101906102059190612ab4565b611c50565b005b61022660048036038101906102219190612b3f565b61243d565b005b6003805490508110610266576040517f59a79eab00000000000000000000000000000000000000000000000000000000815260040160405180910390fd5b60005b60038054905081101561046b57816003828154811061028b5761028a613212565b5b90600052602060002090600b02016000015403610458576000600560003373ffffffffffffffffffffffffffffffffffffffff1673ffffffffffffffffffffffffffffffffffffffff168152602001908152602001600020905080600383815481106102fa576102f9613212565b5b90600052602060002090600b020190806001815401808255809150506001900390600052602060002090600b0201600090919091909150600082015481600001556001820181600101908161034f9190613463565b506002820160009054906101000a900473ffffffffffffffffffffffffffffffffffffffff168160020160006101000a81548173ffffffffffffffffffffffffffffffffffffffff021916908373ffffffffffffffffffffffffffffffffffffffff160217905550600382018160030190816103cb9190613463565b50600482018160040190816103e09190613463565b50600582018160050190816103f59190613463565b506006820181600601908161040a9190613463565b506007820181600701908161041f9190613463565b50600882018160080190816104349190613463565b50600982018160090190816104499190613463565b50600a82015481600a01555050505b80806104639061357a565b915050610269565b5050565b6060610479611c13565b73ffffffffffffffffffffffffffffffffffffffff163373ffffffffffffffffffffffffffffffffffffffff1614610511578173ffffffffffffffffffffffffffffffffffffffff163373ffffffffffffffffffffffffffffffffffffffff1614610510576040517f453f499a00000000000000000000000000000000000000000000000000000000815260040160405180910390fd5b5b600560008373ffffffffffffffffffffffffffffffffffffffff1673ffffffffffffffffffffffffffffffffffffffff168152602001908152602001600020805480602002602001604051908101604052809291908181526020016000905b82821015610a9d57838290600052602060002090600b020160405180610160016040529081600082015481526020016001820180546105ae90613270565b80601f01602080910402602001604051908101604052809291908181526020018280546105da90613270565b80156106275780601f106105fc57610100808354040283529160200191610627565b820191906000526020600020905b81548152906001019060200180831161060a57829003601f168201915b505050505081526020016002820160009054906101000a900473ffffffffffffffffffffffffffffffffffffffff1673ffffffffffffffffffffffffffffffffffffffff1673ffffffffffffffffffffffffffffffffffffffff16815260200160038201805461069690613270565b80601f01602080910402602001604051908101604052809291908181526020018280546106c290613270565b801561070f5780601f106106e45761010080835404028352916020019161070f565b820191906000526020600020905b8154815290600101906020018083116106f257829003601f168201915b5050505050815260200160048201805461072890613270565b80601f016020809104026020016040519081016040528092919081815260200182805461075490613270565b80156107a15780601f10610776576101008083540402835291602001916107a1565b820191906000526020600020905b81548152906001019060200180831161078457829003601f168201915b505050505081526020016005820180546107ba90613270565b80601f01602080910402602001604051908101604052809291908181526020018280546107e690613270565b80156108335780601f1061080857610100808354040283529160200191610833565b820191906000526020600020905b81548152906001019060200180831161081657829003601f168201915b5050505050815260200160068201805461084c90613270565b80601f016020809104026020016040519081016040528092919081815260200182805461087890613270565b80156108c55780601f1061089a576101008083540402835291602001916108c5565b820191906000526020600020905b8154815290600101906020018083116108a857829003601f168201915b505050505081526020016007820180546108de90613270565b80601f016020809104026020016040519081016040528092919081815260200182805461090a90613270565b80156109575780601f1061092c57610100808354040283529160200191610957565b820191906000526020600020905b81548152906001019060200180831161093a57829003601f168201915b5050505050815260200160088201805461097090613270565b80601f016020809104026020016040519081016040528092919081815260200182805461099c90613270565b80156109e95780601f106109be576101008083540402835291602001916109e9565b820191906000526020600020905b8154815290600101906020018083116109cc57829003601f168201915b50505050508152602001600982018054610a0290613270565b80601f0160208091040260200160405190810160405280929190818152602001828054610a2e90613270565b8015610a7b5780601f10610a5057610100808354040283529160200191610a7b565b820191906000526020600020905b815481529060010190602001808311610a5e57829003601f168201915b50505050508152602001600a8201548152505081526020019060010190610570565b505050509050919050565b6060610ab2611c13565b73ffffffffffffffffffffffffffffffffffffffff168273ffffffffffffffffffffffffffffffffffffffff1614610b16576040517f65d5490e00000000000000000000000000000000000000000000000000000000815260040160405180910390fd5b6004805480602002602001604051908101604052809291908181526020016000905b8282101561106557838290600052602060002090600b02016040518061016001604052908160008201548152602001600182018054610b7690613270565b80601f0160208091040260200160405190810160405280929190818152602001828054610ba290613270565b8015610bef5780601f10610bc457610100808354040283529160200191610bef565b820191906000526020600020905b815481529060010190602001808311610bd257829003601f168201915b505050505081526020016002820160009054906101000a900473ffffffffffffffffffffffffffffffffffffffff1673ffffffffffffffffffffffffffffffffffffffff1673ffffffffffffffffffffffffffffffffffffffff168152602001600382018054610c5e90613270565b80601f0160208091040260200160405190810160405280929190818152602001828054610c8a90613270565b8015610cd75780601f10610cac57610100808354040283529160200191610cd7565b820191906000526020600020905b815481529060010190602001808311610cba57829003601f168201915b50505050508152602001600482018054610cf090613270565b80601f0160208091040260200160405190810160405280929190818152602001828054610d1c90613270565b8015610d695780601f10610d3e57610100808354040283529160200191610d69565b820191906000526020600020905b815481529060010190602001808311610d4c57829003601f168201915b50505050508152602001600582018054610d8290613270565b80601f0160208091040260200160405190810160405280929190818152602001828054610dae90613270565b8015610dfb5780601f10610dd057610100808354040283529160200191610dfb565b820191906000526020600020905b815481529060010190602001808311610dde57829003601f168201915b50505050508152602001600682018054610e1490613270565b80601f0160208091040260200160405190810160405280929190818152602001828054610e4090613270565b8015610e8d5780601f10610e6257610100808354040283529160200191610e8d565b820191906000526020600020905b815481529060010190602001808311610e7057829003601f168201915b50505050508152602001600782018054610ea690613270565b80601f0160208091040260200160405190810160405280929190818152602001828054610ed290613270565b8015610f1f5780601f10610ef457610100808354040283529160200191610f1f565b820191906000526020600020905b815481529060010190602001808311610f0257829003601f168201915b50505050508152602001600882018054610f3890613270565b80601f0160208091040260200160405190810160405280929190818152602001828054610f6490613270565b8015610fb15780601f10610f8657610100808354040283529160200191610fb1565b820191906000526020600020905b815481529060010190602001808311610f9457829003601f168201915b50505050508152602001600982018054610fca90613270565b80601f0160208091040260200160405190810160405280929190818152602001828054610ff690613270565b80156110435780601f1061101857610100808354040283529160200191611043565b820191906000526020600020905b81548152906001019060200180831161102657829003601f168201915b50505050508152602001600a8201548152505081526020019060010190610b38565b505050509050919050565b606061107a611c13565b73ffffffffffffffffffffffffffffffffffffffff168273ffffffffffffffffffffffffffffffffffffffff16146110de576040517f65d5490e00000000000000000000000000000000000000000000000000000000815260040160405180910390fd5b6003805480602002602001604051908101604052809291908181526020016000905b8282101561162d57838290600052602060002090600b0201604051806101600160405290816000820154815260200160018201805461113e90613270565b80601f016020809104026020016040519081016040528092919081815260200182805461116a90613270565b80156111b75780601f1061118c576101008083540402835291602001916111b7565b820191906000526020600020905b81548152906001019060200180831161119a57829003601f168201915b505050505081526020016002820160009054906101000a900473ffffffffffffffffffffffffffffffffffffffff1673ffffffffffffffffffffffffffffffffffffffff1673ffffffffffffffffffffffffffffffffffffffff16815260200160038201805461122690613270565b80601f016020809104026020016040519081016040528092919081815260200182805461125290613270565b801561129f5780601f106112745761010080835404028352916020019161129f565b820191906000526020600020905b81548152906001019060200180831161128257829003601f168201915b505050505081526020016004820180546112b890613270565b80601f01602080910402602001604051908101604052809291908181526020018280546112e490613270565b80156113315780601f1061130657610100808354040283529160200191611331565b820191906000526020600020905b81548152906001019060200180831161131457829003601f168201915b5050505050815260200160058201805461134a90613270565b80601f016020809104026020016040519081016040528092919081815260200182805461137690613270565b80156113c35780601f10611398576101008083540402835291602001916113c3565b820191906000526020600020905b8154815290600101906020018083116113a657829003601f168201915b505050505081526020016006820180546113dc90613270565b80601f016020809104026020016040519081016040528092919081815260200182805461140890613270565b80156114555780601f1061142a57610100808354040283529160200191611455565b820191906000526020600020905b81548152906001019060200180831161143857829003601f168201915b5050505050815260200160078201805461146e90613270565b80601f016020809104026020016040519081016040528092919081815260200182805461149a90613270565b80156114e75780601f106114bc576101008083540402835291602001916114e7565b820191906000526020600020905b8154815290600101906020018083116114ca57829003601f168201915b5050505050815260200160088201805461150090613270565b80601f016020809104026020016040519081016040528092919081815260200182805461152c90613270565b80156115795780601f1061154e57610100808354040283529160200191611579565b820191906000526020600020905b81548152906001019060200180831161155c57829003601f168201915b5050505050815260200160098201805461159290613270565b80601f01602080910402602001604051908101604052809291908181526020018280546115be90613270565b801561160b5780601f106115e05761010080835404028352916020019161160b565b820191906000526020600020905b8154815290600101906020018083116115ee57829003601f168201915b50505050508152602001600a8201548152505081526020019060010190611100565b505050509050919050565b6116406124c0565b61164a600061253e565b565b6060806000606080606060006003888154811061166c5761166b613212565b5b90600052602060002090600b02016001016003898154811061169157611690613212565b5b90600052602060002090600b020160030160038a815481106116b6576116b5613212565b5b90600052602060002090600b020160020160009054906101000a900473ffffffffffffffffffffffffffffffffffffffff1660038b815481106116fc576116fb613212565b5b90600052602060002090600b020160040160038c8154811061172157611720613212565b5b90600052602060002090600b020160060160038d8154811061174657611745613212565b5b90600052602060002090600b020160070160038e8154811061176b5761176a613212565b5b90600052602060002090600b0201600a015486805461178990613270565b80601f01602080910402602001604051908101604052809291908181526020018280546117b590613270565b80156118025780601f106117d757610100808354040283529160200191611802565b820191906000526020600020905b8154815290600101906020018083116117e557829003601f168201915b5050505050965085805461181590613270565b80601f016020809104026020016040519081016040528092919081815260200182805461184190613270565b801561188e5780601f106118635761010080835404028352916020019161188e565b820191906000526020600020905b81548152906001019060200180831161187157829003601f168201915b505050505095508380546118a190613270565b80601f01602080910402602001604051908101604052809291908181526020018280546118cd90613270565b801561191a5780601f106118ef5761010080835404028352916020019161191a565b820191906000526020600020905b8154815290600101906020018083116118fd57829003601f168201915b5050505050935082805461192d90613270565b80601f016020809104026020016040519081016040528092919081815260200182805461195990613270565b80156119a65780601f1061197b576101008083540402835291602001916119a6565b820191906000526020600020905b81548152906001019060200180831161198957829003601f168201915b505050505092508180546119b990613270565b80601f01602080910402602001604051908101604052809291908181526020018280546119e590613270565b8015611a325780601f10611a0757610100808354040283529160200191611a32565b820191906000526020600020905b815481529060010190602001808311611a1557829003601f168201915b505050505091509650965096509650965096509650919395979092949650565b6000611a5e6002612602565b9050611a6a6002612610565b60046040518061016001604052808381526020018c81526020013373ffffffffffffffffffffffffffffffffffffffff1681526020018b81526020018a81526020018981526020018881526020018781526020018681526020018581526020018481525090806001815401808255809150506001900390600052602060002090600b0201600090919091909150600082015181600001556020820151816001019081611b1691906135c2565b5060408201518160020160006101000a81548173ffffffffffffffffffffffffffffffffffffffff021916908373ffffffffffffffffffffffffffffffffffffffff1602179055506060820151816003019081611b7391906135c2565b506080820151816004019081611b8991906135c2565b5060a0820151816005019081611b9f91906135c2565b5060c0820151816006019081611bb591906135c2565b5060e0820151816007019081611bcb91906135c2565b50610100820151816008019081611be291906135c2565b50610120820151816009019081611bf991906135c2565b5061014082015181600a0155505050505050505050505050565b60008060009054906101000a900473ffffffffffffffffffffffffffffffffffffffff16905090565b611c446124c0565b611c4d81612626565b50565b611c586124c0565b60005b600480549050811015612430578160048281548110611c7d57611c7c613212565b5b90600052602060002090600b0201600001540361241d576000611ca06001612602565b9050611cac6001612610565b600360405180610160016040528083815260200160048581548110611cd457611cd3613212565b5b90600052602060002090600b02016001018054611cf090613270565b80601f0160208091040260200160405190810160405280929190818152602001828054611d1c90613270565b8015611d695780601f10611d3e57610100808354040283529160200191611d69565b820191906000526020600020905b815481529060010190602001808311611d4c57829003601f168201915b5050505050815260200160048581548110611d8757611d86613212565b5b90600052602060002090600b020160020160009054906101000a900473ffffffffffffffffffffffffffffffffffffffff1673ffffffffffffffffffffffffffffffffffffffff16815260200160048581548110611de857611de7613212565b5b90600052602060002090600b02016003018054611e0490613270565b80601f0160208091040260200160405190810160405280929190818152602001828054611e3090613270565b8015611e7d5780601f10611e5257610100808354040283529160200191611e7d565b820191906000526020600020905b815481529060010190602001808311611e6057829003601f168201915b5050505050815260200160048581548110611e9b57611e9a613212565b5b90600052602060002090600b02016004018054611eb790613270565b80601f0160208091040260200160405190810160405280929190818152602001828054611ee390613270565b8015611f305780601f10611f0557610100808354040283529160200191611f30565b820191906000526020600020905b815481529060010190602001808311611f1357829003601f168201915b5050505050815260200160048581548110611f4e57611f4d613212565b5b90600052602060002090600b02016005018054611f6a90613270565b80601f0160208091040260200160405190810160405280929190818152602001828054611f9690613270565b8015611fe35780601f10611fb857610100808354040283529160200191611fe3565b820191906000526020600020905b815481529060010190602001808311611fc657829003601f168201915b505050505081526020016004858154811061200157612000613212565b5b90600052602060002090600b0201600601805461201d90613270565b80601f016020809104026020016040519081016040528092919081815260200182805461204990613270565b80156120965780601f1061206b57610100808354040283529160200191612096565b820191906000526020600020905b81548152906001019060200180831161207957829003601f168201915b50505050508152602001600485815481106120b4576120b3613212565b5b90600052602060002090600b020160070180546120d090613270565b80601f01602080910402602001604051908101604052809291908181526020018280546120fc90613270565b80156121495780601f1061211e57610100808354040283529160200191612149565b820191906000526020600020905b81548152906001019060200180831161212c57829003601f168201915b505050505081526020016004858154811061216757612166613212565b5b90600052602060002090600b0201600801805461218390613270565b80601f01602080910402602001604051908101604052809291908181526020018280546121af90613270565b80156121fc5780601f106121d1576101008083540402835291602001916121fc565b820191906000526020600020905b8154815290600101906020018083116121df57829003601f168201915b505050505081526020016004858154811061221a57612219613212565b5b90600052602060002090600b0201600901805461223690613270565b80601f016020809104026020016040519081016040528092919081815260200182805461226290613270565b80156122af5780601f10612284576101008083540402835291602001916122af565b820191906000526020600020905b81548152906001019060200180831161229257829003601f168201915b50505050508152602001600485815481106122cd576122cc613212565b5b90600052602060002090600b0201600a015481525090806001815401808255809150506001900390600052602060002090600b020160009091909190915060008201518160000155602082015181600101908161232a91906135c2565b5060408201518160020160006101000a81548173ffffffffffffffffffffffffffffffffffffffff021916908373ffffffffffffffffffffffffffffffffffffffff160217905550606082015181600301908161238791906135c2565b50608082015181600401908161239d91906135c2565b5060a08201518160050190816123b391906135c2565b5060c08201518160060190816123c991906135c2565b5060e08201518160070190816123df91906135c2565b506101008201518160080190816123f691906135c2565b5061012082015181600901908161240d91906135c2565b5061014082015181600a01555050505b80806124289061357a565b915050611c5b565b5061243a81612626565b50565b6124456124c0565b600073ffffffffffffffffffffffffffffffffffffffff168173ffffffffffffffffffffffffffffffffffffffff16036124b4576040517f08c379a00000000000000000000000000000000000000000000000000000000081526004016124ab90613706565b60405180910390fd5b6124bd8161253e565b50565b6124c8612a05565b73ffffffffffffffffffffffffffffffffffffffff166124e6611c13565b73ffffffffffffffffffffffffffffffffffffffff161461253c576040517f08c379a000000000000000000000000000000000000000000000000000000000815260040161253390613772565b60405180910390fd5b565b60008060009054906101000a900473ffffffffffffffffffffffffffffffffffffffff169050816000806101000a81548173ffffffffffffffffffffffffffffffffffffffff021916908373ffffffffffffffffffffffffffffffffffffffff1602179055508173ffffffffffffffffffffffffffffffffffffffff168173ffffffffffffffffffffffffffffffffffffffff167f8be0079c531659141344cd1fd0a4f28419497f9722a3daafe3b4186f6b6457e060405160405180910390a35050565b600081600001549050919050565b6001816000016000828254019250508190555050565b60005b600480549050811015612a0157816004828154811061264b5761264a613212565b5b90600052602060002090600b020160000154036129ee5760016004805490506126749190613792565b810361276157600480548061268c5761268b6137c6565b5b60019003818190600052602060002090600b02016000808201600090556001820160006126b99190612a0d565b6002820160006101000a81549073ffffffffffffffffffffffffffffffffffffffff02191690556003820160006126f09190612a0d565b6004820160006127009190612a0d565b6005820160006127109190612a0d565b6006820160006127209190612a0d565b6007820160006127309190612a0d565b6008820160006127409190612a0d565b6009820160006127509190612a0d565b600a820160009055505090556129ed565b60008190505b60016004805490506127799190613792565b81101561290957600460018261278f91906137f5565b815481106127a05761279f613212565b5b90600052602060002090600b0201600482815481106127c2576127c1613212565b5b90600052602060002090600b020160008201548160000155600182018160010190816127ee9190613463565b506002820160009054906101000a900473ffffffffffffffffffffffffffffffffffffffff168160020160006101000a81548173ffffffffffffffffffffffffffffffffffffffff021916908373ffffffffffffffffffffffffffffffffffffffff1602179055506003820181600301908161286a9190613463565b506004820181600401908161287f9190613463565b50600582018160050190816128949190613463565b50600682018160060190816128a99190613463565b50600782018160070190816128be9190613463565b50600882018160080190816128d39190613463565b50600982018160090190816128e89190613463565b50600a82015481600a015590505080806129019061357a565b915050612767565b50600480548061291c5761291b6137c6565b5b60019003818190600052602060002090600b02016000808201600090556001820160006129499190612a0d565b6002820160006101000a81549073ffffffffffffffffffffffffffffffffffffffff02191690556003820160006129809190612a0d565b6004820160006129909190612a0d565b6005820160006129a09190612a0d565b6006820160006129b09190612a0d565b6007820160006129c09190612a0d565b6008820160006129d09190612a0d565b6009820160006129e09190612a0d565b600a820160009055505090555b5b80806129f99061357a565b915050612629565b5050565b600033905090565b508054612a1990613270565b6000825580601f10612a2b5750612a4a565b601f016020900490600052602060002090810190612a499190612a4d565b5b50565b5b80821115612a66576000816000905550600101612a4e565b5090565b6000604051905090565b600080fd5b600080fd5b6000819050919050565b612a9181612a7e565b8114612a9c57600080fd5b50565b600081359050612aae81612a88565b92915050565b600060208284031215612aca57612ac9612a74565b5b6000612ad884828501612a9f565b91505092915050565b600073ffffffffffffffffffffffffffffffffffffffff82169050919050565b6000612b0c82612ae1565b9050919050565b612b1c81612b01565b8114612b2757600080fd5b50565b600081359050612b3981612b13565b92915050565b600060208284031215612b5557612b54612a74565b5b6000612b6384828501612b2a565b91505092915050565b600081519050919050565b600082825260208201905092915050565b6000819050602082019050919050565b612ba181612a7e565b82525050565b600081519050919050565b600082825260208201905092915050565b60005b83811015612be1578082015181840152602081019050612bc6565b60008484015250505050565b6000601f19601f8301169050919050565b6000612c0982612ba7565b612c138185612bb2565b9350612c23818560208601612bc3565b612c2c81612bed565b840191505092915050565b612c4081612b01565b82525050565b600061016083016000830151612c5f6000860182612b98565b5060208301518482036020860152612c778282612bfe565b9150506040830151612c8c6040860182612c37565b5060608301518482036060860152612ca48282612bfe565b91505060808301518482036080860152612cbe8282612bfe565b91505060a083015184820360a0860152612cd88282612bfe565b91505060c083015184820360c0860152612cf28282612bfe565b91505060e083015184820360e0860152612d0c8282612bfe565b915050610100830151848203610100860152612d288282612bfe565b915050610120830151848203610120860152612d448282612bfe565b915050610140830151612d5b610140860182612b98565b508091505092915050565b6000612d728383612c46565b905092915050565b6000602082019050919050565b6000612d9282612b6c565b612d9c8185612b77565b935083602082028501612dae85612b88565b8060005b85811015612dea5784840389528151612dcb8582612d66565b9450612dd683612d7a565b925060208a01995050600181019050612db2565b50829750879550505050505092915050565b60006020820190508181036000830152612e168184612d87565b905092915050565b600082825260208201905092915050565b6000612e3a82612ba7565b612e448185612e1e565b9350612e54818560208601612bc3565b612e5d81612bed565b840191505092915050565b612e7181612b01565b82525050565b612e8081612a7e565b82525050565b600060e0820190508181036000830152612ea0818a612e2f565b90508181036020830152612eb48189612e2f565b9050612ec36040830188612e68565b8181036060830152612ed58187612e2f565b90508181036080830152612ee98186612e2f565b905081810360a0830152612efd8185612e2f565b9050612f0c60c0830184612e77565b98975050505050505050565b600080fd5b600080fd5b7f4e487b7100000000000000000000000000000000000000000000000000000000600052604160045260246000fd5b612f5a82612bed565b810181811067ffffffffffffffff82111715612f7957612f78612f22565b5b80604052505050565b6000612f8c612a6a565b9050612f988282612f51565b919050565b600067ffffffffffffffff821115612fb857612fb7612f22565b5b612fc182612bed565b9050602081019050919050565b82818337600083830152505050565b6000612ff0612feb84612f9d565b612f82565b90508281526020810184848401111561300c5761300b612f1d565b5b613017848285612fce565b509392505050565b600082601f83011261303457613033612f18565b5b8135613044848260208601612fdd565b91505092915050565b60008060008060008060008060006101208a8c0312156130705761306f612a74565b5b60008a013567ffffffffffffffff81111561308e5761308d612a79565b5b61309a8c828d0161301f565b99505060208a013567ffffffffffffffff8111156130bb576130ba612a79565b5b6130c78c828d0161301f565b98505060408a013567ffffffffffffffff8111156130e8576130e7612a79565b5b6130f48c828d0161301f565b97505060608a013567ffffffffffffffff81111561311557613114612a79565b5b6131218c828d0161301f565b96505060808a013567ffffffffffffffff81111561314257613141612a79565b5b61314e8c828d0161301f565b95505060a08a013567ffffffffffffffff81111561316f5761316e612a79565b5b61317b8c828d0161301f565b94505060c08a013567ffffffffffffffff81111561319c5761319b612a79565b5b6131a88c828d0161301f565b93505060e08a013567ffffffffffffffff8111156131c9576131c8612a79565b5b6131d58c828d0161301f565b9250506101006131e78c828d01612a9f565b9150509295985092959850929598565b600060208201905061320c6000830184612e68565b92915050565b7f4e487b7100000000000000000000000000000000000000000000000000000000600052603260045260246000fd5b7f4e487b7100000000000000000000000000000000000000000000000000000000600052602260045260246000fd5b6000600282049050600182168061328857607f821691505b60208210810361329b5761329a613241565b5b50919050565b6000815490506132b081613270565b9050919050565b60008190508160005260206000209050919050565b60006020601f8301049050919050565b600082821b905092915050565b6000600883026133197fffffffffffffffffffffffffffffffffffffffffffffffffffffffffffffffff826132dc565b61332386836132dc565b95508019841693508086168417925050509392505050565b6000819050919050565b600061336061335b61335684612a7e565b61333b565b612a7e565b9050919050565b6000819050919050565b61337a83613345565b61338e61338682613367565b8484546132e9565b825550505050565b600090565b6133a3613396565b6133ae818484613371565b505050565b5b818110156133d2576133c760008261339b565b6001810190506133b4565b5050565b601f821115613417576133e8816132b7565b6133f1846132cc565b81016020851015613400578190505b61341461340c856132cc565b8301826133b3565b50505b505050565b600082821c905092915050565b600061343a6000198460080261341c565b1980831691505092915050565b60006134538383613429565b9150826002028217905092915050565b818103613471575050613549565b61347a826132a1565b67ffffffffffffffff81111561349357613492612f22565b5b61349d8254613270565b6134a88282856133d6565b6000601f8311600181146134d757600084156134c5578287015490505b6134cf8582613447565b865550613542565b601f1984166134e5876132b7565b96506134f0866132b7565b60005b82811015613518578489015482556001820191506001850194506020810190506134f3565b868310156135355784890154613531601f891682613429565b8355505b6001600288020188555050505b5050505050505b565b7f4e487b7100000000000000000000000000000000000000000000000000000000600052601160045260246000fd5b600061358582612a7e565b91507fffffffffffffffffffffffffffffffffffffffffffffffffffffffffffffffff82036135b7576135b661354b565b5b600182019050919050565b6135cb82612ba7565b67ffffffffffffffff8111156135e4576135e3612f22565b5b6135ee8254613270565b6135f98282856133d6565b600060209050601f83116001811461362c576000841561361a578287015190505b6136248582613447565b86555061368c565b601f19841661363a866132b7565b60005b828110156136625784890151825560018201915060208501945060208101905061363d565b8683101561367f578489015161367b601f891682613429565b8355505b6001600288020188555050505b505050505050565b7f4f776e61626c653a206e6577206f776e657220697320746865207a65726f206160008201527f6464726573730000000000000000000000000000000000000000000000000000602082015250565b60006136f0602683612e1e565b91506136fb82613694565b604082019050919050565b6000602082019050818103600083015261371f816136e3565b9050919050565b7f4f776e61626c653a2063616c6c6572206973206e6f7420746865206f776e6572600082015250565b600061375c602083612e1e565b915061376782613726565b602082019050919050565b6000602082019050818103600083015261378b8161374f565b9050919050565b600061379d82612a7e565b91506137a883612a7e565b92508282039050818111156137c0576137bf61354b565b5b92915050565b7f4e487b7100000000000000000000000000000000000000000000000000000000600052603160045260246000fd5b600061380082612a7e565b915061380b83612a7e565b92508282019050808211156138235761382261354b565b5b9291505056fea2646970667358221220d39eaa6b5e13527bb60d1321798879725d4e2f83e3e01125ede36db143fb533d64736f6c63430008110033",
  "immutableReferences": {},
  "source": "// SPDX-License-Identifier: MIT\npragma solidity 0.8.17;\n\nimport \"@openzeppelin/contracts/access/Ownable.sol\";\nimport \"@openzeppelin/contracts/utils/Counters.sol\";\n\nerror AppNotExist();\nerror InvalidAppId();\nerror NotAllowedToSeeAppInfo();\nerror NotAllowedAccount();\n\ncontract DHubStore is Ownable {\n    using Counters for Counters.Counter;\n    Counters.Counter private _appIdCounter;\n    Counters.Counter private _requestedAppIdCounter;\n\n    struct App {\n        uint256 id;\n        string name;\n        address owner;\n        string description;\n        string image;\n        string website;\n        string github;\n        string discord;\n        string telegram;\n        string smartContractUrl;\n        uint256 usingPrice;\n    }\n\n    // apps that have already been published by admin\n    App[] private apps;\n    // apps that have been requested to publish\n    App[] private requestedApps;\n\n    // user address => apps used by that user\n    mapping(address => App[]) private userToAppsMapper;\n\n    function requestToPublishApp(\n        string memory _name,\n        string memory _description,\n        string memory _image,\n        string memory _website,\n        string memory _github,\n        string memory _discord,\n        string memory _telegram,\n        string memory _smartContractUrl,\n        uint256 _usingPrice\n    ) external {\n        uint256 appId = _requestedAppIdCounter.current();\n        _requestedAppIdCounter.increment();\n        requestedApps.push(App(\n            appId,\n            _name,\n            msg.sender,\n            _description,\n            _image,\n            _website,\n            _github,\n            _discord,\n            _telegram,\n            _smartContractUrl,\n            _usingPrice\n        ));\n    }\n\n    /**\n     * @dev admin publishes an app to the store\n     */\n    function publishApp(\n        uint256 requestedAppId\n    ) external onlyOwner {\n        for (uint i = 0; i < requestedApps.length; i++) {\n            if (requestedApps[i].id == requestedAppId) {\n                uint256 appId = _appIdCounter.current();\n                _appIdCounter.increment();\n                apps.push(App(\n                    appId,\n                    requestedApps[i].name,\n                    requestedApps[i].owner, \n                    requestedApps[i].description,\n                    requestedApps[i].image,\n                    requestedApps[i].website,\n                    requestedApps[i].github,\n                    requestedApps[i].discord,\n                    requestedApps[i].telegram,\n                    requestedApps[i].smartContractUrl,\n                    requestedApps[i].usingPrice\n                ));\n            }\n        }\n        removeAppFromRequestedApps(requestedAppId);\n    }\n\n    /**\n     * @dev admin rejects to publish an app to the store\n     */\n    function rejectApp(uint256 _appId) external onlyOwner {\n        removeAppFromRequestedApps(_appId);\n    }\n\n    /**\n     * @dev remove an app from requested apps queue by app id\n     */\n    function removeAppFromRequestedApps(uint256 _appId) internal {\n        for (uint i = 0; i < requestedApps.length; i++) {\n            if (requestedApps[i].id == _appId) {\n                if (i == requestedApps.length - 1) {\n                    requestedApps.pop();\n                } else {\n                    for (uint j = i; j < requestedApps.length - 1; j++) {\n                        requestedApps[j] = requestedApps[j+1];\n                    }\n                    requestedApps.pop();\n                }\n            }\n        }\n    }\n\n    /**\n     * @notice it is free at the moment to use an app, no fee is charged when user use apps\n     * @dev user request to use an app\n     */\n    function useApp(uint256 appId) external {\n        if (appId >= apps.length) revert AppNotExist();\n        for (uint i = 0; i < apps.length; i++) {\n            if (apps[i].id == appId) {\n                App[] storage userApps = userToAppsMapper[msg.sender];\n                userApps.push(apps[i]);\n            }\n        }\n    }\n\n    /**\n     * @dev Get all listed apps\n     * @return Array of Apps that are listed\n     */\n    function getAllPublishedApps(address _address) external view returns (App[] memory) {\n        if (_address != owner()) revert NotAllowedAccount();\n        return apps;\n    }\n\n    /**\n     * @dev Get all requested apps\n     * @return Array of Apps that have been requested\n     */\n    function getAllRequestedApps(address _address) external view returns (App[] memory) {\n        if (_address != owner()) revert NotAllowedAccount();\n        return requestedApps;\n    }\n\n    /**\n     * @dev Get app info\n     */\n    function getAppInfo(uint256 _appId) external view returns (\n        string memory name,\n        string memory description,\n        address owner,\n        string memory image,\n        string memory github,\n        string memory discord,\n        uint256 usingPrice\n    ) {\n        return (apps[_appId].name,\n                apps[_appId].description,\n                apps[_appId].owner,\n                apps[_appId].image,\n                apps[_appId].github,\n                apps[_appId].discord,\n                apps[_appId].usingPrice);\n    }\n\n    /**\n     * @dev Get all apps belong to a user (apps that the user has used)\n     * @notice Only app users can view their own app info\n     * @return Array of Apps\n     */\n    function getAppsBelongToUser(address appUserAddress) external view returns (App[] memory) {\n        // revert if caller is not contract owner and attempt to view other address's app info\n        if (msg.sender != owner()) {\n            if (msg.sender != appUserAddress) revert NotAllowedToSeeAppInfo();\n        }\n        return userToAppsMapper[appUserAddress];\n    }\n}\n",
  "sourcePath": "/Users/timthang/Desktop/Blockchain/DHub/DHub-solana-store/truffle/contracts/dhub.sol",
  "compiler": {
    "name": "solc",
    "version": "0.8.17+commit.8df45f5f.Emscripten.clang"
  },
  "schemaVersion": "3.4.10",
  "updatedAt": "2023-03-04T09:04:48.669Z",
  "devdoc": {
    "kind": "dev",
    "methods": {
      "getAllPublishedApps(address)": {
        "details": "Get all listed apps",
        "returns": {
          "_0": "Array of Apps that are listed"
        }
      },
      "getAllRequestedApps(address)": {
        "details": "Get all requested apps",
        "returns": {
          "_0": "Array of Apps that have been requested"
        }
      },
      "getAppInfo(uint256)": {
        "details": "Get app info"
      },
      "getAppsBelongToUser(address)": {
        "details": "Get all apps belong to a user (apps that the user has used)",
        "returns": {
          "_0": "Array of Apps"
        }
      },
      "owner()": {
        "details": "Returns the address of the current owner."
      },
      "publishApp(uint256)": {
        "details": "admin publishes an app to the store"
      },
      "rejectApp(uint256)": {
        "details": "admin rejects to publish an app to the store"
      },
      "renounceOwnership()": {
        "details": "Leaves the contract without owner. It will not be possible to call `onlyOwner` functions anymore. Can only be called by the current owner. NOTE: Renouncing ownership will leave the contract without an owner, thereby removing any functionality that is only available to the owner."
      },
      "transferOwnership(address)": {
        "details": "Transfers ownership of the contract to a new account (`newOwner`). Can only be called by the current owner."
      },
      "useApp(uint256)": {
        "details": "user request to use an app"
      }
    },
    "version": 1
  },
  "userdoc": {
    "kind": "user",
    "methods": {
      "getAppsBelongToUser(address)": {
        "notice": "Only app users can view their own app info"
      },
      "useApp(uint256)": {
        "notice": "it is free at the moment to use an app, no fee is charged when user use apps"
      }
    },
    "version": 1
  }
}