{
  "contractName": "DHubStore",
  "abi": [
    {
      "inputs": [],
      "stateMutability": "nonpayable",
      "type": "constructor"
    },
    {
      "anonymous": false,
      "inputs": [
        {
          "indexed": true,
          "internalType": "address",
          "name": "previousOwner",
          "type": "address"
        },
        {
          "indexed": true,
          "internalType": "address",
          "name": "newOwner",
          "type": "address"
        }
      ],
      "name": "OwnershipTransferred",
      "type": "event"
    },
    {
      "inputs": [
        {
          "internalType": "uint256",
          "name": "",
          "type": "uint256"
        }
      ],
      "name": "apps",
      "outputs": [
        {
          "internalType": "uint256",
          "name": "id",
          "type": "uint256"
        },
        {
          "internalType": "string",
          "name": "name",
          "type": "string"
        },
        {
          "internalType": "string",
          "name": "description",
          "type": "string"
        },
        {
          "internalType": "string",
          "name": "image",
          "type": "string"
        },
        {
          "internalType": "string",
          "name": "bytecode",
          "type": "string"
        }
      ],
      "stateMutability": "view",
      "type": "function"
    },
    {
      "inputs": [],
      "name": "owner",
      "outputs": [
        {
          "internalType": "address",
          "name": "",
          "type": "address"
        }
      ],
      "stateMutability": "view",
      "type": "function"
    },
    {
      "inputs": [],
      "name": "renounceOwnership",
      "outputs": [],
      "stateMutability": "nonpayable",
      "type": "function"
    },
    {
      "inputs": [
        {
          "internalType": "address",
          "name": "newOwner",
          "type": "address"
        }
      ],
      "name": "transferOwnership",
      "outputs": [],
      "stateMutability": "nonpayable",
      "type": "function"
    },
    {
      "inputs": [
        {
          "internalType": "address",
          "name": "",
          "type": "address"
        },
        {
          "internalType": "uint256",
          "name": "",
          "type": "uint256"
        }
      ],
      "name": "userToApps",
      "outputs": [
        {
          "internalType": "uint256",
          "name": "id",
          "type": "uint256"
        },
        {
          "internalType": "string",
          "name": "name",
          "type": "string"
        },
        {
          "internalType": "string",
          "name": "description",
          "type": "string"
        },
        {
          "internalType": "string",
          "name": "image",
          "type": "string"
        },
        {
          "internalType": "string",
          "name": "bytecode",
          "type": "string"
        }
      ],
      "stateMutability": "view",
      "type": "function"
    },
    {
      "inputs": [
        {
          "internalType": "uint256",
          "name": "id",
          "type": "uint256"
        },
        {
          "internalType": "string",
          "name": "name",
          "type": "string"
        },
        {
          "internalType": "string",
          "name": "description",
          "type": "string"
        },
        {
          "internalType": "string",
          "name": "image",
          "type": "string"
        },
        {
          "internalType": "string",
          "name": "bytecode",
          "type": "string"
        }
      ],
      "name": "creatApp",
      "outputs": [],
      "stateMutability": "nonpayable",
      "type": "function"
    },
    {
      "inputs": [],
      "name": "getAllPurchasableMarketItems",
      "outputs": [
        {
          "components": [
            {
              "internalType": "uint256",
              "name": "id",
              "type": "uint256"
            },
            {
              "internalType": "string",
              "name": "name",
              "type": "string"
            },
            {
              "internalType": "string",
              "name": "description",
              "type": "string"
            },
            {
              "internalType": "string",
              "name": "image",
              "type": "string"
            },
            {
              "internalType": "string",
              "name": "bytecode",
              "type": "string"
            }
          ],
          "internalType": "struct DHubStore.App[]",
          "name": "",
          "type": "tuple[]"
        }
      ],
      "stateMutability": "view",
      "type": "function"
    }
  ],
  "bytecode": "0x608060405234801561001057600080fd5b5061002d61002261003260201b60201c565b61003a60201b60201c565b6100fe565b600033905090565b60008060009054906101000a900473ffffffffffffffffffffffffffffffffffffffff169050816000806101000a81548173ffffffffffffffffffffffffffffffffffffffff021916908373ffffffffffffffffffffffffffffffffffffffff1602179055508173ffffffffffffffffffffffffffffffffffffffff168173ffffffffffffffffffffffffffffffffffffffff167f8be0079c531659141344cd1fd0a4f28419497f9722a3daafe3b4186f6b6457e060405160405180910390a35050565b6116358061010d6000396000f3fe608060405234801561001057600080fd5b506004361061007d5760003560e01c8063715018a61161005b578063715018a6146101065780638da5cb5b14610110578063bcd3d8ba1461012e578063f2fde38b1461014c5761007d565b80631b9f8058146100825780632f0fae17146100b657806361acc37e146100d2575b600080fd5b61009c60048036038101906100979190610c69565b610168565b6040516100ad959493929190610d48565b60405180910390f35b6100d060048036038101906100cb9190610eec565b6103db565b005b6100ec60048036038101906100e79190610fd7565b6104a0565b6040516100fd959493929190610d48565b60405180910390f35b61010e610706565b005b61011861071a565b6040516101259190611013565b60405180910390f35b610136610743565b60405161014391906111d4565b60405180910390f35b610166600480360381019061016191906111f6565b6109f4565b005b6003602052816000526040600020818154811061018457600080fd5b9060005260206000209060050201600091509150508060000154908060010180546101ae90611252565b80601f01602080910402602001604051908101604052809291908181526020018280546101da90611252565b80156102275780601f106101fc57610100808354040283529160200191610227565b820191906000526020600020905b81548152906001019060200180831161020a57829003601f168201915b50505050509080600201805461023c90611252565b80601f016020809104026020016040519081016040528092919081815260200182805461026890611252565b80156102b55780601f1061028a576101008083540402835291602001916102b5565b820191906000526020600020905b81548152906001019060200180831161029857829003601f168201915b5050505050908060030180546102ca90611252565b80601f01602080910402602001604051908101604052809291908181526020018280546102f690611252565b80156103435780601f1061031857610100808354040283529160200191610343565b820191906000526020600020905b81548152906001019060200180831161032657829003601f168201915b50505050509080600401805461035890611252565b80601f016020809104026020016040519081016040528092919081815260200182805461038490611252565b80156103d15780601f106103a6576101008083540402835291602001916103d1565b820191906000526020600020905b8154815290600101906020018083116103b457829003601f168201915b5050505050905085565b6103e3610a77565b60026040518060a00160405280878152602001868152602001858152602001848152602001838152509080600181540180825580915050600190039060005260206000209060050201600090919091909150600082015181600001556020820151816001019081610454919061142f565b50604082015181600201908161046a919061142f565b506060820151816003019081610480919061142f565b506080820151816004019081610496919061142f565b5050505050505050565b600281815481106104b057600080fd5b90600052602060002090600502016000915090508060000154908060010180546104d990611252565b80601f016020809104026020016040519081016040528092919081815260200182805461050590611252565b80156105525780601f1061052757610100808354040283529160200191610552565b820191906000526020600020905b81548152906001019060200180831161053557829003601f168201915b50505050509080600201805461056790611252565b80601f016020809104026020016040519081016040528092919081815260200182805461059390611252565b80156105e05780601f106105b5576101008083540402835291602001916105e0565b820191906000526020600020905b8154815290600101906020018083116105c357829003601f168201915b5050505050908060030180546105f590611252565b80601f016020809104026020016040519081016040528092919081815260200182805461062190611252565b801561066e5780601f106106435761010080835404028352916020019161066e565b820191906000526020600020905b81548152906001019060200180831161065157829003601f168201915b50505050509080600401805461068390611252565b80601f01602080910402602001604051908101604052809291908181526020018280546106af90611252565b80156106fc5780601f106106d1576101008083540402835291602001916106fc565b820191906000526020600020905b8154815290600101906020018083116106df57829003601f168201915b5050505050905085565b61070e610a77565b6107186000610af5565b565b60008060009054906101000a900473ffffffffffffffffffffffffffffffffffffffff16905090565b60606002805480602002602001604051908101604052809291908181526020016000905b828210156109eb57838290600052602060002090600502016040518060a0016040529081600082015481526020016001820180546107a490611252565b80601f01602080910402602001604051908101604052809291908181526020018280546107d090611252565b801561081d5780601f106107f25761010080835404028352916020019161081d565b820191906000526020600020905b81548152906001019060200180831161080057829003601f168201915b5050505050815260200160028201805461083690611252565b80601f016020809104026020016040519081016040528092919081815260200182805461086290611252565b80156108af5780601f10610884576101008083540402835291602001916108af565b820191906000526020600020905b81548152906001019060200180831161089257829003601f168201915b505050505081526020016003820180546108c890611252565b80601f01602080910402602001604051908101604052809291908181526020018280546108f490611252565b80156109415780601f1061091657610100808354040283529160200191610941565b820191906000526020600020905b81548152906001019060200180831161092457829003601f168201915b5050505050815260200160048201805461095a90611252565b80601f016020809104026020016040519081016040528092919081815260200182805461098690611252565b80156109d35780601f106109a8576101008083540402835291602001916109d3565b820191906000526020600020905b8154815290600101906020018083116109b657829003601f168201915b50505050508152505081526020019060010190610767565b50505050905090565b6109fc610a77565b600073ffffffffffffffffffffffffffffffffffffffff168173ffffffffffffffffffffffffffffffffffffffff1603610a6b576040517f08c379a0000000000000000000000000000000000000000000000000000000008152600401610a6290611573565b60405180910390fd5b610a7481610af5565b50565b610a7f610bb9565b73ffffffffffffffffffffffffffffffffffffffff16610a9d61071a565b73ffffffffffffffffffffffffffffffffffffffff1614610af3576040517f08c379a0000000000000000000000000000000000000000000000000000000008152600401610aea906115df565b60405180910390fd5b565b60008060009054906101000a900473ffffffffffffffffffffffffffffffffffffffff169050816000806101000a81548173ffffffffffffffffffffffffffffffffffffffff021916908373ffffffffffffffffffffffffffffffffffffffff1602179055508173ffffffffffffffffffffffffffffffffffffffff168173ffffffffffffffffffffffffffffffffffffffff167f8be0079c531659141344cd1fd0a4f28419497f9722a3daafe3b4186f6b6457e060405160405180910390a35050565b600033905090565b6000604051905090565b600080fd5b600080fd5b600073ffffffffffffffffffffffffffffffffffffffff82169050919050565b6000610c0082610bd5565b9050919050565b610c1081610bf5565b8114610c1b57600080fd5b50565b600081359050610c2d81610c07565b92915050565b6000819050919050565b610c4681610c33565b8114610c5157600080fd5b50565b600081359050610c6381610c3d565b92915050565b60008060408385031215610c8057610c7f610bcb565b5b6000610c8e85828601610c1e565b9250506020610c9f85828601610c54565b9150509250929050565b610cb281610c33565b82525050565b600081519050919050565b600082825260208201905092915050565b60005b83811015610cf2578082015181840152602081019050610cd7565b60008484015250505050565b6000601f19601f8301169050919050565b6000610d1a82610cb8565b610d248185610cc3565b9350610d34818560208601610cd4565b610d3d81610cfe565b840191505092915050565b600060a082019050610d5d6000830188610ca9565b8181036020830152610d6f8187610d0f565b90508181036040830152610d838186610d0f565b90508181036060830152610d978185610d0f565b90508181036080830152610dab8184610d0f565b90509695505050505050565b600080fd5b600080fd5b7f4e487b7100000000000000000000000000000000000000000000000000000000600052604160045260246000fd5b610df982610cfe565b810181811067ffffffffffffffff82111715610e1857610e17610dc1565b5b80604052505050565b6000610e2b610bc1565b9050610e378282610df0565b919050565b600067ffffffffffffffff821115610e5757610e56610dc1565b5b610e6082610cfe565b9050602081019050919050565b82818337600083830152505050565b6000610e8f610e8a84610e3c565b610e21565b905082815260208101848484011115610eab57610eaa610dbc565b5b610eb6848285610e6d565b509392505050565b600082601f830112610ed357610ed2610db7565b5b8135610ee3848260208601610e7c565b91505092915050565b600080600080600060a08688031215610f0857610f07610bcb565b5b6000610f1688828901610c54565b955050602086013567ffffffffffffffff811115610f3757610f36610bd0565b5b610f4388828901610ebe565b945050604086013567ffffffffffffffff811115610f6457610f63610bd0565b5b610f7088828901610ebe565b935050606086013567ffffffffffffffff811115610f9157610f90610bd0565b5b610f9d88828901610ebe565b925050608086013567ffffffffffffffff811115610fbe57610fbd610bd0565b5b610fca88828901610ebe565b9150509295509295909350565b600060208284031215610fed57610fec610bcb565b5b6000610ffb84828501610c54565b91505092915050565b61100d81610bf5565b82525050565b60006020820190506110286000830184611004565b92915050565b600081519050919050565b600082825260208201905092915050565b6000819050602082019050919050565b61106381610c33565b82525050565b600082825260208201905092915050565b600061108582610cb8565b61108f8185611069565b935061109f818560208601610cd4565b6110a881610cfe565b840191505092915050565b600060a0830160008301516110cb600086018261105a565b50602083015184820360208601526110e3828261107a565b915050604083015184820360408601526110fd828261107a565b91505060608301518482036060860152611117828261107a565b91505060808301518482036080860152611131828261107a565b9150508091505092915050565b600061114a83836110b3565b905092915050565b6000602082019050919050565b600061116a8261102e565b6111748185611039565b9350836020820285016111868561104a565b8060005b858110156111c257848403895281516111a3858261113e565b94506111ae83611152565b925060208a0199505060018101905061118a565b50829750879550505050505092915050565b600060208201905081810360008301526111ee818461115f565b905092915050565b60006020828403121561120c5761120b610bcb565b5b600061121a84828501610c1e565b91505092915050565b7f4e487b7100000000000000000000000000000000000000000000000000000000600052602260045260246000fd5b6000600282049050600182168061126a57607f821691505b60208210810361127d5761127c611223565b5b50919050565b60008190508160005260206000209050919050565b60006020601f8301049050919050565b600082821b905092915050565b6000600883026112e57fffffffffffffffffffffffffffffffffffffffffffffffffffffffffffffffff826112a8565b6112ef86836112a8565b95508019841693508086168417925050509392505050565b6000819050919050565b600061132c61132761132284610c33565b611307565b610c33565b9050919050565b6000819050919050565b61134683611311565b61135a61135282611333565b8484546112b5565b825550505050565b600090565b61136f611362565b61137a81848461133d565b505050565b5b8181101561139e57611393600082611367565b600181019050611380565b5050565b601f8211156113e3576113b481611283565b6113bd84611298565b810160208510156113cc578190505b6113e06113d885611298565b83018261137f565b50505b505050565b600082821c905092915050565b6000611406600019846008026113e8565b1980831691505092915050565b600061141f83836113f5565b9150826002028217905092915050565b61143882610cb8565b67ffffffffffffffff81111561145157611450610dc1565b5b61145b8254611252565b6114668282856113a2565b600060209050601f8311600181146114995760008415611487578287015190505b6114918582611413565b8655506114f9565b601f1984166114a786611283565b60005b828110156114cf578489015182556001820191506020850194506020810190506114aa565b868310156114ec57848901516114e8601f8916826113f5565b8355505b6001600288020188555050505b505050505050565b7f4f776e61626c653a206e6577206f776e657220697320746865207a65726f206160008201527f6464726573730000000000000000000000000000000000000000000000000000602082015250565b600061155d602683610cc3565b915061156882611501565b604082019050919050565b6000602082019050818103600083015261158c81611550565b9050919050565b7f4f776e61626c653a2063616c6c6572206973206e6f7420746865206f776e6572600082015250565b60006115c9602083610cc3565b91506115d482611593565b602082019050919050565b600060208201905081810360008301526115f8816115bc565b905091905056fea2646970667358221220ef0630f6fef0db8f5f5884a01404a0bc3abf3d513955a717be181476e503ebbb64736f6c63430008110033",
  "immutableReferences": {},
  "source": "// SPDX-License-Identifier: MIT\npragma solidity 0.8.17;\n\nimport \"@openzeppelin/contracts/access/Ownable.sol\";\nimport \"@openzeppelin/contracts/utils/Counters.sol\";\n\nerror TicketNotExist();\nerror InvalidLengthError();\n\ncontract DHubStore is Ownable {\n    using Counters for Counters.Counter;\n    Counters.Counter private _tokenIdCounter;\n\n    // using IPFS or not?\n    struct App {\n        uint256 id;\n        string name;\n        string description;\n        string image;\n        string bytecode;\n    }\n\n    App[] public apps;\n\n    mapping(address => App[]) public userToApps;\n\n    constructor() {}\n\n    function creatApp(\n        uint256 id,\n        string memory name,\n        string memory description,\n        string memory image,\n        string memory bytecode\n    ) external onlyOwner {\n        apps.push(App(id, name, description, image, bytecode));\n    }\n\n    /**\n     * @notice Get all the listed offer with status SELLING\n     * @return Array of offer ids that are listed with status SELLING\n     */\n    function getAllPurchasableMarketItems() external view returns (App[] memory) {\n        return apps;\n    }\n    \n}\n",
  "sourcePath": "/Users/timthang/Desktop/Blockchain/DHub/DHub-solana-store/truffle/contracts/dhub.sol",
  "compiler": {
    "name": "solc",
    "version": "0.8.17+commit.8df45f5f.Emscripten.clang"
  },
  "schemaVersion": "3.4.10",
  "updatedAt": "2023-02-18T17:21:36.257Z",
  "devdoc": {
    "kind": "dev",
    "methods": {
      "getAllPurchasableMarketItems()": {
        "returns": {
          "_0": "Array of offer ids that are listed with status SELLING"
        }
      },
      "owner()": {
        "details": "Returns the address of the current owner."
      },
      "renounceOwnership()": {
        "details": "Leaves the contract without owner. It will not be possible to call `onlyOwner` functions anymore. Can only be called by the current owner. NOTE: Renouncing ownership will leave the contract without an owner, thereby removing any functionality that is only available to the owner."
      },
      "transferOwnership(address)": {
        "details": "Transfers ownership of the contract to a new account (`newOwner`). Can only be called by the current owner."
      }
    },
    "version": 1
  },
  "userdoc": {
    "kind": "user",
    "methods": {
      "getAllPurchasableMarketItems()": {
        "notice": "Get all the listed offer with status SELLING"
      }
    },
    "version": 1
  }
}