{
  "contractName": "DHubStore",
  "abi": [
    {
      "inputs": [],
      "name": "AppNotExist",
      "type": "error"
    },
    {
      "inputs": [],
      "name": "NotAllowedToSeeAppInfo",
      "type": "error"
    },
    {
      "anonymous": false,
      "inputs": [
        {
          "indexed": true,
          "internalType": "address",
          "name": "previousOwner",
          "type": "address"
        },
        {
          "indexed": true,
          "internalType": "address",
          "name": "newOwner",
          "type": "address"
        }
      ],
      "name": "OwnershipTransferred",
      "type": "event"
    },
    {
      "inputs": [
        {
          "internalType": "uint256",
          "name": "",
          "type": "uint256"
        }
      ],
      "name": "appIdToOwnerAddressMapper",
      "outputs": [
        {
          "internalType": "address",
          "name": "",
          "type": "address"
        }
      ],
      "stateMutability": "view",
      "type": "function"
    },
    {
      "inputs": [],
      "name": "owner",
      "outputs": [
        {
          "internalType": "address",
          "name": "",
          "type": "address"
        }
      ],
      "stateMutability": "view",
      "type": "function"
    },
    {
      "inputs": [],
      "name": "renounceOwnership",
      "outputs": [],
      "stateMutability": "nonpayable",
      "type": "function"
    },
    {
      "inputs": [
        {
          "internalType": "address",
          "name": "newOwner",
          "type": "address"
        }
      ],
      "name": "transferOwnership",
      "outputs": [],
      "stateMutability": "nonpayable",
      "type": "function"
    },
    {
      "inputs": [
        {
          "internalType": "string",
          "name": "name",
          "type": "string"
        },
        {
          "internalType": "string",
          "name": "description",
          "type": "string"
        },
        {
          "internalType": "string",
          "name": "image",
          "type": "string"
        },
        {
          "internalType": "string",
          "name": "bytecode",
          "type": "string"
        }
      ],
      "name": "creatApp",
      "outputs": [],
      "stateMutability": "nonpayable",
      "type": "function"
    },
    {
      "inputs": [
        {
          "internalType": "uint256",
          "name": "appId",
          "type": "uint256"
        }
      ],
      "name": "useApp",
      "outputs": [],
      "stateMutability": "nonpayable",
      "type": "function"
    },
    {
      "inputs": [],
      "name": "getAllPurchasableMarketItems",
      "outputs": [
        {
          "components": [
            {
              "internalType": "uint256",
              "name": "id",
              "type": "uint256"
            },
            {
              "internalType": "string",
              "name": "name",
              "type": "string"
            },
            {
              "internalType": "string",
              "name": "description",
              "type": "string"
            },
            {
              "internalType": "string",
              "name": "image",
              "type": "string"
            },
            {
              "internalType": "string",
              "name": "bytecode",
              "type": "string"
            }
          ],
          "internalType": "struct DHubStore.App[]",
          "name": "",
          "type": "tuple[]"
        }
      ],
      "stateMutability": "view",
      "type": "function"
    },
    {
      "inputs": [
        {
          "internalType": "address",
          "name": "appUserAddress",
          "type": "address"
        }
      ],
      "name": "getAppsBelongToUser",
      "outputs": [
        {
          "components": [
            {
              "internalType": "uint256",
              "name": "id",
              "type": "uint256"
            },
            {
              "internalType": "string",
              "name": "name",
              "type": "string"
            },
            {
              "internalType": "string",
              "name": "description",
              "type": "string"
            },
            {
              "internalType": "string",
              "name": "image",
              "type": "string"
            },
            {
              "internalType": "string",
              "name": "bytecode",
              "type": "string"
            }
          ],
          "internalType": "struct DHubStore.App[]",
          "name": "",
          "type": "tuple[]"
        }
      ],
      "stateMutability": "view",
      "type": "function"
    }
  ],
  "bytecode": "0x608060405234801561001057600080fd5b5061002d61002261003260201b60201c565b61003a60201b60201c565b6100fe565b600033905090565b60008060009054906101000a900473ffffffffffffffffffffffffffffffffffffffff169050816000806101000a81548173ffffffffffffffffffffffffffffffffffffffff021916908373ffffffffffffffffffffffffffffffffffffffff1602179055508173ffffffffffffffffffffffffffffffffffffffff168173ffffffffffffffffffffffffffffffffffffffff167f8be0079c531659141344cd1fd0a4f28419497f9722a3daafe3b4186f6b6457e060405160405180910390a35050565b6117b48061010d6000396000f3fe608060405234801561001057600080fd5b50600436106100885760003560e01c80638da5cb5b1161005b5780638da5cb5b14610113578063bcd3d8ba14610131578063de8d51271461014f578063f2fde38b1461016b57610088565b80630ca62d571461008d578063230254f0146100a9578063715018a6146100d957806379d0cb25146100e3575b600080fd5b6100a760048036038101906100a29190610cf1565b610187565b005b6100c360048036038101906100be9190610d7c565b610309565b6040516100d09190610f95565b60405180910390f35b6100e161065e565b005b6100fd60048036038101906100f89190610cf1565b610672565b60405161010a9190610fc6565b60405180910390f35b61011b6106a5565b6040516101289190610fc6565b60405180910390f35b6101396106ce565b6040516101469190610f95565b60405180910390f35b61016960048036038101906101649190611116565b610987565b005b61018560048036038101906101809190610d7c565b610ab6565b005b60028054905081106101c5576040517f59a79eab00000000000000000000000000000000000000000000000000000000815260040160405180910390fd5b60005b6002805490508110156103055781600282815481106101ea576101e96111ed565b5b906000526020600020906005020160000154036102f2576000600460003373ffffffffffffffffffffffffffffffffffffffff1673ffffffffffffffffffffffffffffffffffffffff16815260200190815260200160002090508060028381548110610259576102586111ed565b5b9060005260206000209060050201908060018154018082558091505060019003906000526020600020906005020160009091909190915060008201548160000155600182018160010190816102ae919061143e565b50600282018160020190816102c3919061143e565b50600382018160030190816102d8919061143e565b50600482018160040190816102ed919061143e565b505050505b80806102fd90611555565b9150506101c8565b5050565b60608173ffffffffffffffffffffffffffffffffffffffff163373ffffffffffffffffffffffffffffffffffffffff1614610370576040517f453f499a00000000000000000000000000000000000000000000000000000000815260040160405180910390fd5b600460008373ffffffffffffffffffffffffffffffffffffffff1673ffffffffffffffffffffffffffffffffffffffff168152602001908152602001600020805480602002602001604051908101604052809291908181526020016000905b8282101561065357838290600052602060002090600502016040518060a00160405290816000820154815260200160018201805461040c9061124b565b80601f01602080910402602001604051908101604052809291908181526020018280546104389061124b565b80156104855780601f1061045a57610100808354040283529160200191610485565b820191906000526020600020905b81548152906001019060200180831161046857829003601f168201915b5050505050815260200160028201805461049e9061124b565b80601f01602080910402602001604051908101604052809291908181526020018280546104ca9061124b565b80156105175780601f106104ec57610100808354040283529160200191610517565b820191906000526020600020905b8154815290600101906020018083116104fa57829003601f168201915b505050505081526020016003820180546105309061124b565b80601f016020809104026020016040519081016040528092919081815260200182805461055c9061124b565b80156105a95780601f1061057e576101008083540402835291602001916105a9565b820191906000526020600020905b81548152906001019060200180831161058c57829003601f168201915b505050505081526020016004820180546105c29061124b565b80601f01602080910402602001604051908101604052809291908181526020018280546105ee9061124b565b801561063b5780601f106106105761010080835404028352916020019161063b565b820191906000526020600020905b81548152906001019060200180831161061e57829003601f168201915b505050505081525050815260200190600101906103cf565b505050509050919050565b610666610b39565b6106706000610bb7565b565b60036020528060005260406000206000915054906101000a900473ffffffffffffffffffffffffffffffffffffffff1681565b60008060009054906101000a900473ffffffffffffffffffffffffffffffffffffffff16905090565b60606106d8610b39565b6002805480602002602001604051908101604052809291908181526020016000905b8282101561097e57838290600052602060002090600502016040518060a0016040529081600082015481526020016001820180546107379061124b565b80601f01602080910402602001604051908101604052809291908181526020018280546107639061124b565b80156107b05780601f10610785576101008083540402835291602001916107b0565b820191906000526020600020905b81548152906001019060200180831161079357829003601f168201915b505050505081526020016002820180546107c99061124b565b80601f01602080910402602001604051908101604052809291908181526020018280546107f59061124b565b80156108425780601f1061081757610100808354040283529160200191610842565b820191906000526020600020905b81548152906001019060200180831161082557829003601f168201915b5050505050815260200160038201805461085b9061124b565b80601f01602080910402602001604051908101604052809291908181526020018280546108879061124b565b80156108d45780601f106108a9576101008083540402835291602001916108d4565b820191906000526020600020905b8154815290600101906020018083116108b757829003601f168201915b505050505081526020016004820180546108ed9061124b565b80601f01602080910402602001604051908101604052809291908181526020018280546109199061124b565b80156109665780601f1061093b57610100808354040283529160200191610966565b820191906000526020600020905b81548152906001019060200180831161094957829003601f168201915b505050505081525050815260200190600101906106fa565b50505050905090565b61098f610b39565b600061099b6001610c7b565b90506109a76001610c89565b60026040518060a00160405280838152602001878152602001868152602001858152602001848152509080600181540180825580915050600190039060005260206000209060050201600090919091909150600082015181600001556020820151816001019081610a18919061159d565b506040820151816002019081610a2e919061159d565b506060820151816003019081610a44919061159d565b506080820151816004019081610a5a919061159d565b505050336003600083815260200190815260200160002060006101000a81548173ffffffffffffffffffffffffffffffffffffffff021916908373ffffffffffffffffffffffffffffffffffffffff1602179055505050505050565b610abe610b39565b600073ffffffffffffffffffffffffffffffffffffffff168173ffffffffffffffffffffffffffffffffffffffff1603610b2d576040517f08c379a0000000000000000000000000000000000000000000000000000000008152600401610b24906116f2565b60405180910390fd5b610b3681610bb7565b50565b610b41610c9f565b73ffffffffffffffffffffffffffffffffffffffff16610b5f6106a5565b73ffffffffffffffffffffffffffffffffffffffff1614610bb5576040517f08c379a0000000000000000000000000000000000000000000000000000000008152600401610bac9061175e565b60405180910390fd5b565b60008060009054906101000a900473ffffffffffffffffffffffffffffffffffffffff169050816000806101000a81548173ffffffffffffffffffffffffffffffffffffffff021916908373ffffffffffffffffffffffffffffffffffffffff1602179055508173ffffffffffffffffffffffffffffffffffffffff168173ffffffffffffffffffffffffffffffffffffffff167f8be0079c531659141344cd1fd0a4f28419497f9722a3daafe3b4186f6b6457e060405160405180910390a35050565b600081600001549050919050565b6001816000016000828254019250508190555050565b600033905090565b6000604051905090565b600080fd5b600080fd5b6000819050919050565b610cce81610cbb565b8114610cd957600080fd5b50565b600081359050610ceb81610cc5565b92915050565b600060208284031215610d0757610d06610cb1565b5b6000610d1584828501610cdc565b91505092915050565b600073ffffffffffffffffffffffffffffffffffffffff82169050919050565b6000610d4982610d1e565b9050919050565b610d5981610d3e565b8114610d6457600080fd5b50565b600081359050610d7681610d50565b92915050565b600060208284031215610d9257610d91610cb1565b5b6000610da084828501610d67565b91505092915050565b600081519050919050565b600082825260208201905092915050565b6000819050602082019050919050565b610dde81610cbb565b82525050565b600081519050919050565b600082825260208201905092915050565b60005b83811015610e1e578082015181840152602081019050610e03565b60008484015250505050565b6000601f19601f8301169050919050565b6000610e4682610de4565b610e508185610def565b9350610e60818560208601610e00565b610e6981610e2a565b840191505092915050565b600060a083016000830151610e8c6000860182610dd5565b5060208301518482036020860152610ea48282610e3b565b91505060408301518482036040860152610ebe8282610e3b565b91505060608301518482036060860152610ed88282610e3b565b91505060808301518482036080860152610ef28282610e3b565b9150508091505092915050565b6000610f0b8383610e74565b905092915050565b6000602082019050919050565b6000610f2b82610da9565b610f358185610db4565b935083602082028501610f4785610dc5565b8060005b85811015610f835784840389528151610f648582610eff565b9450610f6f83610f13565b925060208a01995050600181019050610f4b565b50829750879550505050505092915050565b60006020820190508181036000830152610faf8184610f20565b905092915050565b610fc081610d3e565b82525050565b6000602082019050610fdb6000830184610fb7565b92915050565b600080fd5b600080fd5b7f4e487b7100000000000000000000000000000000000000000000000000000000600052604160045260246000fd5b61102382610e2a565b810181811067ffffffffffffffff8211171561104257611041610feb565b5b80604052505050565b6000611055610ca7565b9050611061828261101a565b919050565b600067ffffffffffffffff82111561108157611080610feb565b5b61108a82610e2a565b9050602081019050919050565b82818337600083830152505050565b60006110b96110b484611066565b61104b565b9050828152602081018484840111156110d5576110d4610fe6565b5b6110e0848285611097565b509392505050565b600082601f8301126110fd576110fc610fe1565b5b813561110d8482602086016110a6565b91505092915050565b600080600080608085870312156111305761112f610cb1565b5b600085013567ffffffffffffffff81111561114e5761114d610cb6565b5b61115a878288016110e8565b945050602085013567ffffffffffffffff81111561117b5761117a610cb6565b5b611187878288016110e8565b935050604085013567ffffffffffffffff8111156111a8576111a7610cb6565b5b6111b4878288016110e8565b925050606085013567ffffffffffffffff8111156111d5576111d4610cb6565b5b6111e1878288016110e8565b91505092959194509250565b7f4e487b7100000000000000000000000000000000000000000000000000000000600052603260045260246000fd5b7f4e487b7100000000000000000000000000000000000000000000000000000000600052602260045260246000fd5b6000600282049050600182168061126357607f821691505b6020821081036112765761127561121c565b5b50919050565b60008154905061128b8161124b565b9050919050565b60008190508160005260206000209050919050565b60006020601f8301049050919050565b600082821b905092915050565b6000600883026112f47fffffffffffffffffffffffffffffffffffffffffffffffffffffffffffffffff826112b7565b6112fe86836112b7565b95508019841693508086168417925050509392505050565b6000819050919050565b600061133b61133661133184610cbb565b611316565b610cbb565b9050919050565b6000819050919050565b61135583611320565b61136961136182611342565b8484546112c4565b825550505050565b600090565b61137e611371565b61138981848461134c565b505050565b5b818110156113ad576113a2600082611376565b60018101905061138f565b5050565b601f8211156113f2576113c381611292565b6113cc846112a7565b810160208510156113db578190505b6113ef6113e7856112a7565b83018261138e565b50505b505050565b600082821c905092915050565b6000611415600019846008026113f7565b1980831691505092915050565b600061142e8383611404565b9150826002028217905092915050565b81810361144c575050611524565b6114558261127c565b67ffffffffffffffff81111561146e5761146d610feb565b5b611478825461124b565b6114838282856113b1565b6000601f8311600181146114b257600084156114a0578287015490505b6114aa8582611422565b86555061151d565b601f1984166114c087611292565b96506114cb86611292565b60005b828110156114f3578489015482556001820191506001850194506020810190506114ce565b86831015611510578489015461150c601f891682611404565b8355505b6001600288020188555050505b5050505050505b565b7f4e487b7100000000000000000000000000000000000000000000000000000000600052601160045260246000fd5b600061156082610cbb565b91507fffffffffffffffffffffffffffffffffffffffffffffffffffffffffffffffff820361159257611591611526565b5b600182019050919050565b6115a682610de4565b67ffffffffffffffff8111156115bf576115be610feb565b5b6115c9825461124b565b6115d48282856113b1565b600060209050601f83116001811461160757600084156115f5578287015190505b6115ff8582611422565b865550611667565b601f19841661161586611292565b60005b8281101561163d57848901518255600182019150602085019450602081019050611618565b8683101561165a5784890151611656601f891682611404565b8355505b6001600288020188555050505b505050505050565b600082825260208201905092915050565b7f4f776e61626c653a206e6577206f776e657220697320746865207a65726f206160008201527f6464726573730000000000000000000000000000000000000000000000000000602082015250565b60006116dc60268361166f565b91506116e782611680565b604082019050919050565b6000602082019050818103600083015261170b816116cf565b9050919050565b7f4f776e61626c653a2063616c6c6572206973206e6f7420746865206f776e6572600082015250565b600061174860208361166f565b915061175382611712565b602082019050919050565b600060208201905081810360008301526117778161173b565b905091905056fea2646970667358221220c959fbf56d352867c2b73e42e8a748185732f881d2083cc9946aa5f3fe15383864736f6c63430008110033",
  "immutableReferences": {},
  "source": "// SPDX-License-Identifier: MIT\npragma solidity 0.8.17;\n\nimport \"@openzeppelin/contracts/access/Ownable.sol\";\nimport \"@openzeppelin/contracts/utils/Counters.sol\";\n\nerror AppNotExist();\nerror NotAllowedToSeeAppInfo();\n\ncontract DHubStore is Ownable {\n    using Counters for Counters.Counter;\n    Counters.Counter private _idCounter;\n\n    // using IPFS or not?\n    struct App {\n        uint256 id;\n        string name;\n        string description;\n        string image;\n        string bytecode;\n    }\n\n    App[] private apps;\n\n    mapping(uint => address) public appIdToOwnerAddressMapper;\n    mapping(address => App[]) private userToAppsMapper;\n\n    function creatApp(\n        string memory name,\n        string memory description,\n        string memory image,\n        string memory bytecode\n    ) external onlyOwner {\n        uint256 appId = _idCounter.current();\n        _idCounter.increment();\n        apps.push(App(appId, name, description, image, bytecode));\n        appIdToOwnerAddressMapper[appId] = msg.sender;\n    }\n\n    /**\n     * @notice it is free at the moment to use an app, no fee is charged when user use apps\n     * @dev user request to use an app\n     */\n    function useApp(uint256 appId) external {\n        if (appId >= apps.length) revert AppNotExist();\n        for (uint i = 0; i < apps.length; i++) {\n            if (apps[i].id == appId) {\n                App[] storage userApps = userToAppsMapper[msg.sender];\n                userApps.push(apps[i]);\n            }\n        }\n    }\n\n    /**\n     * @dev Get all listed apps\n     * @return Array of Apps that are listed\n     */\n    function getAllPurchasableMarketItems() external view onlyOwner returns (App[] memory) {\n        return apps;\n    }\n\n    /**\n     * @dev Get all apps belong to a user (apps that the user has used)\n     * @notice Only app users can view their own app info\n     * @return Array of Apps\n     */\n    function getAppsBelongToUser(address appUserAddress) external view returns (App[] memory) {\n        if (msg.sender != appUserAddress) revert NotAllowedToSeeAppInfo();\n        return userToAppsMapper[appUserAddress];\n    }\n}\n",
  "sourcePath": "/Users/timthang/Desktop/Blockchain/DHub/DHub-solana-store/truffle/contracts/dhub.sol",
  "compiler": {
    "name": "solc",
    "version": "0.8.17+commit.8df45f5f.Emscripten.clang"
  },
  "schemaVersion": "3.4.10",
  "updatedAt": "2023-02-19T10:34:32.877Z",
  "devdoc": {
    "kind": "dev",
    "methods": {
      "getAllPurchasableMarketItems()": {
        "details": "Get all listed apps",
        "returns": {
          "_0": "Array of Apps that are listed"
        }
      },
      "getAppsBelongToUser(address)": {
        "details": "Get all apps belong to a user (apps that the user has used)",
        "returns": {
          "_0": "Array of Apps"
        }
      },
      "owner()": {
        "details": "Returns the address of the current owner."
      },
      "renounceOwnership()": {
        "details": "Leaves the contract without owner. It will not be possible to call `onlyOwner` functions anymore. Can only be called by the current owner. NOTE: Renouncing ownership will leave the contract without an owner, thereby removing any functionality that is only available to the owner."
      },
      "transferOwnership(address)": {
        "details": "Transfers ownership of the contract to a new account (`newOwner`). Can only be called by the current owner."
      },
      "useApp(uint256)": {
        "details": "user request to use an app"
      }
    },
    "version": 1
  },
  "userdoc": {
    "kind": "user",
    "methods": {
      "getAppsBelongToUser(address)": {
        "notice": "Only app users can view their own app info"
      },
      "useApp(uint256)": {
        "notice": "it is free at the moment to use an app, no fee is charged when user use apps"
      }
    },
    "version": 1
  }
}