{
  "contractName": "DHubStore",
  "abi": [
    {
      "inputs": [],
      "name": "AppNotExist",
      "type": "error"
    },
    {
      "anonymous": false,
      "inputs": [
        {
          "indexed": true,
          "internalType": "address",
          "name": "previousOwner",
          "type": "address"
        },
        {
          "indexed": true,
          "internalType": "address",
          "name": "newOwner",
          "type": "address"
        }
      ],
      "name": "OwnershipTransferred",
      "type": "event"
    },
    {
      "inputs": [
        {
          "internalType": "uint256",
          "name": "",
          "type": "uint256"
        }
      ],
      "name": "apps",
      "outputs": [
        {
          "internalType": "uint256",
          "name": "id",
          "type": "uint256"
        },
        {
          "internalType": "string",
          "name": "name",
          "type": "string"
        },
        {
          "internalType": "string",
          "name": "description",
          "type": "string"
        },
        {
          "internalType": "string",
          "name": "image",
          "type": "string"
        },
        {
          "internalType": "string",
          "name": "bytecode",
          "type": "string"
        }
      ],
      "stateMutability": "view",
      "type": "function"
    },
    {
      "inputs": [],
      "name": "owner",
      "outputs": [
        {
          "internalType": "address",
          "name": "",
          "type": "address"
        }
      ],
      "stateMutability": "view",
      "type": "function"
    },
    {
      "inputs": [],
      "name": "renounceOwnership",
      "outputs": [],
      "stateMutability": "nonpayable",
      "type": "function"
    },
    {
      "inputs": [
        {
          "internalType": "address",
          "name": "newOwner",
          "type": "address"
        }
      ],
      "name": "transferOwnership",
      "outputs": [],
      "stateMutability": "nonpayable",
      "type": "function"
    },
    {
      "inputs": [
        {
          "internalType": "string",
          "name": "name",
          "type": "string"
        },
        {
          "internalType": "string",
          "name": "description",
          "type": "string"
        },
        {
          "internalType": "string",
          "name": "image",
          "type": "string"
        },
        {
          "internalType": "string",
          "name": "bytecode",
          "type": "string"
        }
      ],
      "name": "creatApp",
      "outputs": [],
      "stateMutability": "nonpayable",
      "type": "function"
    },
    {
      "inputs": [
        {
          "internalType": "uint256",
          "name": "appId",
          "type": "uint256"
        }
      ],
      "name": "useApp",
      "outputs": [],
      "stateMutability": "nonpayable",
      "type": "function"
    },
    {
      "inputs": [],
      "name": "getAllPurchasableMarketItems",
      "outputs": [
        {
          "components": [
            {
              "internalType": "uint256",
              "name": "id",
              "type": "uint256"
            },
            {
              "internalType": "string",
              "name": "name",
              "type": "string"
            },
            {
              "internalType": "string",
              "name": "description",
              "type": "string"
            },
            {
              "internalType": "string",
              "name": "image",
              "type": "string"
            },
            {
              "internalType": "string",
              "name": "bytecode",
              "type": "string"
            }
          ],
          "internalType": "struct DHubStore.App[]",
          "name": "",
          "type": "tuple[]"
        }
      ],
      "stateMutability": "view",
      "type": "function"
    },
    {
      "inputs": [],
      "name": "getAppsBelongToUser",
      "outputs": [
        {
          "components": [
            {
              "internalType": "uint256",
              "name": "id",
              "type": "uint256"
            },
            {
              "internalType": "string",
              "name": "name",
              "type": "string"
            },
            {
              "internalType": "string",
              "name": "description",
              "type": "string"
            },
            {
              "internalType": "string",
              "name": "image",
              "type": "string"
            },
            {
              "internalType": "string",
              "name": "bytecode",
              "type": "string"
            }
          ],
          "internalType": "struct DHubStore.App[]",
          "name": "",
          "type": "tuple[]"
        }
      ],
      "stateMutability": "view",
      "type": "function"
    }
  ],
  "bytecode": "0x608060405234801561001057600080fd5b5061002d61002261003260201b60201c565b61003a60201b60201c565b6100fe565b600033905090565b60008060009054906101000a900473ffffffffffffffffffffffffffffffffffffffff169050816000806101000a81548173ffffffffffffffffffffffffffffffffffffffff021916908373ffffffffffffffffffffffffffffffffffffffff1602179055508173ffffffffffffffffffffffffffffffffffffffff168173ffffffffffffffffffffffffffffffffffffffff167f8be0079c531659141344cd1fd0a4f28419497f9722a3daafe3b4186f6b6457e060405160405180910390a35050565b6119cf8061010d6000396000f3fe608060405234801561001057600080fd5b50600436106100885760003560e01c8063bcd3d8ba1161005b578063bcd3d8ba14610105578063d98825e814610123578063de8d512714610141578063f2fde38b1461015d57610088565b80630ca62d571461008d57806361acc37e146100a9578063715018a6146100dd5780638da5cb5b146100e7575b600080fd5b6100a760048036038101906100a29190610e55565b610179565b005b6100c360048036038101906100be9190610e55565b6102fb565b6040516100d4959493929190610f21565b60405180910390f35b6100e5610561565b005b6100ef610575565b6040516100fc9190610fd1565b60405180910390f35b61010d61059e565b60405161011a9190611192565b60405180910390f35b61012b61084f565b6040516101389190611192565b60405180910390f35b61015b600480360381019061015691906112e9565b610b3d565b005b610177600480360381019061017291906113ec565b610c1a565b005b60028054905081106101b7576040517f59a79eab00000000000000000000000000000000000000000000000000000000815260040160405180910390fd5b60005b6002805490508110156102f75781600282815481106101dc576101db611419565b5b906000526020600020906005020160000154036102e4576000600360003373ffffffffffffffffffffffffffffffffffffffff1673ffffffffffffffffffffffffffffffffffffffff1681526020019081526020016000209050806002838154811061024b5761024a611419565b5b9060005260206000209060050201908060018154018082558091505060019003906000526020600020906005020160009091909190915060008201548160000155600182018160010190816102a0919061166a565b50600282018160020190816102b5919061166a565b50600382018160030190816102ca919061166a565b50600482018160040190816102df919061166a565b505050505b80806102ef90611781565b9150506101ba565b5050565b6002818154811061030b57600080fd5b906000526020600020906005020160009150905080600001549080600101805461033490611477565b80601f016020809104026020016040519081016040528092919081815260200182805461036090611477565b80156103ad5780601f10610382576101008083540402835291602001916103ad565b820191906000526020600020905b81548152906001019060200180831161039057829003601f168201915b5050505050908060020180546103c290611477565b80601f01602080910402602001604051908101604052809291908181526020018280546103ee90611477565b801561043b5780601f106104105761010080835404028352916020019161043b565b820191906000526020600020905b81548152906001019060200180831161041e57829003601f168201915b50505050509080600301805461045090611477565b80601f016020809104026020016040519081016040528092919081815260200182805461047c90611477565b80156104c95780601f1061049e576101008083540402835291602001916104c9565b820191906000526020600020905b8154815290600101906020018083116104ac57829003601f168201915b5050505050908060040180546104de90611477565b80601f016020809104026020016040519081016040528092919081815260200182805461050a90611477565b80156105575780601f1061052c57610100808354040283529160200191610557565b820191906000526020600020905b81548152906001019060200180831161053a57829003601f168201915b5050505050905085565b610569610c9d565b6105736000610d1b565b565b60008060009054906101000a900473ffffffffffffffffffffffffffffffffffffffff16905090565b60606002805480602002602001604051908101604052809291908181526020016000905b8282101561084657838290600052602060002090600502016040518060a0016040529081600082015481526020016001820180546105ff90611477565b80601f016020809104026020016040519081016040528092919081815260200182805461062b90611477565b80156106785780601f1061064d57610100808354040283529160200191610678565b820191906000526020600020905b81548152906001019060200180831161065b57829003601f168201915b5050505050815260200160028201805461069190611477565b80601f01602080910402602001604051908101604052809291908181526020018280546106bd90611477565b801561070a5780601f106106df5761010080835404028352916020019161070a565b820191906000526020600020905b8154815290600101906020018083116106ed57829003601f168201915b5050505050815260200160038201805461072390611477565b80601f016020809104026020016040519081016040528092919081815260200182805461074f90611477565b801561079c5780601f106107715761010080835404028352916020019161079c565b820191906000526020600020905b81548152906001019060200180831161077f57829003601f168201915b505050505081526020016004820180546107b590611477565b80601f01602080910402602001604051908101604052809291908181526020018280546107e190611477565b801561082e5780601f106108035761010080835404028352916020019161082e565b820191906000526020600020905b81548152906001019060200180831161081157829003601f168201915b505050505081525050815260200190600101906105c2565b50505050905090565b6060600360003373ffffffffffffffffffffffffffffffffffffffff1673ffffffffffffffffffffffffffffffffffffffff168152602001908152602001600020805480602002602001604051908101604052809291908181526020016000905b82821015610b3457838290600052602060002090600502016040518060a0016040529081600082015481526020016001820180546108ed90611477565b80601f016020809104026020016040519081016040528092919081815260200182805461091990611477565b80156109665780601f1061093b57610100808354040283529160200191610966565b820191906000526020600020905b81548152906001019060200180831161094957829003601f168201915b5050505050815260200160028201805461097f90611477565b80601f01602080910402602001604051908101604052809291908181526020018280546109ab90611477565b80156109f85780601f106109cd576101008083540402835291602001916109f8565b820191906000526020600020905b8154815290600101906020018083116109db57829003601f168201915b50505050508152602001600382018054610a1190611477565b80601f0160208091040260200160405190810160405280929190818152602001828054610a3d90611477565b8015610a8a5780601f10610a5f57610100808354040283529160200191610a8a565b820191906000526020600020905b815481529060010190602001808311610a6d57829003601f168201915b50505050508152602001600482018054610aa390611477565b80601f0160208091040260200160405190810160405280929190818152602001828054610acf90611477565b8015610b1c5780601f10610af157610100808354040283529160200191610b1c565b820191906000526020600020905b815481529060010190602001808311610aff57829003601f168201915b505050505081525050815260200190600101906108b0565b50505050905090565b610b45610c9d565b6000610b516001610ddf565b9050610b5d6001610ded565b60026040518060a00160405280838152602001878152602001868152602001858152602001848152509080600181540180825580915050600190039060005260206000209060050201600090919091909150600082015181600001556020820151816001019081610bce91906117c9565b506040820151816002019081610be491906117c9565b506060820151816003019081610bfa91906117c9565b506080820151816004019081610c1091906117c9565b5050505050505050565b610c22610c9d565b600073ffffffffffffffffffffffffffffffffffffffff168173ffffffffffffffffffffffffffffffffffffffff1603610c91576040517f08c379a0000000000000000000000000000000000000000000000000000000008152600401610c889061190d565b60405180910390fd5b610c9a81610d1b565b50565b610ca5610e03565b73ffffffffffffffffffffffffffffffffffffffff16610cc3610575565b73ffffffffffffffffffffffffffffffffffffffff1614610d19576040517f08c379a0000000000000000000000000000000000000000000000000000000008152600401610d1090611979565b60405180910390fd5b565b60008060009054906101000a900473ffffffffffffffffffffffffffffffffffffffff169050816000806101000a81548173ffffffffffffffffffffffffffffffffffffffff021916908373ffffffffffffffffffffffffffffffffffffffff1602179055508173ffffffffffffffffffffffffffffffffffffffff168173ffffffffffffffffffffffffffffffffffffffff167f8be0079c531659141344cd1fd0a4f28419497f9722a3daafe3b4186f6b6457e060405160405180910390a35050565b600081600001549050919050565b6001816000016000828254019250508190555050565b600033905090565b6000604051905090565b600080fd5b600080fd5b6000819050919050565b610e3281610e1f565b8114610e3d57600080fd5b50565b600081359050610e4f81610e29565b92915050565b600060208284031215610e6b57610e6a610e15565b5b6000610e7984828501610e40565b91505092915050565b610e8b81610e1f565b82525050565b600081519050919050565b600082825260208201905092915050565b60005b83811015610ecb578082015181840152602081019050610eb0565b60008484015250505050565b6000601f19601f8301169050919050565b6000610ef382610e91565b610efd8185610e9c565b9350610f0d818560208601610ead565b610f1681610ed7565b840191505092915050565b600060a082019050610f366000830188610e82565b8181036020830152610f488187610ee8565b90508181036040830152610f5c8186610ee8565b90508181036060830152610f708185610ee8565b90508181036080830152610f848184610ee8565b90509695505050505050565b600073ffffffffffffffffffffffffffffffffffffffff82169050919050565b6000610fbb82610f90565b9050919050565b610fcb81610fb0565b82525050565b6000602082019050610fe66000830184610fc2565b92915050565b600081519050919050565b600082825260208201905092915050565b6000819050602082019050919050565b61102181610e1f565b82525050565b600082825260208201905092915050565b600061104382610e91565b61104d8185611027565b935061105d818560208601610ead565b61106681610ed7565b840191505092915050565b600060a0830160008301516110896000860182611018565b50602083015184820360208601526110a18282611038565b915050604083015184820360408601526110bb8282611038565b915050606083015184820360608601526110d58282611038565b915050608083015184820360808601526110ef8282611038565b9150508091505092915050565b60006111088383611071565b905092915050565b6000602082019050919050565b600061112882610fec565b6111328185610ff7565b93508360208202850161114485611008565b8060005b85811015611180578484038952815161116185826110fc565b945061116c83611110565b925060208a01995050600181019050611148565b50829750879550505050505092915050565b600060208201905081810360008301526111ac818461111d565b905092915050565b600080fd5b600080fd5b7f4e487b7100000000000000000000000000000000000000000000000000000000600052604160045260246000fd5b6111f682610ed7565b810181811067ffffffffffffffff82111715611215576112146111be565b5b80604052505050565b6000611228610e0b565b905061123482826111ed565b919050565b600067ffffffffffffffff821115611254576112536111be565b5b61125d82610ed7565b9050602081019050919050565b82818337600083830152505050565b600061128c61128784611239565b61121e565b9050828152602081018484840111156112a8576112a76111b9565b5b6112b384828561126a565b509392505050565b600082601f8301126112d0576112cf6111b4565b5b81356112e0848260208601611279565b91505092915050565b6000806000806080858703121561130357611302610e15565b5b600085013567ffffffffffffffff81111561132157611320610e1a565b5b61132d878288016112bb565b945050602085013567ffffffffffffffff81111561134e5761134d610e1a565b5b61135a878288016112bb565b935050604085013567ffffffffffffffff81111561137b5761137a610e1a565b5b611387878288016112bb565b925050606085013567ffffffffffffffff8111156113a8576113a7610e1a565b5b6113b4878288016112bb565b91505092959194509250565b6113c981610fb0565b81146113d457600080fd5b50565b6000813590506113e6816113c0565b92915050565b60006020828403121561140257611401610e15565b5b6000611410848285016113d7565b91505092915050565b7f4e487b7100000000000000000000000000000000000000000000000000000000600052603260045260246000fd5b7f4e487b7100000000000000000000000000000000000000000000000000000000600052602260045260246000fd5b6000600282049050600182168061148f57607f821691505b6020821081036114a2576114a1611448565b5b50919050565b6000815490506114b781611477565b9050919050565b60008190508160005260206000209050919050565b60006020601f8301049050919050565b600082821b905092915050565b6000600883026115207fffffffffffffffffffffffffffffffffffffffffffffffffffffffffffffffff826114e3565b61152a86836114e3565b95508019841693508086168417925050509392505050565b6000819050919050565b600061156761156261155d84610e1f565b611542565b610e1f565b9050919050565b6000819050919050565b6115818361154c565b61159561158d8261156e565b8484546114f0565b825550505050565b600090565b6115aa61159d565b6115b5818484611578565b505050565b5b818110156115d9576115ce6000826115a2565b6001810190506115bb565b5050565b601f82111561161e576115ef816114be565b6115f8846114d3565b81016020851015611607578190505b61161b611613856114d3565b8301826115ba565b50505b505050565b600082821c905092915050565b600061164160001984600802611623565b1980831691505092915050565b600061165a8383611630565b9150826002028217905092915050565b818103611678575050611750565b611681826114a8565b67ffffffffffffffff81111561169a576116996111be565b5b6116a48254611477565b6116af8282856115dd565b6000601f8311600181146116de57600084156116cc578287015490505b6116d6858261164e565b865550611749565b601f1984166116ec876114be565b96506116f7866114be565b60005b8281101561171f578489015482556001820191506001850194506020810190506116fa565b8683101561173c5784890154611738601f891682611630565b8355505b6001600288020188555050505b5050505050505b565b7f4e487b7100000000000000000000000000000000000000000000000000000000600052601160045260246000fd5b600061178c82610e1f565b91507fffffffffffffffffffffffffffffffffffffffffffffffffffffffffffffffff82036117be576117bd611752565b5b600182019050919050565b6117d282610e91565b67ffffffffffffffff8111156117eb576117ea6111be565b5b6117f58254611477565b6118008282856115dd565b600060209050601f8311600181146118335760008415611821578287015190505b61182b858261164e565b865550611893565b601f198416611841866114be565b60005b8281101561186957848901518255600182019150602085019450602081019050611844565b868310156118865784890151611882601f891682611630565b8355505b6001600288020188555050505b505050505050565b7f4f776e61626c653a206e6577206f776e657220697320746865207a65726f206160008201527f6464726573730000000000000000000000000000000000000000000000000000602082015250565b60006118f7602683610e9c565b91506119028261189b565b604082019050919050565b60006020820190508181036000830152611926816118ea565b9050919050565b7f4f776e61626c653a2063616c6c6572206973206e6f7420746865206f776e6572600082015250565b6000611963602083610e9c565b915061196e8261192d565b602082019050919050565b6000602082019050818103600083015261199281611956565b905091905056fea2646970667358221220388a7cb2ed520a414eb261d1c33687d1e570936acec436bca190ad6625816ea664736f6c63430008110033",
  "immutableReferences": {},
  "source": "// SPDX-License-Identifier: MIT\npragma solidity 0.8.17;\n\nimport \"@openzeppelin/contracts/access/Ownable.sol\";\nimport \"@openzeppelin/contracts/utils/Counters.sol\";\n\nerror AppNotExist();\n\ncontract DHubStore is Ownable {\n    using Counters for Counters.Counter;\n    Counters.Counter private _idCounter;\n\n    // using IPFS or not?\n    struct App {\n        uint256 id;\n        string name;\n        string description;\n        string image;\n        string bytecode;\n    }\n\n    App[] public apps;\n\n    mapping(address => App[]) private userToApps;\n\n    function creatApp(\n        string memory name,\n        string memory description,\n        string memory image,\n        string memory bytecode\n    ) external onlyOwner {\n        uint256 appId = _idCounter.current();\n        _idCounter.increment();\n        apps.push(App(appId, name, description, image, bytecode));\n    }\n\n    /**\n     * @dev user request to use an app\n     */\n    function useApp(uint256 appId) external {\n        if (appId >= apps.length) revert AppNotExist();\n        for (uint i = 0; i < apps.length; i++) {\n            if (apps[i].id == appId) {\n                App[] storage userApps = userToApps[msg.sender];\n                userApps.push(apps[i]);\n            }\n        }\n    }\n\n    /**\n     * @dev Get all listed apps\n     * @return Array of Apps that are listed\n     */\n    function getAllPurchasableMarketItems() external view returns (App[] memory) {\n        return apps;\n    }\n\n    /**\n     * @dev Get all apps belong to a user\n     * @return Array of Apps\n     */\n    function getAppsBelongToUser() external view returns (App[] memory) {\n        return userToApps[msg.sender];\n    }\n}\n",
  "sourcePath": "/Users/timthang/Desktop/Blockchain/DHub/DHub-solana-store/truffle/contracts/dhub.sol",
  "compiler": {
    "name": "solc",
    "version": "0.8.17+commit.8df45f5f.Emscripten.clang"
  },
  "schemaVersion": "3.4.10",
  "updatedAt": "2023-02-19T10:13:11.778Z",
  "devdoc": {
    "kind": "dev",
    "methods": {
      "getAllPurchasableMarketItems()": {
        "details": "Get all listed apps",
        "returns": {
          "_0": "Array of Apps that are listed"
        }
      },
      "getAppsBelongToUser()": {
        "details": "Get all apps belong to a user",
        "returns": {
          "_0": "Array of Apps"
        }
      },
      "owner()": {
        "details": "Returns the address of the current owner."
      },
      "renounceOwnership()": {
        "details": "Leaves the contract without owner. It will not be possible to call `onlyOwner` functions anymore. Can only be called by the current owner. NOTE: Renouncing ownership will leave the contract without an owner, thereby removing any functionality that is only available to the owner."
      },
      "transferOwnership(address)": {
        "details": "Transfers ownership of the contract to a new account (`newOwner`). Can only be called by the current owner."
      },
      "useApp(uint256)": {
        "details": "user request to use an app"
      }
    },
    "version": 1
  },
  "userdoc": {
    "kind": "user",
    "methods": {},
    "version": 1
  }
}