{
  "contractName": "DHubStore",
  "abi": [
    {
      "inputs": [],
      "name": "AppNotExist",
      "type": "error"
    },
    {
      "inputs": [],
      "name": "NotAllowedAccount",
      "type": "error"
    },
    {
      "anonymous": false,
      "inputs": [
        {
          "indexed": true,
          "internalType": "address",
          "name": "previousOwner",
          "type": "address"
        },
        {
          "indexed": true,
          "internalType": "address",
          "name": "newOwner",
          "type": "address"
        }
      ],
      "name": "OwnershipTransferred",
      "type": "event"
    },
    {
      "inputs": [],
      "name": "owner",
      "outputs": [
        {
          "internalType": "address",
          "name": "",
          "type": "address"
        }
      ],
      "stateMutability": "view",
      "type": "function"
    },
    {
      "inputs": [],
      "name": "renounceOwnership",
      "outputs": [],
      "stateMutability": "nonpayable",
      "type": "function"
    },
    {
      "inputs": [
        {
          "internalType": "address",
          "name": "newOwner",
          "type": "address"
        }
      ],
      "name": "transferOwnership",
      "outputs": [],
      "stateMutability": "nonpayable",
      "type": "function"
    },
    {
      "inputs": [
        {
          "internalType": "string",
          "name": "_name",
          "type": "string"
        },
        {
          "internalType": "string",
          "name": "_description",
          "type": "string"
        },
        {
          "internalType": "string",
          "name": "_image",
          "type": "string"
        },
        {
          "internalType": "string",
          "name": "_tags",
          "type": "string"
        },
        {
          "internalType": "string",
          "name": "_website",
          "type": "string"
        },
        {
          "internalType": "string",
          "name": "_github",
          "type": "string"
        },
        {
          "internalType": "string",
          "name": "_discord",
          "type": "string"
        },
        {
          "internalType": "string",
          "name": "_telegram",
          "type": "string"
        },
        {
          "internalType": "string",
          "name": "_smartContractUrl",
          "type": "string"
        },
        {
          "internalType": "uint256",
          "name": "_usingPrice",
          "type": "uint256"
        }
      ],
      "name": "requestToPublishApp",
      "outputs": [],
      "stateMutability": "nonpayable",
      "type": "function"
    },
    {
      "inputs": [
        {
          "internalType": "uint256",
          "name": "requestedAppId",
          "type": "uint256"
        }
      ],
      "name": "publishApp",
      "outputs": [],
      "stateMutability": "nonpayable",
      "type": "function"
    },
    {
      "inputs": [
        {
          "internalType": "uint256",
          "name": "_appId",
          "type": "uint256"
        }
      ],
      "name": "rejectApp",
      "outputs": [],
      "stateMutability": "nonpayable",
      "type": "function"
    },
    {
      "inputs": [
        {
          "internalType": "uint256",
          "name": "appId",
          "type": "uint256"
        }
      ],
      "name": "useApp",
      "outputs": [],
      "stateMutability": "payable",
      "type": "function"
    },
    {
      "inputs": [
        {
          "internalType": "address",
          "name": "_address",
          "type": "address"
        }
      ],
      "name": "getAllPublishedApps",
      "outputs": [
        {
          "components": [
            {
              "internalType": "uint256",
              "name": "id",
              "type": "uint256"
            },
            {
              "internalType": "string",
              "name": "name",
              "type": "string"
            },
            {
              "internalType": "address",
              "name": "owner",
              "type": "address"
            },
            {
              "internalType": "string",
              "name": "description",
              "type": "string"
            },
            {
              "internalType": "string",
              "name": "image",
              "type": "string"
            },
            {
              "internalType": "string",
              "name": "tags",
              "type": "string"
            },
            {
              "internalType": "string",
              "name": "website",
              "type": "string"
            },
            {
              "internalType": "string",
              "name": "github",
              "type": "string"
            },
            {
              "internalType": "string",
              "name": "discord",
              "type": "string"
            },
            {
              "internalType": "string",
              "name": "telegram",
              "type": "string"
            },
            {
              "internalType": "string",
              "name": "smartContractUrl",
              "type": "string"
            },
            {
              "internalType": "uint256",
              "name": "usingPrice",
              "type": "uint256"
            }
          ],
          "internalType": "struct DHubStore.App[]",
          "name": "",
          "type": "tuple[]"
        }
      ],
      "stateMutability": "view",
      "type": "function"
    },
    {
      "inputs": [
        {
          "internalType": "address",
          "name": "_address",
          "type": "address"
        }
      ],
      "name": "getAllRequestedApps",
      "outputs": [
        {
          "components": [
            {
              "internalType": "uint256",
              "name": "id",
              "type": "uint256"
            },
            {
              "internalType": "string",
              "name": "name",
              "type": "string"
            },
            {
              "internalType": "address",
              "name": "owner",
              "type": "address"
            },
            {
              "internalType": "string",
              "name": "description",
              "type": "string"
            },
            {
              "internalType": "string",
              "name": "image",
              "type": "string"
            },
            {
              "internalType": "string",
              "name": "tags",
              "type": "string"
            },
            {
              "internalType": "string",
              "name": "website",
              "type": "string"
            },
            {
              "internalType": "string",
              "name": "github",
              "type": "string"
            },
            {
              "internalType": "string",
              "name": "discord",
              "type": "string"
            },
            {
              "internalType": "string",
              "name": "telegram",
              "type": "string"
            },
            {
              "internalType": "string",
              "name": "smartContractUrl",
              "type": "string"
            },
            {
              "internalType": "uint256",
              "name": "usingPrice",
              "type": "uint256"
            }
          ],
          "internalType": "struct DHubStore.App[]",
          "name": "",
          "type": "tuple[]"
        }
      ],
      "stateMutability": "view",
      "type": "function"
    },
    {
      "inputs": [
        {
          "internalType": "uint256",
          "name": "_appId",
          "type": "uint256"
        }
      ],
      "name": "getAppInfo",
      "outputs": [
        {
          "internalType": "string",
          "name": "name",
          "type": "string"
        },
        {
          "internalType": "string",
          "name": "description",
          "type": "string"
        },
        {
          "internalType": "address",
          "name": "owner",
          "type": "address"
        },
        {
          "internalType": "string",
          "name": "image",
          "type": "string"
        },
        {
          "internalType": "string",
          "name": "github",
          "type": "string"
        },
        {
          "internalType": "string",
          "name": "discord",
          "type": "string"
        },
        {
          "internalType": "uint256",
          "name": "usingPrice",
          "type": "uint256"
        }
      ],
      "stateMutability": "view",
      "type": "function"
    },
    {
      "inputs": [
        {
          "internalType": "address",
          "name": "userAddress",
          "type": "address"
        }
      ],
      "name": "getAppsBelongToUser",
      "outputs": [
        {
          "components": [
            {
              "internalType": "uint256",
              "name": "id",
              "type": "uint256"
            },
            {
              "internalType": "string",
              "name": "name",
              "type": "string"
            },
            {
              "internalType": "address",
              "name": "owner",
              "type": "address"
            },
            {
              "internalType": "string",
              "name": "description",
              "type": "string"
            },
            {
              "internalType": "string",
              "name": "image",
              "type": "string"
            },
            {
              "internalType": "string",
              "name": "tags",
              "type": "string"
            },
            {
              "internalType": "string",
              "name": "website",
              "type": "string"
            },
            {
              "internalType": "string",
              "name": "github",
              "type": "string"
            },
            {
              "internalType": "string",
              "name": "discord",
              "type": "string"
            },
            {
              "internalType": "string",
              "name": "telegram",
              "type": "string"
            },
            {
              "internalType": "string",
              "name": "smartContractUrl",
              "type": "string"
            },
            {
              "internalType": "uint256",
              "name": "usingPrice",
              "type": "uint256"
            }
          ],
          "internalType": "struct DHubStore.App[]",
          "name": "",
          "type": "tuple[]"
        }
      ],
      "stateMutability": "view",
      "type": "function"
    },
    {
      "inputs": [
        {
          "internalType": "address",
          "name": "userAddress",
          "type": "address"
        }
      ],
      "name": "getAppsRequestedByUser",
      "outputs": [
        {
          "components": [
            {
              "internalType": "uint256",
              "name": "id",
              "type": "uint256"
            },
            {
              "internalType": "string",
              "name": "name",
              "type": "string"
            },
            {
              "internalType": "address",
              "name": "owner",
              "type": "address"
            },
            {
              "internalType": "string",
              "name": "description",
              "type": "string"
            },
            {
              "internalType": "string",
              "name": "image",
              "type": "string"
            },
            {
              "internalType": "string",
              "name": "tags",
              "type": "string"
            },
            {
              "internalType": "string",
              "name": "website",
              "type": "string"
            },
            {
              "internalType": "string",
              "name": "github",
              "type": "string"
            },
            {
              "internalType": "string",
              "name": "discord",
              "type": "string"
            },
            {
              "internalType": "string",
              "name": "telegram",
              "type": "string"
            },
            {
              "internalType": "string",
              "name": "smartContractUrl",
              "type": "string"
            },
            {
              "internalType": "uint256",
              "name": "usingPrice",
              "type": "uint256"
            }
          ],
          "internalType": "struct DHubStore.App[]",
          "name": "",
          "type": "tuple[]"
        }
      ],
      "stateMutability": "view",
      "type": "function"
    },
    {
      "inputs": [
        {
          "internalType": "address",
          "name": "userAddress",
          "type": "address"
        }
      ],
      "name": "getAppsPublishedByUser",
      "outputs": [
        {
          "components": [
            {
              "internalType": "uint256",
              "name": "id",
              "type": "uint256"
            },
            {
              "internalType": "string",
              "name": "name",
              "type": "string"
            },
            {
              "internalType": "address",
              "name": "owner",
              "type": "address"
            },
            {
              "internalType": "string",
              "name": "description",
              "type": "string"
            },
            {
              "internalType": "string",
              "name": "image",
              "type": "string"
            },
            {
              "internalType": "string",
              "name": "tags",
              "type": "string"
            },
            {
              "internalType": "string",
              "name": "website",
              "type": "string"
            },
            {
              "internalType": "string",
              "name": "github",
              "type": "string"
            },
            {
              "internalType": "string",
              "name": "discord",
              "type": "string"
            },
            {
              "internalType": "string",
              "name": "telegram",
              "type": "string"
            },
            {
              "internalType": "string",
              "name": "smartContractUrl",
              "type": "string"
            },
            {
              "internalType": "uint256",
              "name": "usingPrice",
              "type": "uint256"
            }
          ],
          "internalType": "struct DHubStore.App[]",
          "name": "",
          "type": "tuple[]"
        }
      ],
      "stateMutability": "view",
      "type": "function"
    }
  ],
  "bytecode": "0x60806040523480156200001157600080fd5b5062000032620000266200003860201b60201c565b6200004060201b60201c565b62000104565b600033905090565b60008060009054906101000a900473ffffffffffffffffffffffffffffffffffffffff169050816000806101000a81548173ffffffffffffffffffffffffffffffffffffffff021916908373ffffffffffffffffffffffffffffffffffffffff1602179055508173ffffffffffffffffffffffffffffffffffffffff168173ffffffffffffffffffffffffffffffffffffffff167f8be0079c531659141344cd1fd0a4f28419497f9722a3daafe3b4186f6b6457e060405160405180910390a35050565b614cec80620001146000396000f3fe6080604052600436106100c25760003560e01c8063741aa2bd1161007f5780638f3ef806116100595780638f3ef80614610285578063d1c33537146102c2578063e41e7266146102eb578063f2fde38b14610314576100c2565b8063741aa2bd146101ee57806381361650146102315780638da5cb5b1461025a576100c2565b80630ca62d57146100c7578063230254f0146100e357806324071784146101205780632d67972a1461015d5780634b0137461461019a578063715018a6146101d7575b600080fd5b6100e160048036038101906100dc9190613ef4565b61033d565b005b3480156100ef57600080fd5b5061010a60048036038101906101059190613f7f565b61062b565b6040516101179190614258565b60405180910390f35b34801561012c57600080fd5b5061014760048036038101906101429190613f7f565b610c56565b6040516101549190614258565b60405180910390f35b34801561016957600080fd5b50610184600480360381019061017f9190613f7f565b6112b0565b6040516101919190614258565b60405180910390f35b3480156101a657600080fd5b506101c160048036038101906101bc9190613f7f565b61190a565b6040516101ce9190614258565b60405180910390f35b3480156101e357600080fd5b506101ec611f35565b005b3480156101fa57600080fd5b5061021560048036038101906102109190613ef4565b611f49565b60405161022897969594939291906142e2565b60405180910390f35b34801561023d57600080fd5b50610258600480360381019061025391906144a9565b61234f565b005b34801561026657600080fd5b5061026f612709565b60405161027c9190614684565b60405180910390f35b34801561029157600080fd5b506102ac60048036038101906102a79190613f7f565b612732565b6040516102b99190614258565b60405180910390f35b3480156102ce57600080fd5b506102e960048036038101906102e49190613ef4565b612d5d565b005b3480156102f757600080fd5b50610312600480360381019061030d9190613ef4565b612d71565b005b34801561032057600080fd5b5061033b60048036038101906103369190613f7f565b613848565b005b600380549050811061037b576040517f59a79eab00000000000000000000000000000000000000000000000000000000815260040160405180910390fd5b60005b6003805490508110156106275781600382815481106103a05761039f61469f565b5b90600052602060002090600c02016000015403610614576000600560003373ffffffffffffffffffffffffffffffffffffffff1673ffffffffffffffffffffffffffffffffffffffff1681526020019081526020016000209050806003838154811061040f5761040e61469f565b5b90600052602060002090600c020190806001815401808255809150506001900390600052602060002090600c0201600090919091909150600082015481600001556001820181600101908161046491906148f0565b506002820160009054906101000a900473ffffffffffffffffffffffffffffffffffffffff168160020160006101000a81548173ffffffffffffffffffffffffffffffffffffffff021916908373ffffffffffffffffffffffffffffffffffffffff160217905550600382018160030190816104e091906148f0565b50600482018160040190816104f591906148f0565b506005820181600501908161050a91906148f0565b506006820181600601908161051f91906148f0565b506007820181600701908161053491906148f0565b506008820181600801908161054991906148f0565b506009820181600901908161055e91906148f0565b50600a820181600a01908161057391906148f0565b50600b82015481600b015550506000600383815481106105965761059561469f565b5b90600052602060002090600c020160020160009054906101000a900473ffffffffffffffffffffffffffffffffffffffff1690508073ffffffffffffffffffffffffffffffffffffffff166108fc349081150290604051600060405180830381858888f19350505050158015610610573d6000803e3d6000fd5b5050505b808061061f90614a07565b91505061037e565b5050565b6060600560008373ffffffffffffffffffffffffffffffffffffffff1673ffffffffffffffffffffffffffffffffffffffff168152602001908152602001600020805480602002602001604051908101604052809291908181526020016000905b82821015610c4b57838290600052602060002090600c020160405180610180016040529081600082015481526020016001820180546106ca906146fd565b80601f01602080910402602001604051908101604052809291908181526020018280546106f6906146fd565b80156107435780601f1061071857610100808354040283529160200191610743565b820191906000526020600020905b81548152906001019060200180831161072657829003601f168201915b505050505081526020016002820160009054906101000a900473ffffffffffffffffffffffffffffffffffffffff1673ffffffffffffffffffffffffffffffffffffffff1673ffffffffffffffffffffffffffffffffffffffff1681526020016003820180546107b2906146fd565b80601f01602080910402602001604051908101604052809291908181526020018280546107de906146fd565b801561082b5780601f106108005761010080835404028352916020019161082b565b820191906000526020600020905b81548152906001019060200180831161080e57829003601f168201915b50505050508152602001600482018054610844906146fd565b80601f0160208091040260200160405190810160405280929190818152602001828054610870906146fd565b80156108bd5780601f10610892576101008083540402835291602001916108bd565b820191906000526020600020905b8154815290600101906020018083116108a057829003601f168201915b505050505081526020016005820180546108d6906146fd565b80601f0160208091040260200160405190810160405280929190818152602001828054610902906146fd565b801561094f5780601f106109245761010080835404028352916020019161094f565b820191906000526020600020905b81548152906001019060200180831161093257829003601f168201915b50505050508152602001600682018054610968906146fd565b80601f0160208091040260200160405190810160405280929190818152602001828054610994906146fd565b80156109e15780601f106109b6576101008083540402835291602001916109e1565b820191906000526020600020905b8154815290600101906020018083116109c457829003601f168201915b505050505081526020016007820180546109fa906146fd565b80601f0160208091040260200160405190810160405280929190818152602001828054610a26906146fd565b8015610a735780601f10610a4857610100808354040283529160200191610a73565b820191906000526020600020905b815481529060010190602001808311610a5657829003601f168201915b50505050508152602001600882018054610a8c906146fd565b80601f0160208091040260200160405190810160405280929190818152602001828054610ab8906146fd565b8015610b055780601f10610ada57610100808354040283529160200191610b05565b820191906000526020600020905b815481529060010190602001808311610ae857829003601f168201915b50505050508152602001600982018054610b1e906146fd565b80601f0160208091040260200160405190810160405280929190818152602001828054610b4a906146fd565b8015610b975780601f10610b6c57610100808354040283529160200191610b97565b820191906000526020600020905b815481529060010190602001808311610b7a57829003601f168201915b50505050508152602001600a82018054610bb0906146fd565b80601f0160208091040260200160405190810160405280929190818152602001828054610bdc906146fd565b8015610c295780601f10610bfe57610100808354040283529160200191610c29565b820191906000526020600020905b815481529060010190602001808311610c0c57829003601f168201915b50505050508152602001600b820154815250508152602001906001019061068c565b505050509050919050565b6060610c60612709565b73ffffffffffffffffffffffffffffffffffffffff168273ffffffffffffffffffffffffffffffffffffffff1614610cc4576040517f65d5490e00000000000000000000000000000000000000000000000000000000815260040160405180910390fd5b6004805480602002602001604051908101604052809291908181526020016000905b828210156112a557838290600052602060002090600c02016040518061018001604052908160008201548152602001600182018054610d24906146fd565b80601f0160208091040260200160405190810160405280929190818152602001828054610d50906146fd565b8015610d9d5780601f10610d7257610100808354040283529160200191610d9d565b820191906000526020600020905b815481529060010190602001808311610d8057829003601f168201915b505050505081526020016002820160009054906101000a900473ffffffffffffffffffffffffffffffffffffffff1673ffffffffffffffffffffffffffffffffffffffff1673ffffffffffffffffffffffffffffffffffffffff168152602001600382018054610e0c906146fd565b80601f0160208091040260200160405190810160405280929190818152602001828054610e38906146fd565b8015610e855780601f10610e5a57610100808354040283529160200191610e85565b820191906000526020600020905b815481529060010190602001808311610e6857829003601f168201915b50505050508152602001600482018054610e9e906146fd565b80601f0160208091040260200160405190810160405280929190818152602001828054610eca906146fd565b8015610f175780601f10610eec57610100808354040283529160200191610f17565b820191906000526020600020905b815481529060010190602001808311610efa57829003601f168201915b50505050508152602001600582018054610f30906146fd565b80601f0160208091040260200160405190810160405280929190818152602001828054610f5c906146fd565b8015610fa95780601f10610f7e57610100808354040283529160200191610fa9565b820191906000526020600020905b815481529060010190602001808311610f8c57829003601f168201915b50505050508152602001600682018054610fc2906146fd565b80601f0160208091040260200160405190810160405280929190818152602001828054610fee906146fd565b801561103b5780601f106110105761010080835404028352916020019161103b565b820191906000526020600020905b81548152906001019060200180831161101e57829003601f168201915b50505050508152602001600782018054611054906146fd565b80601f0160208091040260200160405190810160405280929190818152602001828054611080906146fd565b80156110cd5780601f106110a2576101008083540402835291602001916110cd565b820191906000526020600020905b8154815290600101906020018083116110b057829003601f168201915b505050505081526020016008820180546110e6906146fd565b80601f0160208091040260200160405190810160405280929190818152602001828054611112906146fd565b801561115f5780601f106111345761010080835404028352916020019161115f565b820191906000526020600020905b81548152906001019060200180831161114257829003601f168201915b50505050508152602001600982018054611178906146fd565b80601f01602080910402602001604051908101604052809291908181526020018280546111a4906146fd565b80156111f15780601f106111c6576101008083540402835291602001916111f1565b820191906000526020600020905b8154815290600101906020018083116111d457829003601f168201915b50505050508152602001600a8201805461120a906146fd565b80601f0160208091040260200160405190810160405280929190818152602001828054611236906146fd565b80156112835780601f1061125857610100808354040283529160200191611283565b820191906000526020600020905b81548152906001019060200180831161126657829003601f168201915b50505050508152602001600b8201548152505081526020019060010190610ce6565b505050509050919050565b60606112ba612709565b73ffffffffffffffffffffffffffffffffffffffff168273ffffffffffffffffffffffffffffffffffffffff161461131e576040517f65d5490e00000000000000000000000000000000000000000000000000000000815260040160405180910390fd5b6003805480602002602001604051908101604052809291908181526020016000905b828210156118ff57838290600052602060002090600c0201604051806101800160405290816000820154815260200160018201805461137e906146fd565b80601f01602080910402602001604051908101604052809291908181526020018280546113aa906146fd565b80156113f75780601f106113cc576101008083540402835291602001916113f7565b820191906000526020600020905b8154815290600101906020018083116113da57829003601f168201915b505050505081526020016002820160009054906101000a900473ffffffffffffffffffffffffffffffffffffffff1673ffffffffffffffffffffffffffffffffffffffff1673ffffffffffffffffffffffffffffffffffffffff168152602001600382018054611466906146fd565b80601f0160208091040260200160405190810160405280929190818152602001828054611492906146fd565b80156114df5780601f106114b4576101008083540402835291602001916114df565b820191906000526020600020905b8154815290600101906020018083116114c257829003601f168201915b505050505081526020016004820180546114f8906146fd565b80601f0160208091040260200160405190810160405280929190818152602001828054611524906146fd565b80156115715780601f1061154657610100808354040283529160200191611571565b820191906000526020600020905b81548152906001019060200180831161155457829003601f168201915b5050505050815260200160058201805461158a906146fd565b80601f01602080910402602001604051908101604052809291908181526020018280546115b6906146fd565b80156116035780601f106115d857610100808354040283529160200191611603565b820191906000526020600020905b8154815290600101906020018083116115e657829003601f168201915b5050505050815260200160068201805461161c906146fd565b80601f0160208091040260200160405190810160405280929190818152602001828054611648906146fd565b80156116955780601f1061166a57610100808354040283529160200191611695565b820191906000526020600020905b81548152906001019060200180831161167857829003601f168201915b505050505081526020016007820180546116ae906146fd565b80601f01602080910402602001604051908101604052809291908181526020018280546116da906146fd565b80156117275780601f106116fc57610100808354040283529160200191611727565b820191906000526020600020905b81548152906001019060200180831161170a57829003601f168201915b50505050508152602001600882018054611740906146fd565b80601f016020809104026020016040519081016040528092919081815260200182805461176c906146fd565b80156117b95780601f1061178e576101008083540402835291602001916117b9565b820191906000526020600020905b81548152906001019060200180831161179c57829003601f168201915b505050505081526020016009820180546117d2906146fd565b80601f01602080910402602001604051908101604052809291908181526020018280546117fe906146fd565b801561184b5780601f106118205761010080835404028352916020019161184b565b820191906000526020600020905b81548152906001019060200180831161182e57829003601f168201915b50505050508152602001600a82018054611864906146fd565b80601f0160208091040260200160405190810160405280929190818152602001828054611890906146fd565b80156118dd5780601f106118b2576101008083540402835291602001916118dd565b820191906000526020600020905b8154815290600101906020018083116118c057829003601f168201915b50505050508152602001600b8201548152505081526020019060010190611340565b505050509050919050565b6060600660008373ffffffffffffffffffffffffffffffffffffffff1673ffffffffffffffffffffffffffffffffffffffff168152602001908152602001600020805480602002602001604051908101604052809291908181526020016000905b82821015611f2a57838290600052602060002090600c020160405180610180016040529081600082015481526020016001820180546119a9906146fd565b80601f01602080910402602001604051908101604052809291908181526020018280546119d5906146fd565b8015611a225780601f106119f757610100808354040283529160200191611a22565b820191906000526020600020905b815481529060010190602001808311611a0557829003601f168201915b505050505081526020016002820160009054906101000a900473ffffffffffffffffffffffffffffffffffffffff1673ffffffffffffffffffffffffffffffffffffffff1673ffffffffffffffffffffffffffffffffffffffff168152602001600382018054611a91906146fd565b80601f0160208091040260200160405190810160405280929190818152602001828054611abd906146fd565b8015611b0a5780601f10611adf57610100808354040283529160200191611b0a565b820191906000526020600020905b815481529060010190602001808311611aed57829003601f168201915b50505050508152602001600482018054611b23906146fd565b80601f0160208091040260200160405190810160405280929190818152602001828054611b4f906146fd565b8015611b9c5780601f10611b7157610100808354040283529160200191611b9c565b820191906000526020600020905b815481529060010190602001808311611b7f57829003601f168201915b50505050508152602001600582018054611bb5906146fd565b80601f0160208091040260200160405190810160405280929190818152602001828054611be1906146fd565b8015611c2e5780601f10611c0357610100808354040283529160200191611c2e565b820191906000526020600020905b815481529060010190602001808311611c1157829003601f168201915b50505050508152602001600682018054611c47906146fd565b80601f0160208091040260200160405190810160405280929190818152602001828054611c73906146fd565b8015611cc05780601f10611c9557610100808354040283529160200191611cc0565b820191906000526020600020905b815481529060010190602001808311611ca357829003601f168201915b50505050508152602001600782018054611cd9906146fd565b80601f0160208091040260200160405190810160405280929190818152602001828054611d05906146fd565b8015611d525780601f10611d2757610100808354040283529160200191611d52565b820191906000526020600020905b815481529060010190602001808311611d3557829003601f168201915b50505050508152602001600882018054611d6b906146fd565b80601f0160208091040260200160405190810160405280929190818152602001828054611d97906146fd565b8015611de45780601f10611db957610100808354040283529160200191611de4565b820191906000526020600020905b815481529060010190602001808311611dc757829003601f168201915b50505050508152602001600982018054611dfd906146fd565b80601f0160208091040260200160405190810160405280929190818152602001828054611e29906146fd565b8015611e765780601f10611e4b57610100808354040283529160200191611e76565b820191906000526020600020905b815481529060010190602001808311611e5957829003601f168201915b50505050508152602001600a82018054611e8f906146fd565b80601f0160208091040260200160405190810160405280929190818152602001828054611ebb906146fd565b8015611f085780601f10611edd57610100808354040283529160200191611f08565b820191906000526020600020905b815481529060010190602001808311611eeb57829003601f168201915b50505050508152602001600b820154815250508152602001906001019061196b565b505050509050919050565b611f3d6138cb565b611f476000613949565b565b60608060006060806060600060038881548110611f6957611f6861469f565b5b90600052602060002090600c020160010160038981548110611f8e57611f8d61469f565b5b90600052602060002090600c020160030160038a81548110611fb357611fb261469f565b5b90600052602060002090600c020160020160009054906101000a900473ffffffffffffffffffffffffffffffffffffffff1660038b81548110611ff957611ff861469f565b5b90600052602060002090600c020160040160038c8154811061201e5761201d61469f565b5b90600052602060002090600c020160070160038d815481106120435761204261469f565b5b90600052602060002090600c020160080160038e815481106120685761206761469f565b5b90600052602060002090600c0201600b0154868054612086906146fd565b80601f01602080910402602001604051908101604052809291908181526020018280546120b2906146fd565b80156120ff5780601f106120d4576101008083540402835291602001916120ff565b820191906000526020600020905b8154815290600101906020018083116120e257829003601f168201915b50505050509650858054612112906146fd565b80601f016020809104026020016040519081016040528092919081815260200182805461213e906146fd565b801561218b5780601f106121605761010080835404028352916020019161218b565b820191906000526020600020905b81548152906001019060200180831161216e57829003601f168201915b5050505050955083805461219e906146fd565b80601f01602080910402602001604051908101604052809291908181526020018280546121ca906146fd565b80156122175780601f106121ec57610100808354040283529160200191612217565b820191906000526020600020905b8154815290600101906020018083116121fa57829003601f168201915b5050505050935082805461222a906146fd565b80601f0160208091040260200160405190810160405280929190818152602001828054612256906146fd565b80156122a35780601f10612278576101008083540402835291602001916122a3565b820191906000526020600020905b81548152906001019060200180831161228657829003601f168201915b505050505092508180546122b6906146fd565b80601f01602080910402602001604051908101604052809291908181526020018280546122e2906146fd565b801561232f5780601f106123045761010080835404028352916020019161232f565b820191906000526020600020905b81548152906001019060200180831161231257829003601f168201915b505050505091509650965096509650965096509650919395979092949650565b600061235b6002613a0d565b90506123676002613a1b565b60046040518061018001604052808381526020018d81526020013373ffffffffffffffffffffffffffffffffffffffff1681526020018c81526020018b81526020018a81526020018981526020018881526020018781526020018681526020018581526020018481525090806001815401808255809150506001900390600052602060002090600c02016000909190919091506000820151816000015560208201518160010190816124199190614a4f565b5060408201518160020160006101000a81548173ffffffffffffffffffffffffffffffffffffffff021916908373ffffffffffffffffffffffffffffffffffffffff16021790555060608201518160030190816124769190614a4f565b50608082015181600401908161248c9190614a4f565b5060a08201518160050190816124a29190614a4f565b5060c08201518160060190816124b89190614a4f565b5060e08201518160070190816124ce9190614a4f565b506101008201518160080190816124e59190614a4f565b506101208201518160090190816124fc9190614a4f565b5061014082015181600a0190816125139190614a4f565b5061016082015181600b015550506000600660003373ffffffffffffffffffffffffffffffffffffffff1673ffffffffffffffffffffffffffffffffffffffff168152602001908152602001600020905080600460016004805490506125799190614b21565b8154811061258a5761258961469f565b5b90600052602060002090600c020190806001815401808255809150506001900390600052602060002090600c020160009091909190915060008201548160000155600182018160010190816125df91906148f0565b506002820160009054906101000a900473ffffffffffffffffffffffffffffffffffffffff168160020160006101000a81548173ffffffffffffffffffffffffffffffffffffffff021916908373ffffffffffffffffffffffffffffffffffffffff1602179055506003820181600301908161265b91906148f0565b506004820181600401908161267091906148f0565b506005820181600501908161268591906148f0565b506006820181600601908161269a91906148f0565b50600782018160070190816126af91906148f0565b50600882018160080190816126c491906148f0565b50600982018160090190816126d991906148f0565b50600a820181600a0190816126ee91906148f0565b50600b82015481600b01555050505050505050505050505050565b60008060009054906101000a900473ffffffffffffffffffffffffffffffffffffffff16905090565b6060600760008373ffffffffffffffffffffffffffffffffffffffff1673ffffffffffffffffffffffffffffffffffffffff168152602001908152602001600020805480602002602001604051908101604052809291908181526020016000905b82821015612d5257838290600052602060002090600c020160405180610180016040529081600082015481526020016001820180546127d1906146fd565b80601f01602080910402602001604051908101604052809291908181526020018280546127fd906146fd565b801561284a5780601f1061281f5761010080835404028352916020019161284a565b820191906000526020600020905b81548152906001019060200180831161282d57829003601f168201915b505050505081526020016002820160009054906101000a900473ffffffffffffffffffffffffffffffffffffffff1673ffffffffffffffffffffffffffffffffffffffff1673ffffffffffffffffffffffffffffffffffffffff1681526020016003820180546128b9906146fd565b80601f01602080910402602001604051908101604052809291908181526020018280546128e5906146fd565b80156129325780601f1061290757610100808354040283529160200191612932565b820191906000526020600020905b81548152906001019060200180831161291557829003601f168201915b5050505050815260200160048201805461294b906146fd565b80601f0160208091040260200160405190810160405280929190818152602001828054612977906146fd565b80156129c45780601f10612999576101008083540402835291602001916129c4565b820191906000526020600020905b8154815290600101906020018083116129a757829003601f168201915b505050505081526020016005820180546129dd906146fd565b80601f0160208091040260200160405190810160405280929190818152602001828054612a09906146fd565b8015612a565780601f10612a2b57610100808354040283529160200191612a56565b820191906000526020600020905b815481529060010190602001808311612a3957829003601f168201915b50505050508152602001600682018054612a6f906146fd565b80601f0160208091040260200160405190810160405280929190818152602001828054612a9b906146fd565b8015612ae85780601f10612abd57610100808354040283529160200191612ae8565b820191906000526020600020905b815481529060010190602001808311612acb57829003601f168201915b50505050508152602001600782018054612b01906146fd565b80601f0160208091040260200160405190810160405280929190818152602001828054612b2d906146fd565b8015612b7a5780601f10612b4f57610100808354040283529160200191612b7a565b820191906000526020600020905b815481529060010190602001808311612b5d57829003601f168201915b50505050508152602001600882018054612b93906146fd565b80601f0160208091040260200160405190810160405280929190818152602001828054612bbf906146fd565b8015612c0c5780601f10612be157610100808354040283529160200191612c0c565b820191906000526020600020905b815481529060010190602001808311612bef57829003601f168201915b50505050508152602001600982018054612c25906146fd565b80601f0160208091040260200160405190810160405280929190818152602001828054612c51906146fd565b8015612c9e5780601f10612c7357610100808354040283529160200191612c9e565b820191906000526020600020905b815481529060010190602001808311612c8157829003601f168201915b50505050508152602001600a82018054612cb7906146fd565b80601f0160208091040260200160405190810160405280929190818152602001828054612ce3906146fd565b8015612d305780601f10612d0557610100808354040283529160200191612d30565b820191906000526020600020905b815481529060010190602001808311612d1357829003601f168201915b50505050508152602001600b8201548152505081526020019060010190612793565b505050509050919050565b612d656138cb565b612d6e81613a31565b50565b612d796138cb565b60005b60048054905081101561383b578160048281548110612d9e57612d9d61469f565b5b90600052602060002090600c02016000015403613828576000612dc16001613a0d565b9050612dcd6001613a1b565b600360405180610180016040528083815260200160048581548110612df557612df461469f565b5b90600052602060002090600c02016001018054612e11906146fd565b80601f0160208091040260200160405190810160405280929190818152602001828054612e3d906146fd565b8015612e8a5780601f10612e5f57610100808354040283529160200191612e8a565b820191906000526020600020905b815481529060010190602001808311612e6d57829003601f168201915b5050505050815260200160048581548110612ea857612ea761469f565b5b90600052602060002090600c020160020160009054906101000a900473ffffffffffffffffffffffffffffffffffffffff1673ffffffffffffffffffffffffffffffffffffffff16815260200160048581548110612f0957612f0861469f565b5b90600052602060002090600c02016003018054612f25906146fd565b80601f0160208091040260200160405190810160405280929190818152602001828054612f51906146fd565b8015612f9e5780601f10612f7357610100808354040283529160200191612f9e565b820191906000526020600020905b815481529060010190602001808311612f8157829003601f168201915b5050505050815260200160048581548110612fbc57612fbb61469f565b5b90600052602060002090600c02016004018054612fd8906146fd565b80601f0160208091040260200160405190810160405280929190818152602001828054613004906146fd565b80156130515780601f1061302657610100808354040283529160200191613051565b820191906000526020600020905b81548152906001019060200180831161303457829003601f168201915b505050505081526020016004858154811061306f5761306e61469f565b5b90600052602060002090600c0201600501805461308b906146fd565b80601f01602080910402602001604051908101604052809291908181526020018280546130b7906146fd565b80156131045780601f106130d957610100808354040283529160200191613104565b820191906000526020600020905b8154815290600101906020018083116130e757829003601f168201915b50505050508152602001600485815481106131225761312161469f565b5b90600052602060002090600c0201600601805461313e906146fd565b80601f016020809104026020016040519081016040528092919081815260200182805461316a906146fd565b80156131b75780601f1061318c576101008083540402835291602001916131b7565b820191906000526020600020905b81548152906001019060200180831161319a57829003601f168201915b50505050508152602001600485815481106131d5576131d461469f565b5b90600052602060002090600c020160070180546131f1906146fd565b80601f016020809104026020016040519081016040528092919081815260200182805461321d906146fd565b801561326a5780601f1061323f5761010080835404028352916020019161326a565b820191906000526020600020905b81548152906001019060200180831161324d57829003601f168201915b50505050508152602001600485815481106132885761328761469f565b5b90600052602060002090600c020160080180546132a4906146fd565b80601f01602080910402602001604051908101604052809291908181526020018280546132d0906146fd565b801561331d5780601f106132f25761010080835404028352916020019161331d565b820191906000526020600020905b81548152906001019060200180831161330057829003601f168201915b505050505081526020016004858154811061333b5761333a61469f565b5b90600052602060002090600c02016009018054613357906146fd565b80601f0160208091040260200160405190810160405280929190818152602001828054613383906146fd565b80156133d05780601f106133a5576101008083540402835291602001916133d0565b820191906000526020600020905b8154815290600101906020018083116133b357829003601f168201915b50505050508152602001600485815481106133ee576133ed61469f565b5b90600052602060002090600c0201600a01805461340a906146fd565b80601f0160208091040260200160405190810160405280929190818152602001828054613436906146fd565b80156134835780601f1061345857610100808354040283529160200191613483565b820191906000526020600020905b81548152906001019060200180831161346657829003601f168201915b50505050508152602001600485815481106134a1576134a061469f565b5b90600052602060002090600c0201600b015481525090806001815401808255809150506001900390600052602060002090600c02016000909190919091506000820151816000015560208201518160010190816134fe9190614a4f565b5060408201518160020160006101000a81548173ffffffffffffffffffffffffffffffffffffffff021916908373ffffffffffffffffffffffffffffffffffffffff160217905550606082015181600301908161355b9190614a4f565b5060808201518160040190816135719190614a4f565b5060a08201518160050190816135879190614a4f565b5060c082015181600601908161359d9190614a4f565b5060e08201518160070190816135b39190614a4f565b506101008201518160080190816135ca9190614a4f565b506101208201518160090190816135e19190614a4f565b5061014082015181600a0190816135f89190614a4f565b5061016082015181600b01555050600060076000600485815481106136205761361f61469f565b5b90600052602060002090600c020160020160009054906101000a900473ffffffffffffffffffffffffffffffffffffffff1673ffffffffffffffffffffffffffffffffffffffff1673ffffffffffffffffffffffffffffffffffffffff168152602001908152602001600020905080600360016003805490506136a39190614b21565b815481106136b4576136b361469f565b5b90600052602060002090600c020190806001815401808255809150506001900390600052602060002090600c0201600090919091909150600082015481600001556001820181600101908161370991906148f0565b506002820160009054906101000a900473ffffffffffffffffffffffffffffffffffffffff168160020160006101000a81548173ffffffffffffffffffffffffffffffffffffffff021916908373ffffffffffffffffffffffffffffffffffffffff1602179055506003820181600301908161378591906148f0565b506004820181600401908161379a91906148f0565b50600582018160050190816137af91906148f0565b50600682018160060190816137c491906148f0565b50600782018160070190816137d991906148f0565b50600882018160080190816137ee91906148f0565b506009820181600901908161380391906148f0565b50600a820181600a01908161381891906148f0565b50600b82015481600b0155505050505b808061383390614a07565b915050612d7c565b5061384581613a31565b50565b6138506138cb565b600073ffffffffffffffffffffffffffffffffffffffff168173ffffffffffffffffffffffffffffffffffffffff16036138bf576040517f08c379a00000000000000000000000000000000000000000000000000000000081526004016138b690614bc7565b60405180910390fd5b6138c881613949565b50565b6138d3613e45565b73ffffffffffffffffffffffffffffffffffffffff166138f1612709565b73ffffffffffffffffffffffffffffffffffffffff1614613947576040517f08c379a000000000000000000000000000000000000000000000000000000000815260040161393e90614c33565b60405180910390fd5b565b60008060009054906101000a900473ffffffffffffffffffffffffffffffffffffffff169050816000806101000a81548173ffffffffffffffffffffffffffffffffffffffff021916908373ffffffffffffffffffffffffffffffffffffffff1602179055508173ffffffffffffffffffffffffffffffffffffffff168173ffffffffffffffffffffffffffffffffffffffff167f8be0079c531659141344cd1fd0a4f28419497f9722a3daafe3b4186f6b6457e060405160405180910390a35050565b600081600001549050919050565b6001816000016000828254019250508190555050565b60005b600480549050811015613e41578160048281548110613a5657613a5561469f565b5b90600052602060002090600c02016000015403613e2e576001600480549050613a7f9190614b21565b8103613b7c576004805480613a9757613a96614c53565b5b60019003818190600052602060002090600c0201600080820160009055600182016000613ac49190613e4d565b6002820160006101000a81549073ffffffffffffffffffffffffffffffffffffffff0219169055600382016000613afb9190613e4d565b600482016000613b0b9190613e4d565b600582016000613b1b9190613e4d565b600682016000613b2b9190613e4d565b600782016000613b3b9190613e4d565b600882016000613b4b9190613e4d565b600982016000613b5b9190613e4d565b600a82016000613b6b9190613e4d565b600b82016000905550509055613e2d565b60008190505b6001600480549050613b949190614b21565b811015613d39576004600182613baa9190614c82565b81548110613bbb57613bba61469f565b5b90600052602060002090600c020160048281548110613bdd57613bdc61469f565b5b90600052602060002090600c02016000820154816000015560018201816001019081613c0991906148f0565b506002820160009054906101000a900473ffffffffffffffffffffffffffffffffffffffff168160020160006101000a81548173ffffffffffffffffffffffffffffffffffffffff021916908373ffffffffffffffffffffffffffffffffffffffff16021790555060038201816003019081613c8591906148f0565b5060048201816004019081613c9a91906148f0565b5060058201816005019081613caf91906148f0565b5060068201816006019081613cc491906148f0565b5060078201816007019081613cd991906148f0565b5060088201816008019081613cee91906148f0565b5060098201816009019081613d0391906148f0565b50600a820181600a019081613d1891906148f0565b50600b82015481600b01559050508080613d3190614a07565b915050613b82565b506004805480613d4c57613d4b614c53565b5b60019003818190600052602060002090600c0201600080820160009055600182016000613d799190613e4d565b6002820160006101000a81549073ffffffffffffffffffffffffffffffffffffffff0219169055600382016000613db09190613e4d565b600482016000613dc09190613e4d565b600582016000613dd09190613e4d565b600682016000613de09190613e4d565b600782016000613df09190613e4d565b600882016000613e009190613e4d565b600982016000613e109190613e4d565b600a82016000613e209190613e4d565b600b820160009055505090555b5b8080613e3990614a07565b915050613a34565b5050565b600033905090565b508054613e59906146fd565b6000825580601f10613e6b5750613e8a565b601f016020900490600052602060002090810190613e899190613e8d565b5b50565b5b80821115613ea6576000816000905550600101613e8e565b5090565b6000604051905090565b600080fd5b600080fd5b6000819050919050565b613ed181613ebe565b8114613edc57600080fd5b50565b600081359050613eee81613ec8565b92915050565b600060208284031215613f0a57613f09613eb4565b5b6000613f1884828501613edf565b91505092915050565b600073ffffffffffffffffffffffffffffffffffffffff82169050919050565b6000613f4c82613f21565b9050919050565b613f5c81613f41565b8114613f6757600080fd5b50565b600081359050613f7981613f53565b92915050565b600060208284031215613f9557613f94613eb4565b5b6000613fa384828501613f6a565b91505092915050565b600081519050919050565b600082825260208201905092915050565b6000819050602082019050919050565b613fe181613ebe565b82525050565b600081519050919050565b600082825260208201905092915050565b60005b83811015614021578082015181840152602081019050614006565b60008484015250505050565b6000601f19601f8301169050919050565b600061404982613fe7565b6140538185613ff2565b9350614063818560208601614003565b61406c8161402d565b840191505092915050565b61408081613f41565b82525050565b60006101808301600083015161409f6000860182613fd8565b50602083015184820360208601526140b7828261403e565b91505060408301516140cc6040860182614077565b50606083015184820360608601526140e4828261403e565b915050608083015184820360808601526140fe828261403e565b91505060a083015184820360a0860152614118828261403e565b91505060c083015184820360c0860152614132828261403e565b91505060e083015184820360e086015261414c828261403e565b915050610100830151848203610100860152614168828261403e565b915050610120830151848203610120860152614184828261403e565b9150506101408301518482036101408601526141a0828261403e565b9150506101608301516141b7610160860182613fd8565b508091505092915050565b60006141ce8383614086565b905092915050565b6000602082019050919050565b60006141ee82613fac565b6141f88185613fb7565b93508360208202850161420a85613fc8565b8060005b85811015614246578484038952815161422785826141c2565b9450614232836141d6565b925060208a0199505060018101905061420e565b50829750879550505050505092915050565b6000602082019050818103600083015261427281846141e3565b905092915050565b600082825260208201905092915050565b600061429682613fe7565b6142a0818561427a565b93506142b0818560208601614003565b6142b98161402d565b840191505092915050565b6142cd81613f41565b82525050565b6142dc81613ebe565b82525050565b600060e08201905081810360008301526142fc818a61428b565b90508181036020830152614310818961428b565b905061431f60408301886142c4565b8181036060830152614331818761428b565b90508181036080830152614345818661428b565b905081810360a0830152614359818561428b565b905061436860c08301846142d3565b98975050505050505050565b600080fd5b600080fd5b7f4e487b7100000000000000000000000000000000000000000000000000000000600052604160045260246000fd5b6143b68261402d565b810181811067ffffffffffffffff821117156143d5576143d461437e565b5b80604052505050565b60006143e8613eaa565b90506143f482826143ad565b919050565b600067ffffffffffffffff8211156144145761441361437e565b5b61441d8261402d565b9050602081019050919050565b82818337600083830152505050565b600061444c614447846143f9565b6143de565b90508281526020810184848401111561446857614467614379565b5b61447384828561442a565b509392505050565b600082601f8301126144905761448f614374565b5b81356144a0848260208601614439565b91505092915050565b6000806000806000806000806000806101408b8d0312156144cd576144cc613eb4565b5b60008b013567ffffffffffffffff8111156144eb576144ea613eb9565b5b6144f78d828e0161447b565b9a505060208b013567ffffffffffffffff81111561451857614517613eb9565b5b6145248d828e0161447b565b99505060408b013567ffffffffffffffff81111561454557614544613eb9565b5b6145518d828e0161447b565b98505060608b013567ffffffffffffffff81111561457257614571613eb9565b5b61457e8d828e0161447b565b97505060808b013567ffffffffffffffff81111561459f5761459e613eb9565b5b6145ab8d828e0161447b565b96505060a08b013567ffffffffffffffff8111156145cc576145cb613eb9565b5b6145d88d828e0161447b565b95505060c08b013567ffffffffffffffff8111156145f9576145f8613eb9565b5b6146058d828e0161447b565b94505060e08b013567ffffffffffffffff81111561462657614625613eb9565b5b6146328d828e0161447b565b9350506101008b013567ffffffffffffffff81111561465457614653613eb9565b5b6146608d828e0161447b565b9250506101206146728d828e01613edf565b9150509295989b9194979a5092959850565b600060208201905061469960008301846142c4565b92915050565b7f4e487b7100000000000000000000000000000000000000000000000000000000600052603260045260246000fd5b7f4e487b7100000000000000000000000000000000000000000000000000000000600052602260045260246000fd5b6000600282049050600182168061471557607f821691505b602082108103614728576147276146ce565b5b50919050565b60008154905061473d816146fd565b9050919050565b60008190508160005260206000209050919050565b60006020601f8301049050919050565b600082821b905092915050565b6000600883026147a67fffffffffffffffffffffffffffffffffffffffffffffffffffffffffffffffff82614769565b6147b08683614769565b95508019841693508086168417925050509392505050565b6000819050919050565b60006147ed6147e86147e384613ebe565b6147c8565b613ebe565b9050919050565b6000819050919050565b614807836147d2565b61481b614813826147f4565b848454614776565b825550505050565b600090565b614830614823565b61483b8184846147fe565b505050565b5b8181101561485f57614854600082614828565b600181019050614841565b5050565b601f8211156148a45761487581614744565b61487e84614759565b8101602085101561488d578190505b6148a161489985614759565b830182614840565b50505b505050565b600082821c905092915050565b60006148c7600019846008026148a9565b1980831691505092915050565b60006148e083836148b6565b9150826002028217905092915050565b8181036148fe5750506149d6565b6149078261472e565b67ffffffffffffffff8111156149205761491f61437e565b5b61492a82546146fd565b614935828285614863565b6000601f8311600181146149645760008415614952578287015490505b61495c85826148d4565b8655506149cf565b601f19841661497287614744565b965061497d86614744565b60005b828110156149a557848901548255600182019150600185019450602081019050614980565b868310156149c257848901546149be601f8916826148b6565b8355505b6001600288020188555050505b5050505050505b565b7f4e487b7100000000000000000000000000000000000000000000000000000000600052601160045260246000fd5b6000614a1282613ebe565b91507fffffffffffffffffffffffffffffffffffffffffffffffffffffffffffffffff8203614a4457614a436149d8565b5b600182019050919050565b614a5882613fe7565b67ffffffffffffffff811115614a7157614a7061437e565b5b614a7b82546146fd565b614a86828285614863565b600060209050601f831160018114614ab95760008415614aa7578287015190505b614ab185826148d4565b865550614b19565b601f198416614ac786614744565b60005b82811015614aef57848901518255600182019150602085019450602081019050614aca565b86831015614b0c5784890151614b08601f8916826148b6565b8355505b6001600288020188555050505b505050505050565b6000614b2c82613ebe565b9150614b3783613ebe565b9250828203905081811115614b4f57614b4e6149d8565b5b92915050565b7f4f776e61626c653a206e6577206f776e657220697320746865207a65726f206160008201527f6464726573730000000000000000000000000000000000000000000000000000602082015250565b6000614bb160268361427a565b9150614bbc82614b55565b604082019050919050565b60006020820190508181036000830152614be081614ba4565b9050919050565b7f4f776e61626c653a2063616c6c6572206973206e6f7420746865206f776e6572600082015250565b6000614c1d60208361427a565b9150614c2882614be7565b602082019050919050565b60006020820190508181036000830152614c4c81614c10565b9050919050565b7f4e487b7100000000000000000000000000000000000000000000000000000000600052603160045260246000fd5b6000614c8d82613ebe565b9150614c9883613ebe565b9250828201905080821115614cb057614caf6149d8565b5b9291505056fea26469706673582212208dea7cff28cd92a3506de78b3223acd71cb89ddbcde644ab13437d41d178ac8964736f6c63430008110033",
  "immutableReferences": {},
  "source": "// SPDX-License-Identifier: MIT\npragma solidity 0.8.17;\n\nimport \"@openzeppelin/contracts/access/Ownable.sol\";\nimport \"@openzeppelin/contracts/utils/Counters.sol\";\n\nerror AppNotExist();\nerror InvalidAppId();\nerror NotAllowedToSeeAppInfo();\nerror NotAllowedAccount();\n\ncontract DHubStore is Ownable {\n    using Counters for Counters.Counter;\n    Counters.Counter private _appIdCounter;\n    Counters.Counter private _requestedAppIdCounter;\n\n    struct App {\n        uint256 id;\n        string name;\n        address owner;\n        string description;\n        string image;\n        string tags;\n        string website;\n        string github;\n        string discord;\n        string telegram;\n        string smartContractUrl;\n        uint256 usingPrice;\n    }\n\n    // apps that have already been published by admin\n    App[] private apps;\n    // apps that have been requested to publish\n    App[] private requestedApps;\n\n    // user address => apps used by that user\n    mapping(address => App[]) private userToAppsMapper;\n    // user address => apps requested by that user\n    mapping(address => App[]) private userToRequestedAppsMapper;\n    // user address => apps published by that user\n    mapping(address => App[]) private userToPublishedAppsMapper;\n\n    function requestToPublishApp(\n        string memory _name,\n        string memory _description,\n        string memory _image,\n        string memory _tags,\n        string memory _website,\n        string memory _github,\n        string memory _discord,\n        string memory _telegram,\n        string memory _smartContractUrl,\n        uint256 _usingPrice\n    ) external {\n        uint256 appId = _requestedAppIdCounter.current();\n        _requestedAppIdCounter.increment();\n        requestedApps.push(App(\n            appId,\n            _name,\n            msg.sender,\n            _description,\n            _image,\n            _tags,\n            _website,\n            _github,\n            _discord,\n            _telegram,\n            _smartContractUrl,\n            _usingPrice\n        ));\n        App[] storage userRequestedApps = userToRequestedAppsMapper[msg.sender];\n        userRequestedApps.push(requestedApps[requestedApps.length-1]);\n    }\n\n    /**\n     * @dev admin publishes an app to the store\n     */\n    function publishApp(\n        uint256 requestedAppId\n    ) external onlyOwner {\n        for (uint i = 0; i < requestedApps.length; i++) {\n            if (requestedApps[i].id == requestedAppId) {\n                uint256 appId = _appIdCounter.current();\n                _appIdCounter.increment();\n                apps.push(App(\n                    appId,\n                    requestedApps[i].name,\n                    requestedApps[i].owner, \n                    requestedApps[i].description,\n                    requestedApps[i].image,\n                    requestedApps[i].tags,\n                    requestedApps[i].website,\n                    requestedApps[i].github,\n                    requestedApps[i].discord,\n                    requestedApps[i].telegram,\n                    requestedApps[i].smartContractUrl,\n                    requestedApps[i].usingPrice\n                ));\n                App[] storage userPublishedApps = userToPublishedAppsMapper[requestedApps[i].owner];\n                userPublishedApps.push(apps[apps.length-1]);\n            }\n        }\n        removeAppFromRequestedApps(requestedAppId);\n    }\n\n    /**\n     * @dev admin rejects to publish an app to the store\n     */\n    function rejectApp(uint256 _appId) external onlyOwner {\n        removeAppFromRequestedApps(_appId);\n    }\n\n    /**\n     * @dev remove an app from requested apps queue by app id\n     */\n    function removeAppFromRequestedApps(uint256 _appId) internal {\n        for (uint i = 0; i < requestedApps.length; i++) {\n            if (requestedApps[i].id == _appId) {\n                if (i == requestedApps.length - 1) {\n                    requestedApps.pop();\n                } else {\n                    for (uint j = i; j < requestedApps.length - 1; j++) {\n                        requestedApps[j] = requestedApps[j+1];\n                    }\n                    requestedApps.pop();\n                }\n            }\n        }\n    }\n\n    /**\n     * @notice dApp using price will be transferred from dApp user to dApp creator\n     * @dev user request to use an app\n     */\n    function useApp(uint256 appId) external payable{\n        if (appId >= apps.length) revert AppNotExist();\n        for (uint i = 0; i < apps.length; i++) {\n            if (apps[i].id == appId) {\n                App[] storage userApps = userToAppsMapper[msg.sender];\n                userApps.push(apps[i]);\n                address payable appOwner = payable(apps[i].owner);\n                appOwner.transfer(msg.value); //transfer using price to dApp creator\n            }\n        }\n    }\n\n    /**\n     * @dev Get all listed apps\n     * @return Array of Apps that are listed\n     */\n    function getAllPublishedApps(address _address) external view returns (App[] memory) {\n        if (_address != owner()) revert NotAllowedAccount();\n        return apps;\n    }\n\n    /**\n     * @dev Get all requested apps\n     * @return Array of Apps that have been requested\n     */\n    function getAllRequestedApps(address _address) external view returns (App[] memory) {\n        if (_address != owner()) revert NotAllowedAccount();\n        return requestedApps;\n    }\n\n    /**\n     * @dev Get app info\n     */\n    function getAppInfo(uint256 _appId) external view returns (\n        string memory name,\n        string memory description,\n        address owner,\n        string memory image,\n        string memory github,\n        string memory discord,\n        uint256 usingPrice\n    ) {\n        return (apps[_appId].name,\n                apps[_appId].description,\n                apps[_appId].owner,\n                apps[_appId].image,\n                apps[_appId].github,\n                apps[_appId].discord,\n                apps[_appId].usingPrice);\n    }\n\n    /**\n     * @dev Get all apps belong to a user (apps that the user has used)\n     * @return Array of Apps\n     */\n    function getAppsBelongToUser(address userAddress) external view returns (App[] memory) {\n        return userToAppsMapper[userAddress];\n    }\n\n    /**\n     * @dev Get all apps requested by a user\n     * @return Array of Apps\n     */\n    function getAppsRequestedByUser(address userAddress) external view returns (App[] memory) {\n        return userToRequestedAppsMapper[userAddress];\n    }\n\n    /**\n     * @dev Get all apps published by a user\n     * @return Array of Apps\n     */\n    function getAppsPublishedByUser(address userAddress) external view returns (App[] memory) {\n        return userToPublishedAppsMapper[userAddress];\n    }\n}\n",
  "sourcePath": "/Users/timthang/Desktop/Blockchain/DHub/DHub-solana-store/truffle/contracts/dhub.sol",
  "compiler": {
    "name": "solc",
    "version": "0.8.17+commit.8df45f5f.Emscripten.clang"
  },
  "schemaVersion": "3.4.10",
  "updatedAt": "2023-03-05T04:41:01.354Z",
  "devdoc": {
    "kind": "dev",
    "methods": {
      "getAllPublishedApps(address)": {
        "details": "Get all listed apps",
        "returns": {
          "_0": "Array of Apps that are listed"
        }
      },
      "getAllRequestedApps(address)": {
        "details": "Get all requested apps",
        "returns": {
          "_0": "Array of Apps that have been requested"
        }
      },
      "getAppInfo(uint256)": {
        "details": "Get app info"
      },
      "getAppsBelongToUser(address)": {
        "details": "Get all apps belong to a user (apps that the user has used)",
        "returns": {
          "_0": "Array of Apps"
        }
      },
      "getAppsPublishedByUser(address)": {
        "details": "Get all apps published by a user",
        "returns": {
          "_0": "Array of Apps"
        }
      },
      "getAppsRequestedByUser(address)": {
        "details": "Get all apps requested by a user",
        "returns": {
          "_0": "Array of Apps"
        }
      },
      "owner()": {
        "details": "Returns the address of the current owner."
      },
      "publishApp(uint256)": {
        "details": "admin publishes an app to the store"
      },
      "rejectApp(uint256)": {
        "details": "admin rejects to publish an app to the store"
      },
      "renounceOwnership()": {
        "details": "Leaves the contract without owner. It will not be possible to call `onlyOwner` functions anymore. Can only be called by the current owner. NOTE: Renouncing ownership will leave the contract without an owner, thereby removing any functionality that is only available to the owner."
      },
      "transferOwnership(address)": {
        "details": "Transfers ownership of the contract to a new account (`newOwner`). Can only be called by the current owner."
      },
      "useApp(uint256)": {
        "details": "user request to use an app"
      }
    },
    "version": 1
  },
  "userdoc": {
    "kind": "user",
    "methods": {
      "useApp(uint256)": {
        "notice": "dApp using price will be transferred from dApp user to dApp creator"
      }
    },
    "version": 1
  }
}